:020000040800F2
:1000000000040020AD010008EB070008E707000826
:10001000E907000839060008BD08000800000000D4
:10002000000000000000000000000000BF01000808
:100030003B06000800000000C3010008C5010008DD
:10004000C7010008C7010008C7010008C701000870
:10005000C7010008C7010008C7010008C701000860
:10006000C7010008C7010008C7010008C701000850
:10007000C7010008C7010008C7010008C701000840
:10008000C7010008C7010008C70100080000000000
:10009000000000000000000000000000C701000890
:1000A000C7010008C7010008C7010008C701000810
:1000B000C7010008C7010008C7010008C701000800
:1000C000C7010008C7010008C7010008C7010008F0
:1000D000C7010008C7010008C701000800000000B0
:1000E000C7010008C7010008C701000800000000A0
:1000F000000000000000000000000000C701000830
:1001000000000000C7010008C7010008C70100087F
:1001100000000000000000000000000000000000DF
:10012000C7010008C7010008C7010008C70100088F
:10013000C7010008000000000000000000000000EF
:10014000000000000000000000000000C7010008DF
:10015000C7010008C7010008C7010008C70100085F
:10016000C7010008C70100080000000000000000EF
:10017000000000000000000000000000000000007F
:1001800000000000C701000800000000000000009F
:10019000C7010008C7010008DFF80CD000F018F80C
:1001A00000480047DD08000800040020064880479A
:1001B00006480047FEE7FEE7FEE7FEE7FEE7FEE74C
:1001C000FEE7FEE7FEE7FEE7610800089901000888
:1001D000064C074D06E0E06840F0010394E8070094
:1001E00098471034AC42F6D3FFF7DAFFF408000862
:1001F00004090008014900F0BBB800000000020833
:1002000070B50B4D4FF400342146284600F05CF8E1
:1002100048B100F03FF840B122462846BDE87040A2
:10022000044900F023B8002070BD012070BD00001B
:10023000000006080000020870B54FF0FF320024ED
:10024000094D0DE0035D5A400023D60702D085EA30
:10025000520200E052085B1CDBB2082BF5D3641C91
:100260008C42EFD3D04370BD2083B8ED2DE9F0412F
:1002700005460E461746002405E03159281900F0BE
:1002800043F928B1241DBC42F7D30120BDE8F08119
:100290000020FBE70148FFF7ADBF000000000208A7
:1002A00072B600214FF0E0200161416181610020C0
:1002B000421E810001F1E021C1F88021C1F88022B5
:1002C000401C0828F5D370472DE9F0414518044635
:1002D0000E4E0F4F16E0204600F05EF9022100F0AE
:1002E000CBF9092802D00020BDE8F081B44202D247
:1002F00004F5804406E0BC4202D204F5803401E0FB
:1003000004F50034AC42E6D30120EDE7000001081B
:100310000000020810B5002000F004FA002000F0F0
:1003200093F900F00FFA00F09FF9012000F0FAF9BC
:10033000BDE81040012000F087B970B506460C46B4
:100340001546002C02D0B4F5003F01D9002070BD45
:100350003046FFF74FFF38B121463046FFF76CFFBC
:10036000A84203D1012070BD002070BD002070BDE7
:1003700010B50268406820F00103A2F10054B4F502
:10038000003F01D8920701D0002010BDC00705D062
:100390008B4203D301F500318B4201D3002010BD05
:1003A000012010BDC1694A1C00D10021406988426A
:1003B00001D3012070470020704700002DE9F04173
:1003C00004462046FFF7EEFF50B3204ED4E9031257
:1003D0003046FFF7B2FF30B3E569FFF711FF20B3F6
:1003E0001B4F4FF400313846FFF76EFFF8B131462E
:1003F0003E463046E268FFF739FFE8B1FFF78AFF73
:10040000D4E903123046FFF798FFD0B11148A0603D
:100410000020A06125622046BDE8F04100F0F0B860
:100420000020BDE8F0810020FBE70020F9E720462E
:1004300000F080F80020F4E7204600F07BF8002070
:10044000EFE7204600F076F80020EAE70000040815
:100450000000020802005AA570B5044625686668C7
:10046000FFF71EFF0548046085F30888BFF34F8F30
:10047000BFF36F8FB446BDE87040604708ED00E001
:10048000054A0168914202D14068012801D000204C
:1004900070470120704700003157544200B591B0B9
:1004A00001A800F03BF801A8FFF7EAFF002827D0D9
:1004B00000F076F9F32000F0C1F812490398884261
:1004C0000CD101A8FFF77AFFC0B90E48C01C0390F9
:1004D0000020079001A800F093F80FE00949039865
:1004E000491C88420AD1079818B101A800F022F8E7
:1004F00004E00120079001A800F082F800F02AF93A
:1005000011B000BD01005AA510B500F02BF9092863
:1005100001D0002010BD012010BD0000044A0021C0
:1005200052F8213040F82130491C1029F8D3704787
:10053000000001082DE9F0410446144D2846FFF75C
:1005400059FEE0B1124F4FF4003631463846FFF7FE
:10055000BBFEB8B1324629463846FFF787FE98B150
:10056000FFF7D8FE0B48A0600020A061206A411C64
:1005700000D0E0612046BDE8F04100F041B8002025
:10058000BDE8F0810020FBE70020F9E70000060845
:100590000000020804005AA51249884201D2002036
:1005A00070471149884201D2082070470F4988429C
:1005B00001D2102070470E49884201D2182070479E
:1005C0000C49884201D2202070470B49884201D251
:1005D000282070470949884201D2302070473820CE
:1005E00070470000004000080080000800C00008BC
:1005F00000000108000002080000040800000608CE
:1006000070B506460B4D4FF480312846FFF75CFE6F
:1006100060B1002405EB840056F82410FFF774FF46
:1006200030B1641C102CF5D3012070BD002070BDCA
:10063000002070BD00000108FEE770470149086016
:10064000704700000C3C02400649002804D00868AE
:1006500040F4806008607047086820F4806008609B
:1006600070470000003C02400248016841F480519C
:1006700001607047003C024070B506460025002925
:1006800005D0012927D0022928D04FF4407500F069
:1006900099F809281ED1134C206820F4407020607E
:1006A000206828432060206820F0F800206020683F
:1006B00046F0020108432060206840F4803020604A
:1006C00000F080F8216821F002012160216821F00A
:1006D000F801216070BD4FF48075D8E74FF40075C4
:1006E000D5E70000103C024009200D490A68D203FA
:1006F00001D5012070470A68D20601D5062070474F
:100700000A68D20501D5022070470A6812F0E00F8E
:1007100001D00720704709688907FBD5082070477A
:100720000C3C02400649002804D0086840F40070E0
:1007300008607047086820F4007008607047000087
:10074000003C02400248016841F4006101607047CA
:10075000003C02400248016841F0004101607047DE
:10076000103C024070B505460E4600F02BF80928F3
:1007700013D10A4C206820F440702060206840F4B7
:1007800000702060206840F0010020602E6000F0C2
:1007900019F8216821F00101216070BD103C024070
:1007A00005480068002805DA034804490C38016050
:1007B0000349016070470000103C02402301674577
:1007C000AB89EFCD08B509200090FFF78DFF0090B1
:1007D00002E0FFF789FF00909DF800000128F8D0A3
:1007E0009DF8000008BDFEE7FEE770471848016865
:1007F00041F0805101601748016841F440410160B7
:10080000134838380168016001680160016841F4EB
:1008100080510160021F10491160111F0A6842F0E7
:1008200080720A600A689201FCD50C4A40F203719A
:100830001160016821F003010160016841F00201CB
:1008400001600168C1F381010229FAD170470000FB
:10085000403802400070004010640107003C024034
:1008600010B51248016841F4700101601048016838
:1008700041F0010101600E4A002108321160026856
:100880000C4B1A400260031D0B4A1A60026822F4E6
:100890008022026006480C300160FFF7A7FF034981
:1008A0004FF000608039086010BD000088ED00E066
:1008B00000380240FFFFF6FE10300024FEE702E0A1
:1008C00008C8121F08C1002AFAD1704770470020DB
:1008D00001E001C1121F002AFBD17047FFF7DEFDC6
:1008E000FFF7D8FC10B10248FFF7B6FDFEE70000A5
:1008F00000000208040900080000002000040000B5
:04090000CE08000815
:040000050800019955
:00000001FF
