:020000040802F0
:10000000A8AF00206D020208512D020855290208F0
:100010009D2C02086F1402087548020800000000B9
:10002000000000000000000000000000AD01020818
:10003000C91B02080000000009020208D54202089C
:100040008702020887020208870202088702020864
:100050008702020887020208FD1C0208A91D020887
:100060008702020887020208F51D020887020208BB
:100070008702020887020208870202088702020834
:1000800087020208870202088702020800000000B7
:1000900000000000000000000000000087020208CD
:1000A0008702020887020208870202088702020804
:1000B0005D43020801440208870202088702020821
:1000C00087020208870202088702020887020208E4
:1000D0008702020887020208C945020800000000E2
:1000E000611D020887020208870202080000000062
:1000F000000000000000000000000000870202086D
:100100000000000087020208870202088702020836
:1001100000000000000000000000000000000000DF
:10012000891402088702020887020208870202086F
:10013000870202080000000000000000000000002C
:10014000000000000000000000000000870202081C
:100150008702020887020208870202088702020853
:100160008702020887020208000000000000000069
:10017000000000000000000000000000000000007F
:1001800000000000870202080000000000000000DC
:100190008702020887020208DFF80CD000F0E0FBBB
:1001A00000480047F1650208A8AF00202C4B1968F1
:1001B0000868B0E8F04F80F30988BFF36F8F4FF005
:1001C000000080F3118870470000000008480068B4
:1001D000006880F308884FF0000080F3148862B64E
:1001E00061B6BFF34F8FBFF36F8F00DF00BF00BF5B
:1001F00008ED00E0DFF80C00016841F470010160D7
:10020000704700BF88ED00E0EFF30980BFF36F8F08
:10021000134B1A681EF0100F08BF20ED108A20E95A
:10022000F04F106009B44FF0500080F31188BFF315
:100230004F8FBFF36F8F08F045F94FF0000080F348
:10024000118809BC19680868B0E8F04F1EF0100F5B
:1002500008BFB0EC108A80F30988BFF36F8F704736
:10026000BC000020EFF3058070470000064880477F
:1002700006480047FEE7FEE7FEE7FEE7FEE7FEE78B
:10028000FEE7FEE7FEE7FEE70143020899010208E8
:100290002DE9F05F0546002092469B4688460646BB
:1002A000814640241BE0284641464746224600F04E
:1002B00088FA53465A46C01A914110D3114618463F
:1002C000224600F06FFA2D1A67EB01084F462246CE
:1002D0000120002100F066FA17EB00094E41201EB4
:1002E000A4F10104DFDC484631462A464346BDE816
:1002F000F09F40EA01039B0703D009E008C9121FE1
:1003000008C0042AFAD203E011F8013B00F8013BCF
:10031000521EF9D27047D2B201E000F8012B491EFB
:10032000FBD270470022F6E710B513460A46044692
:100330001946FFF7F0FF204610BD10B5002200E07F
:10034000521C835C8C5CA34201D1002BF8D1D8B243
:10035000E1B2401A10BD2DE9FE4F804681EA03004C
:10036000C00F0C46009021F0004123F00045B8EB8F
:100370000200A94105D24046214690461C460B4644
:10038000024623F00040104347D0270DC7F30A0070
:10039000C3F30A510290401A019040286BDAC3F36C
:1003A000130040F4801B0098924620B10023D2EB4A
:1003B000030A63EB0B0B01985946C0F1400250460B
:1003C00000F0F0F906460D4650465946019A00F0F5
:1003D00008FA10EB08006141002487EA115284EA10
:1003E000E7731A4340D0009A62B3019A012A4FEA98
:1003F000075215DC001B61EB02014FF0004202EADC
:100400000752CDE90042001C41F5801132462B46CF
:1004100000F03FFA03B0BDE8F08F40462146F9E70F
:10042000001B61EB0201001C41F5801300185B41C9
:100430002018A2F5001747EB030140EAD570B61962
:100440006D4111E06D084FEA360645EAC0754FEA86
:100450000752001B61EB0201001C41F580114908A5
:100460004FEA30000019514132462B4603B0BDE837
:10047000F04F00F0FFB90098012240000023D0EBBC
:10048000020263EBE073009821464FEAE074B8EB98
:10049000000061EB0401E9E783F000435BE781F0D2
:1004A000004158E72DE9FE4F81EA030404F00044BF
:1004B00021F0004100944FF0000B23F0004350EA7C
:1004C00001045ED052EA03045BD0C3F30A54C1F3C3
:1004D0000A552C44A4F2F3340194A0FB0254C1F356
:1004E000130141F48011C3F3130343F4801301FBA0
:1004F000024400FB034E840A970A44EA815447EA07
:100500008357A4FB076802958D0A05FB07854FEA10
:10051000932C04FB0C542705029D4FEA065847EA2A
:100520001637B5EB08056EEB070C870E920E47EAFF
:10053000811742EA8312A7FB0201B6EB0B0164EBC1
:1005400000042B0D43EA0C335E1844EB1C50DA46D2
:100550005146E7FB0201C5F313044FEA0B3343EAAC
:1005600014534FEA0432019C43EA0603A4F10C043D
:100570000294009CCDE900B400F08BF903B0BDE813
:10058000F08F00200146F9E72DE9F04D81EA0304E0
:1005900004F0004B21F0004514464FF0000A23F010
:1005A000004150EA050220D054EA01021DD0C5F3F3
:1005B0000A570246C5F31303C1F31300C1F30A56E9
:1005C00040F4801543F48013A7EB0608101BD646B1
:1005D00008F2FD3873EB050002D308F1010801E0D1
:1005E00092185B41B8F1000F03DA00200146BDE824
:1005F000F08D00204FF48011064684460EE0171B54
:1006000073EB050705D3121B63EB050306434CEAA6
:10061000010C49084FEA300092185B4150EA01078B
:10062000EDD152EA030012D082EA040083EA050108
:10063000084305D0101BAB4106D20122002306E07F
:1006400000224FF0004302E06FF0010253101AEB5A
:1006500006004CEB085110EB0A0041EB0B01BDE822
:10066000F04D00F007B90EB5C10F80EAE070084404
:10067000CA07002140F233438DE80E000A460B46BC
:1006800000F007F903B000BD0EB540F2334102910E
:100690000021CDE900110A460B4600F0FAF803B03C
:1006A00000BD70B5C1F30A5201F000450024C1F34A
:1006B000130140F2FF3341F480119A4201DA002025
:1006C00070BD40F233439A42A2F2334203DC5242FD
:1006D00000F077F800E090402C43F1D0404270BD2C
:1006E00030B5041E71F1000404DB4FF000444042B9
:1006F00064EB0101141E73F1000405DB1C464FF08E
:100700000043524263EB04038B4208BF824230BD78
:1007100030B5041E71F1000404DB4FF00044404288
:1007200064EB0101141E73F1000405DB1C464FF05D
:100730000043524263EB0403994208BF904230BD2C
:1007400001F0004330B421F0004150EA010206D02C
:100750000A0DA2F56072C1F31301002A02DC30BC5D
:1007600000207047440F44EAC104C100E01830BCC7
:1007700000EBC25000F047B830B50B4601460020F0
:100780002022012409E021FA02F59D4205D303FA53
:1007900002F5491B04FA02F52844151EA2F10102D4
:1007A000F1DC30BD202A04DB203A00FA02F10020FF
:1007B00070479140C2F1200320FA03F3194390409F
:1007C0007047202A04DB203A21FA02F0002170470A
:1007D00021FA02F3D040C2F12002914008431946A9
:1007E0007047202A06DBCB17203A41FA02F043EA91
:1007F000E07306E041FA02F3D040C2F120029140DA
:100800000843194670470029A8BF7047401C49009B
:1008100008BF20F00100704710B4B0FA80FC00FA65
:100820000CF050EA010404BF10BC704749B1CCF190
:10083000200421FA04F411FA0CF118BF012121431C
:100840000843A3EB0C01CB1D4FEA00614FEA1020D7
:1008500042BF002010BC704700EBC3501044002979
:10086000A4BF10BC7047401C490008BF20F0010025
:1008700010BC704710B5141E73F1000408DA401C58
:1008800041F1000192185B411A4301D120F00100AF
:1008900010BD2DE9F04D92469B4611B1B1FA81F29F
:1008A00002E0B0FA80F220329046FFF77BFF044668
:1008B0000F4640EA0A0041EA0B0153465A460843F4
:1008C00013D0114653EA010019D0C8F14002504636
:1008D000FFF777FF05460E46504659464246FFF75A
:1008E00061FF084305D0012004E020463946BDE8F9
:1008F000F08D0020054346EAE0762C4337430A9802
:100900006305E40AA0EB08000022FD0A44EA47540C
:100910000A3002D500200146E9E7010510196941B6
:10092000DDE9084500196941BDE8F04DA2E7C1F3D2
:100930000A52C1F3130140F2FF3341F480119A428D
:1009400002DA00200146704740F233439A42A2F295
:10095000334202DC5242FFF734BFFFF723BF0000EF
:10096000064C074D06E0E06840F0010394E80700FC
:1009700098471034AC42F6D3FFF712FCACAB020838
:10098000CCAB020830B58C1810F8012B12F00F0315
:1009900001D110F8013B120906D110F8012B03E038
:1009A00010F8015B01F8015B5B1EF9D101E001F871
:1009B000013B521EFBD1A142E6D3002030BD000016
:1009C00010B58CB00121080203F04AF90121084654
:1009D00003F02AF903208DF82C0002200A9000244D
:1009E0008DF82F400AA9214801F0CAFC04F034FD1B
:1009F00000F0FAF802F000FA06944FF480400890F4
:100A00004FF4706009904FF48030079006A800F012
:100A10003FF88DF8054004944FF0106003904FF0BC
:100A20008050029001208DF8140000948DF804404D
:100A30000F4C6946204600F057F80121204600F08F
:100A400047F801231A461946204600F073F80121A1
:100A5000204600F031F80121204600F00DF8012178
:100A6000044803F014FD0CB010BD0000000002406B
:100A70000020014000080040002904D0816841F0B6
:100A8000010181607047816821F001018160704738
:100A900010B5074C226807490A40D0E900131943F2
:100AA000D0E90230034319431143216010BD000017
:100AB00004230140E030FCFF002904D0816841F4A8
:100AC000807181607047816821F480718160704716
:100AD000002904D0816841F4007181607047816809
:100AE00021F400718160704730B542680F4B1A40A5
:100AF0000C790B6842EA04221343436083680C4A72
:100B00001340D1E9034222434D798C6844EA4504FD
:100B100022431A438260C26A22F47002097D491E90
:100B2000C9B242EA0151C16230BD0000FFFEFFFCC4
:100B3000FDF7FFC070B5072609290AD9C568A1F1DC
:100B40000A0404EB4404A640B543A3401D43C5601A
:100B500007E0056901EB4104A640B543A3401D43EE
:100B600005611F23072A09D2446B521E02EB820241
:100B700093409C4391400C43446370BD0D2A09D2BD
:100B8000046BD21F02EB820293409C4391400C43C2
:100B9000046370BDC46A0D3A02EB820293409C4329
:100BA00091400C43C46270BD7CB50121022003F06A
:100BB0003BF84FF48054009401208DF8040000208D
:100BC0008DF8060002228DF805208DF80700054DEE
:100BD0006946284601F0D4FB2146284601F028FC4E
:100BE0007CBD00000004024010B590B001218805D2
:100BF00003F01AF801A800F07BFD0020019004909A
:100C00001B4903914FF4806107911E2105914FF418
:100C100080710A91174902910690C91408918900C0
:100C2000099109010B910C90134C01A9204600F089
:100C300035FD0F4900223C31204600F0D7FC012150
:100C4000204600F0C7FC0D49204600F08BFC012235
:100C50001021204600F008FD01220821204600F066
:100C600003FD0121204600F0A9FC10B010BD0000DA
:100C700004A700204C200140106402403D00801079
:100C800000B591B0114901AA002051F8203042F876
:100C90002030401C1028F8D30D490198884202D119
:100CA0000298012802D0002011B000BD0949039824
:100CB000884201D00020F7E70648401C039000203E
:100CC000079001A800F014F8C0B2EDE70000010899
:100CD0003157544202005AA510B50221202001F0DC
:100CE000A3F9092801D0002010BD012010BD00008B
:100CF00070B5064601F048FAF32001F077F9FFF7E6
:100D0000EBFF68B100240C4D56F8241005EB84006D
:100D100001F01CFA092807D001F0F4F9002070BD99
:100D200001F0F0F9002070BD641C102CECD301F030
:100D3000E9F9012070BD00000000010800F00F017A
:100D4000000900EB800001EB4000C0B2704710B515
:100D5000B621E02000F080FB08B1012010BD0A2080
:100D600007F076FA00F0DEFA0121F22000F074FBC1
:100D70009021F52000F070FB6C21F42000F06CFB5A
:100D8000002010BD2DE9F74F82462DED108B84B069
:100D900016466F21F42000F05FFB082202A9F7201D
:100DA00000F054FB9FEDFBDB9FEDFCEB9FEDFDCBDB
:100DB000FE4C28B1012004B0BDEC108BBDE8FE8FC5
:100DC0009DF808009DF80910000340EA01109DF805
:100DD0000A1040EA111B9DF80B009DF80C1000034F
:100DE00040EA01109DF80D1040EA11179DF80F0020
:100DF0009DF80E1040EA01200190B4F90200FFF7BF
:100E000032FC41EC180B2088FFF73EFC8946054672
:100E10009FEDE71B53EC112BFFF744FB41EC190B43
:100E20003846FFF720FC8846074653EC1D2BFFF79A
:100E300039FB53EC192BFFF72FFB53EC182BFFF763
:100E400031FB41EC180BB4F90400FFF70CFC41EC4A
:100E5000190B49EC105B9FEDD8BB51EC100B53EC18
:100E60001B2BFFF71FFB41EC1A0B48EC107B9FED8F
:100E7000D4FB51EC100B53EC1F2BFFF713FB53EC7F
:100E80001A2BFFF709FB49EC105B41EC1A0B53ECF2
:100E90001B2B51EC100BFFF705FB48EC107B41ECD2
:100EA0001B0B53EC1F2B51EC100BFFF7FBFA53EC11
:100EB0001B2BFFF7F1FA53EC1A2BFFF7F3FA53EC65
:100EC000192BFFF7EFFA41EC100B51EC180B53EC18
:100ED000102BFFF740FA0F460546FFF7E2FB606272
:100EE00047EC105B9FEDB81B51EC100B53EC112B32
:100EF000FFF74AFB41EC100B51EC100BFFF720FC05
:100F0000CAF80000606AFFF7AEFB9FEDB11B53EC1F
:100F1000112BFFF7C7FA9FEDB01B53EC112BFFF716
:100F2000BBFA41EC180BB4F91000FFF79CFB41EC45
:100F3000190B53EC182B51EC180BFFF7B3FA53ECC9
:100F4000192BFFF7AFFA53EC1E2BFFF7ABFA41EC6E
:100F5000190BB4F90E00FFF786FB53EC182BFFF7C3
:100F6000A1FA9FED9F1B53EC112BFFF79BFA53EC5B
:100F7000192BFFF7F0F941EC1A0BB4F90C00FFF74D
:100F800072FB9FED991B53EC112BFFF78BFA41EC91
:100F9000190B9FED970B51EC1A0B53EC102BFFF72D
:100FA00081FA53EC192BFFF7D6F941EC1F0BB4F97A
:100FB0000800FFF758FB53EC182BFFF773FA41ECCE
:100FC000190BB4F90A00FFF74EFB53EC182BFFF78F
:100FD00069FA53EC182BFFF765FA53EC1C2BFFF75B
:100FE00061FA53EC192BFFF7B6F953EC1C2BFFF702
:100FF00059FA41EC190BE088FFF746FB41EC180B5E
:1010000053EC1E2B51EC190BFFF74CFA9FED7AAB0A
:1010100053EC1A2BFFF79FF953EC182BFFF742FA0A
:1010200041EC190B9FED76BB51EC190B53EC1B2BCC
:10103000FFF756FB04D19FED740A86ED000A65E0C8
:101040005846FFF710FB9FED711B53EC112BFFF778
:1010500026FA41EC180B9FED6F0B51EC1F0B53EC74
:10106000102BFFF71FFA53EC182BFFF718FA9FED20
:101070006B1B53EC112BFFF715FA53EC192BFFF7F1
:1010800083FA41EC190BB4F91600FFF7ECFA53ECB4
:10109000192BFFF707FA53EC192BFFF703FA9FED13
:1010A000611B53EC112BFFF7FDF941EC180BB4F960
:1010B0001400FFF7D8FA53EC192BFFF7F3F953ECB0
:1010C0001E2BFFF7EFF941EC1F0BB4F91200FFF7ED
:1010D000CAFA41EC1E0B53EC1F2B51EC180BFFF717
:1010E0003AF953EC1E2BFFF736F99FED501B53ECEA
:1010F000112BFFF7D7F953EC192BFFF72CF941EC23
:10110000100B51EC100BFFF71BFB3060606AFFF710
:10111000AAFA9FED481B53EC112BFFF7BDF941ECE8
:10112000190B207FFFF7B0FA9FED44EB53EC1E2B19
:10113000FFF7B8F953EC192BFFF7B4F953EC1A2B5E
:10114000FFF709F941EC180B94F92200FFF78BFA2D
:1011500053EC1E2BFFF7A6F953EC192BFFF7A2F95E
:1011600053EC182BFFF79EF953EC1A2BFFF7F3F80B
:1011700041EC180BB4F91A00FFF775FA9FED311B1B
:1011800053EC112BFFF78EF953EC182BFFF78AF96C
:101190005CE00000000000000000103F00000000C4
:1011A0000000003F000000000000C03E7CA70020BF
:1011B000000000000000503F000000000000203F41
:1011C000000000000000E03E000000000000B4400D
:1011D000000000000000E03F000000000040EF4081
:1011E0000000000000000040000000000000F0408F
:1011F000000000000000D03F000000000000F03FB1
:1012000000000000000000000000000000000000DE
:1012100000003041000000000000303F00000000EE
:10122000006AB840000000000000003E000000001E
:101230000000B03F0000000000C0F24000000000CD
:101240000000503E000000000000F03E41EC180B92
:10125000B4F92000FFF707FA53EC1D2BFFF722F932
:1012600053EC192BFFF71EF941EC190BB4F91E00D2
:10127000FFF7F9F99FED271B53EC112BFFF712F93C
:1012800053EC192BFFF767F841EC190B0198FFF7A6
:10129000EAF953EC192BFFF7FFF853EC182BFFF783
:1012A00001F941EC190B207EFFF7EEF953EC192BF5
:1012B000FFF7F8F853EC1C2BFFF7F4F853EC1A2B5C
:1012C000FFF7EDF853EC192BFFF7ECF841EC180B96
:1012D0009FED129B51EC180B53EC192BFFF718FAEA
:1012E00004D2B0EE498AF0EE698A0AE053EC1B2B77
:1012F00051EC180BFFF7F4F903D2B0EE4B8AF0EE85
:101300006B8A51EC180BFFF71BFA15990860002047
:1013100051E5000000000000000050400000000007
:101320000000594010B588B0182201A9882000F0AB
:101330008DF89DF804009DF805103E4C40EA012010
:1013400020809DF806009DF8071040EA012060808B
:101350009DF808009DF8091040EA0120A0809DF842
:101360000A009DF80B1040EA0120E0809DF80C0077
:101370009DF80D1040EA012020819DF80E009DF897
:101380000F1040EA012060819DF810009DF81110B7
:1013900040EA0120A0819DF812009DF8131040EA58
:1013A0000120E0819DF814009DF8151040EA01200D
:1013B00020829DF816009DF8171040EA01206082F7
:1013C0009DF818009DF8191040EA0120A0829DF8B0
:1013D0001A009DF81B1040EA0120E08201226946B4
:1013E000A12000F033F89DF800002076072201A923
:1013F000E12000F02BF89DF804009DF8051040EA6C
:10140000012060839DF8060020779DF808009DF874
:101410000720014662F31F11E1839DF809100901BD
:1014200041EA101020849DF80A0084F8220008B0D8
:1014300010BD00007CA7002010B56C21F42000F046
:101440000BF808B1012010BD002010BD13460A465C
:101450000146762004F02EBC08B58DF800008DF80A
:10146000011002226946EC2004F02AFD08BDFEE7C7
:101470000A21B0FBF1F2B0FBF1F301FB130000EB2A
:101480000210C0B2704700002DE9FE4F0025029502
:101490000F26DFF8ACB02B4F5946384600F0BAF8AB
:1014A000294CDFF8A880DFF8A8A00DF10809A0B149
:1014B0005946384600F06CF8384600F0A4F8A8B356
:1014C00024482060A8F80060CDE9005901231A469D
:1014D0000021DAF86C0007F063FB1F4E38463146F6
:1014E00000F098F8A8B13146384600F051F8384677
:1014F00000F089F8F8B1194820600F20A8F8000022
:10150000CDE9005901231A460021DAF86C0007F0F2
:1015100047FB0298002807D011494FF0805008601F
:10152000BFF34F8FBFF36F8FBDE8FE8FFFE70B4810
:101530001E382060C6E707481E302060DDE7000047
:1015400010400010106402403C01002040010020C7
:101550001000002040A700202080001022A70020BB
:1015600004ED00E0074A904201D2074801E0054837
:101570001038064A8B0001EA020101D5C1607047AC
:101580008160704710640240006002407D0F7D0F53
:10159000074A904201D2074801E005481038064A40
:1015A0008B0001EA020101D5C1607047816070477C
:1015B00010640240006002407D0F7D0F002904D0BE
:1015C000016841F0010101607047016821F00101EB
:1015D00001607047002904D0016841F48021016056
:1015E0007047016821F4802101607047002A04D00F
:1015F000026842F40022026003E0026822F4002242
:10160000026001617047014600200968090300D5A6
:101610000120704730B500240F4A904201D20F4A92
:1016200001E00D4A103A0E4B194205D01E2303EA81
:10163000D12503682B4002E0406900F08003880058
:1016400001D5506800E01068064A1040084201D0F9
:1016500003B10124204630BD106402400060024006
:101660003C0F3C0F7D0F7D0F0B0609D522B143695E
:1016700043F08003436103E0436923F08003436147
:10168000802905D001F01E011AB102680A430260E8
:10169000704702688A4302607047000030B50368F3
:1016A000124A1340CC680A682243D1E905452C430D
:1016B0002243CC6922430C6A22434C6A22438C6A3F
:1016C00022434C6B22438C6B22431A4302604269D3
:1016D00022F00703D1E90B2422431A4342610A692D
:1016E00042604A6882608968C16030BD3F801CF0FA
:1016F0000021016041608160C160016141618161DF
:10170000C161016241628162C162016341638163BF
:10171000704738B5044669460F2001F0E6F908B174
:10172000012038BD012C03D0022C07D0022038BD87
:101730009DF8000020F00100009004E09DF80000FA
:1017400020F0020000909DF800100F2001F0D3F966
:1017500008B1032038BD002038BD38B504460D4619
:1017600069460E2001F0C1F908B1012038BD012CF5
:1017700003D0022C0ED0022038BD2DB19DF8000000
:1017800040F00100009011E09DF8000020F0010001
:1017900000900BE02DB19DF8000040F00200009099
:1017A00004E09DF8000020F0020000909DF8000089
:1017B00040F0040100910E2001F09DF908B10320D2
:1017C00038BD002038BD70B50E4615461C46FFF7E3
:1017D0004FFE00F07F01072001F08DF908B10120D4
:1017E00070BD3046FFF744FE00F07F01082001F095
:1017F00082F908B1022070BD2846FFF739FE00F0DB
:101800007F01092001F077F908B1032070BD20465F
:10181000FFF72EFE40F080010A2001F06CF908B1BC
:10182000042070BD002070BD10B50C46FFF720FEEF
:1018300000F07F01082001F05EF908B1012010BD21
:101840002046FFF715FE00F07F01092001F053F953
:1018500008B1022010BD0120FFF70AFE40F0800110
:101860000A2001F048F908B1032010BD002010BD86
:1018700070B504460A252078B0FBF5F105FB11018F
:10188000B0FBF5F001EB0010C1B22170062001F0B1
:1018900032F920B1BDE870402DA002F0F9BF6078A8
:1018A000B0FBF5F105FB1101B0FBF5F001EB001009
:1018B000C1B26170052001F01EF920B1BDE8704091
:1018C00028A002F0E5BFA078B0FBF5F105FB1101FF
:1018D000B0FBF5F001EB0010C1B2A170042001F0E3
:1018E0000AF920B1BDE8704023A002F0D1BFE07832
:1018F000B0FBF5F105FB1101B0FBF5F001EB0010B9
:10190000C1B2E170022001F0F6F800281FD1207961
:10191000B0FBF5F105FB1101B0FBF5F001EB001098
:10192000C1B22171012001F0E6F800280FD16079E1
:10193000B0FBF5F105FB1101B0FBF5F001EB001078
:10194000C1B26171BDE87040002001F0D4B870BD33
:101950007365742079656172206572726F720D0A09
:1019600000000000736574206D6F6E7468206572EE
:10197000726F720D0A000000736574206461792033
:101980006572726F720D0A0038B50446002000902F
:101990006946062001F0A9F808B1012038BD9DF87C
:1019A0000000FFF7CBF900F5FA60E08069460520FA
:1019B00001F09BF808B1022038BD9DF80000FFF748
:1019C000BDF920716946042001F08FF808B10320A9
:1019D00038BD9DF80000FFF7B1F9E07069460320BB
:1019E00001F083F808B1042038BD9DF80000FFF72E
:1019F000A5F92072002038BD38B5044600200090BB
:101A00006946022001F071F808B1012038BD9DF847
:101A10000000FFF793F9A0706946012001F065F816
:101A200008B1022038BD9DF80000FFF787F960700B
:101A30006946002001F059F808B1032038BD9DF82F
:101A40000000FFF77BF92070002038BD2DE9F04140
:101A50000D4616461C460C2D00D90125611E07298E
:101A600000D3012406B901260A27B0FBF7F107FBD2
:101A70001101B0FBF7F001EB0010C1B2062001F03C
:101A80003AF828B11EA002F003FF0120BDE8F08162
:101A9000B5FBF7F007FB1050B5FBF7F100EB0110B9
:101AA000C1B2052001F027F820B11AA002F0F0FE23
:101AB0000220EBE7B6FBF7F007FB1060B6FBF7F18F
:101AC00000EB0110C1B2042001F015F820B116A0FE
:101AD00002F0DEFE0320D9E7B4FBF7F007FB10406D
:101AE000B4FBF7F100EB0110C1B2032001F003F8E1
:101AF00020B111A002F0CCFE0420C7E70020C5E70A
:101B00007365742079656172206572726F720D0A57
:101B100000000000736574206D6F6E74682065723C
:101B2000726F720D0A000000736574206461792081
:101B30006572726F720D0A00736574206461794F6B
:101B4000665765656B206572726F720D0A00000042
:101B500070B50C461546172800D900203B2C00D93B
:101B600001243B2D00D901250A26B0FBF6F106FB26
:101B70001101B0FBF6F001EB0010C1B2022000F041
:101B8000BAFF08B1012070BDB4FBF6F006FB1040AF
:101B9000B4FBF6F100EB0110C1B2012000F0ABFF85
:101BA00008B1022070BDB5FBF6F006FB1050B5FB86
:101BB000F6F100EB0110C1B2002000F09CFF08B16B
:101BC000032070BD002070BD704710B54FF47A72CD
:101BD000A0FB02010023FEF75BFBBDE8104006F00E
:101BE00037BB10B5292000F019F84FF6FF7101EA54
:101BF0000024282000F012F8204310BD002000F03F
:101C00000DB80000002801D0012000E000200249AA
:101C1000087000F0E3BD00001001002008B50022AC
:101C20000092014601236A46242004F043F808B1DB
:101C3000002008BD9DF8000008BD08B58DF8000023
:101C40008DF8011002226946482004F039F908BDD8
:101C500010B5052404E06420FFF7B7FF641EE4B26A
:101C6000FFF7CCFF362801D0002CF4D12CB1002195
:101C70000120FFF7E2FF002010BD012010BD10B5CC
:101C8000052404E06420FFF7A0FF641EE4B2FFF720
:101C9000B5FF362801D0002CF4D12CB10821012049
:101CA000FFF7CBFF002010BD012010BD10B50524AB
:101CB00004E06420FFF789FF641EE4B2FFF79EFF93
:101CC000362801D0002CF4D1ACB100210120FFF75F
:101CD000B4FF00210820FFF7B0FF7F210A20FFF7A3
:101CE000ACFF47210D20FFF7A8FF00210E20FFF7D2
:101CF000A4FF002010BD012010BD00001CB5002471
:101D00000194012000F01CF9002823D007F064F8AA
:101D10000094114C024601AB0721606807F0C8FA35
:101D2000019838B10D494FF080500860BFF34F8FD4
:101D3000BFF36F8F022001F067FF10B1022001F0A6
:101D40004BFF607818B901206070092020700120D5
:101D500000F07AF81CBD00004401002004ED00E012
:101D600070B54FF48065284600F0EAF8012438B1D8
:101D70000B48417809B944700470284600F064F8B3
:101D80004FF40055284600F0DBF8002806D005483F
:101D900004702846BDE8704000F056B870BD0000E1
:101DA000440100208C0000203EB500240294022053
:101DB00000F0C6F8002817D0022000F045F802A86D
:101DC000CDE900400948012302220021C06E06F03F
:101DD000E7FE0298002807D005494FF080500860C0
:101DE000BFF34F8FBFF36F8F3EBD00001000002088
:101DF00004ED00E01CB500240194102000F0A0F8D0
:101E0000002816D006F0E8FF02460A48009401AB0D
:101E10000721806907F04CFA019838B106494FF064
:101E200080500860BFF34F8FBFF36F8F102000F01A
:101E30000BF81CBD1000002004ED00E00149086013
:101E400070470000143C01400149086070470000E1
:101E5000143C0140FEB50121880301F001FF00217F
:101E6000084601F05BFF0A21012001F057FF0D2118
:101E7000012001F053FF0121084601F04FFF04212A
:101E8000002001F04BFF4FF48060019000258DF899
:101E900008500C268DF8096001248DF80A4001A82D
:101EA00000F058F801948DF8085008208DF80900CA
:101EB0008DF80A4001A800F04DF8022001908DF83D
:101EC00008508DF809608DF80A4001A800F042F82A
:101ED000102001908DF808508DF809608DF80A40A7
:101EE00001A800F037F8600301908DF808508DF8D4
:101EF00009608DF80A4001A800F02CF8B00100F04C
:101F000071FF28208DF800008DF801608DF80250D7
:101F10008DF80340684600F031FF06208DF8000080
:101F2000684600F02BFF07208DF80000684600F09F
:101F300025FF0A208DF80000684600F01FFFFEBD57
:101F400001460020024A12680A4200D00120704770
:101F5000143C014030B51B4A83790168002B2AD01C
:101F600013688B431360111D0B680468A3430B6057
:101F7000017911440B68046823430B60114C083449
:101F80002168036899432160231D19680568A943E6
:101F900019604179102905D011440A68006802438C
:101FA0000A6030BD21680268114321601968006829
:101FB0000143196030BD0079104402688A43026011
:101FC00030BD0000003C014010B50120FFF736FF96
:101FD0000121080701F036FE012001F01FFE01205B
:101FE00001F0FAFDBDE8104001F0FEBD01490860B6
:101FF000704700000C3C02400649002804D00868E5
:1020000040F4806008607047086820F480600860D1
:1020100070470000003C02400248016841F48051D2
:1020200001607047003C024070B50646002500295B
:1020300005D0012927D0022928D04FF4407500F09F
:10204000B5F809281ED1134C206820F44070206098
:10205000206828432060206820F0F8002060206875
:1020600046F0020108432060206840F48030206080
:1020700000F09CF8216821F002012160216821F024
:10208000F801216070BD4FF48075D8E74FF40075FA
:10209000D5E70000103C024009200D490A68D20330
:1020A00001D5012070470A68D20601D50620704785
:1020B0000A68D20501D5022070470A6812F0E00FC5
:1020C00001D00720704709688907FBD508207047B1
:1020D0000C3C02400649002804D0086840F4007017
:1020E00008607047086820F40070086070470000BE
:1020F000003C02400248016841F400610160704701
:10210000003C02400248016841F000410160704714
:10211000103C024070B506460D4600F047F809280D
:1021200011D1094C206820F44070206020682060A4
:10213000206840F001002060357000F037F8216819
:1021400021F00101216070BD103C024070B50546D0
:102150000E4600F02BF8092813D10A4C206820F411
:1021600040702060206840F400702060206840F0DB
:10217000010020602E6000F019F8216821F00101B3
:10218000216070BD103C024005480068002805DA57
:10219000034804490C38016003490160704700009E
:1021A000103C024023016745AB89EFCD08B50920FB
:1021B0000090FFF771FF009002E0FFF76DFF0090C5
:1021C0009DF800000128F8D09DF8000008BD00002F
:1021D0000248016841F470010160704788ED00E039
:1021E0007CB503220021012006F0D7F9494CE062BA
:1021F00000220421012006F0D0F9E064012006F05D
:10220000BCF9A062012006F0B8F960630022022147
:102210000A2006F0C2F9206400220221142006F0F0
:10222000BCF9E06301210022C80206F0B6F920657E
:10223000002202210A2006F0B0F960640022022187
:102240000A2006F0AAF9A064002204210A2006F060
:10225000A4F9606503220021012006F09EF9A06325
:1022600003220021012006F098F92063142006F0D3
:1022700090F9A0650146606C06F06CF9A16D206CC8
:1022800006F068F904F15C000821CDE90010002394
:10229000802221A1234806F045FC04F160000721BB
:1022A000CDE900104FF49676002332461EA1214856
:1022B00006F038FC04F164000525CDE90050002348
:1022C00032461DA11F4806F02DFC04F168000624CB
:1022D000CDE9004000234FF4C8721BA11E4806F050
:1022E00021FC0C4800236C30CDE9005032461BA184
:1022F0001E4806F017FC074800237030CDE9004067
:1023000032461BA11D4806F00DFCBDE87C4006F0DE
:102310009DB80000100000207461736B5F696E69E6
:1023200074000000657902087461736B5F6B6579F6
:1023300000000000F57902087461736B5F74696DC9
:1023400065000000517C020853657454696D655F37
:10235000416C61726D000000BD3D020872696E67DC
:102360005F6261747465727900000000817B02080D
:10237000537465704465746563740000CD7B020816
:102380002DE9F041002201274FF0030C07FA02F576
:102390000B682B40AB422CD1066853000CFA03F4B7
:1023A000A64306600E79D0F800809E4046EA0806F3
:1023B00006600E79012E01D0022E12D18668A64346
:1023C00086604E79D0F808809E4046EA080686600E
:1023D0004668AE43466045688E799640B6B235434E
:1023E0004560C568A543C560CC799C40C3681C4363
:1023F000C460521C102AC9D3BDE8F08110B54B0748
:10240000DB0E9A40C90800EB8100016A0F249C4052
:10241000A1430162016A1143016210BD024600201E
:1024200012690A4200D00120704709048161704797
:1024300081617047002A01D0816170470904816180
:1024400070470000094A507800280CD0002011780D
:10245000012902D0092903D101E0042000E009206C
:102460000021517070470020704700004401002097
:1024700010B5094804F086F80748203004F082F8C7
:102480000548403004F07EF80449002008604860A8
:10249000091F087010BD0000A4A600203401002010
:1024A00070B504460D46304804F094F810B12E483B
:1024B00003F082F92C48203004F08CF818B12A4837
:1024C000203003F079F92848403004F083F818B13F
:1024D0002548403003F070F92146234803F092FB71
:1024E00021482946203003F08DFB1F491F4CD1E9BC
:1024F0000320904236D38A68904233D34A68904290
:1025000030D94A6990422DD38A6990422AD3C96949
:10251000884227D91448221D2030016910680B1AFF
:10252000B3F5A07F1ED950601160814208D0081A0F
:102530004EF66021B1FBF0F10B48403003F062FB36
:10254000094A403292F9020003280BD3052801D929
:10255000052100E09178401A02EB8000001D00F098
:10256000FAF92070207870BDA4A600203001002068
:102570000A4B1A89002A0DD0D978884200D2D87027
:102580001979884200D91871596908445861521C58
:102590001A8170471961D8701871F5E71001002091
:1025A000FCB51F49A1F118039A798854521C0620E2
:1025B000B2FBF0F400FB142098715879062801D280
:1025C000401C58715A7900206D4603E00B5C2B5477
:1025D000401CC0B29042F9D30021501EC7B20DE09A
:1025E0004E1CF0B207E06C5C2B5C9C4201D96B5432
:1025F0002C54401CC0B29042F5D3F1B28F42EFD8B8
:10260000D00703D005EB52000078FCBD05EB52006B
:1026100010F8011C00780844401CC0F34700FCBDC2
:102620002801002009494978002907D0884206D9A5
:10263000421AD2B2052A01D9491DC8B270470A1AF6
:10264000D2B2052AFAD9491FC8B27047100100203A
:102650002DE9F8430026009606F0B8FB0446A04694
:102660004F4D287850B1E868A0B1201A192811D22E
:10267000687848B100F0C2F8BDE8F883002211463E
:10268000104600F005F9F7E700221146104600F069
:10269000FFF8F1E7EC60DFF80C916421D9F8000055
:1026A00006F082F901280AD0687810B100F0A6F887
:1026B000E2E700221146104600F0EAF8DCE7FFF7F7
:1026C00090FA074600231A461946D9F8000005F08B
:1026D000CFFFD7B1A7F57F40FF3816D04146384627
:1026E000FFF7DEFEA0F13201462939D8AE70C0B244
:1026F0002146FFF73DFF6946204600F08DF820B3E4
:102700009DF8000000F0B4F8B6E7A878FF2801D2E1
:10271000401CA870A87878280CD36E7000F044F89C
:1027200000F04CF8FFF7A4FE00221146104600F01E
:10273000AFF8A1E7687810B100F060F89CE70022DC
:102740001146104600F0A4F896E7687810B100F042
:1027500055F891E700221146104600F099F88BE7F2
:102760006878A0B1A978FF2901D2491CA970A9787D
:10277000782912D36E7000F017F800F01FF8FFF7F9
:1027800077FE00221146104600F082F874E700221E
:102790001146104600F07CF86EE700F02FF86BE76A
:1027A0001001002044000020034800210161416124
:1027B0000181C1700171704710010020064800219D
:1027C000417181710020044A18321154401CC0B27A
:1027D0000628FAD3704700001001002010B5064803
:1027E000002141708170C160FFF7DEFFFFF7E6FF57
:1027F000BDE81040FFF73CBE1001002008B50821DD
:1028000002460091022314213C2000F03BFCBDE86D
:10281000084000F01FBD000010B5144B1A89002AB3
:1028200007D01C69001B40F6B834A04203D2002038
:1028300010BD002010BD052A03D2FFF7B5FF002010
:1028400010BD5869DC78001B1B79C31A921E90B228
:1028500040B103EB5002B2FBF0F00870FFF7A4FFA9
:10286000012010BDFFF7A0FF002010BD10010020C7
:1028700010B5FFF795FEFFF7D5FE0449487000221A
:102880008A70BDE81040FFF7B9BF000010010020BA
:10289000F8B506460D46002A27D01421082327A2A2
:1028A000084600F013FC082326A21421502000F053
:1028B0000DFC08240223324614213C20009400F031
:1028C000E1FB082320A22821142000F0FFFB0823AD
:1028D00025222821552000F04DFB02232A462821DD
:1028E0003C20009400F0CEFB23E01421082313A227
:1028F000084600F0EBFB082312A21421502000F040
:10290000E5FB082312A214213C2000F0DFFB082382
:102910000DA22821142000F0D9FB0823252228210C
:10292000552000F027FB082309A228213C2000F0B5
:10293000CDFBBDE8F84000F08DBC0000E5BF83E7AB
:102940008E873A0042504D0053704F323A000000DB
:102950005F5F0000FEE710B50023002901D00022D0
:1029600006E0002010BD50F822402344521CD2B291
:102970008A42F8D3B3FBF1F0C0B210BD002904D0F5
:10298000018841F4806101807047018821F48061F1
:1029900001807047C94381827047002904D00188B3
:1029A00041F0010101807047018821F0010101809F
:1029B0007047002904D0018841F48071018070477C
:1029C000018821F4807101807047002904D00188BA
:1029D00041F4007101807047018821F40071018089
:1029E00070470CB50246002000920A0F019221F0B8
:1029F0007F41019A002A03D0009A1432009203E02A
:102A0000090C009A18320092009A12680A4200D00B
:102A100001200CBD7FB504460D46A08820F03F067E
:102A2000684601F02BF902982749B0FBF1F189B211
:102A30000E43A680228822F001022280234B2A68BE
:102A40009A4209D85200B0FBF2F080B2042800D2BA
:102A50000420491C218423E0EB88A3F53F46FF3E78
:102A60000BD002EBC20303EB0212B0FBF2F080B218
:102A700040F48040020506D007E002EB4202B0FBC2
:102A8000F2F080B2F6E740F0010040F400404FF46D
:102A9000967251434FF47A72B1FBF2F1491C2184D2
:102AA000A083208840F00100208020884FF6F53177
:102AB0000840A9886A89114301432180A88929898E
:102AC000084320817FBD000040420F00A086010026
:102AD00008B500900098084400900098008808BD50
:102AE000008AC0B27047018270470A46012301463E
:102AF000682003F0DFB808B58DF800008DF80110EC
:102B000002226946D02003F0DBF908BDFEB50121A1
:102B1000022001F089F842F20240019000248DF871
:102B200009408DF8084001258DF80B5001A918487F
:102B3000FFF726FC0121084601F076F810200190ED
:102B40008DF808408DF80B408DF80940114E01A911
:102B50003046FFF715FC01958DF8084002218DF8ED
:102B60000B108DF8094001A93046FFF709FCFFF76B
:102B700071F903F017FF084800900023012240F686
:102B8000B83106A006F05CFB07494860FEBD0000B6
:102B90000004024000000240FD780208534C454505
:102BA0005054696D657200004401002002464021C6
:102BB0000148FFF73FBC0000000002401CB50121A6
:102BC000084601F031F84020009001208DF8040003
:102BD00000208DF8060002218DF805108DF8070001
:102BE00069460248FFF7CCFB1CBD00000000024014
:102BF00010B52DED048B9FED248A9FED249ADFED17
:102C0000249A03F01FFD234CD4ED0B0A94ED0A0A1D
:102C100001F062FE60EE098AD4ED0B0A94ED090A18
:102C200001F05AFE20EE090AD4ED100A94ED0C1AB8
:102C300041EE080A20EEA91ADFED170A08EEA01AE5
:102C400084ED101A94ED111AD4ED0D1A01EEC81A84
:102C500021EE291A00EE201A84ED111A94ED120AC1
:102C6000D4ED0E0A00EE880A84ED120A03F0CAFEC3
:102C700002F0E2FD02F026FEBDEC048B0520BDE86B
:102C8000104005F0E5BA00000AD7A33BE12E6542EB
:102C900048E17A3F4C01002000D7A33CFEE700004A
:102CA0001CB50121084600F0BFFF4FF48070009072
:102CB00001208DF8040000208DF8060002218DF817
:102CC00005108DF8070069460148FFF759FB1CBD48
:102CD000000002404FF480710148FFF7A9BB0000DB
:102CE000000002404FF480710148FFF79EBB0000D6
:102CF0000000024038B510A001F0CAFDFFF7EAFF5E
:102D0000124C4FF0FF31606B05F04EFE40B10120D8
:102D1000FEF7FFFC00231A461946606B05F0A8FC7D
:102D200006F054F802460020034600900121606935
:102D300006F0D4FA38BD000020416C61726D205459
:102D40007269676765726564210D0A0010000020D2
:102D5000704708B54FF4407000F044F826208DF815
:102D6000000006208DF8010000208DF802000120EF
:102D70008DF80300684600F001F808BD30B50F2358
:102D8000C27801250178002A1FD0154A126802F482
:102D9000E062C2F5E062C2F30722C2F10404D3404C
:102DA0004278A24084781C401443220101F1E021C2
:102DB00081F80024007800F01F018D404009800058
:102DC00000F1E020C0F8005130BD01F01F00854047
:102DD0004809800000F1E020C0F8805130BD0000BB
:102DE0000CED00E00249084302490860704700000A
:102DF0000000FA050CED00E008B54FF44070FFF755
:102E0000F1FF38208DF800000B208DF80100002024
:102E10008DF8020001208DF803006846FFF7AEFF31
:102E200008BD000010B50021074C0022002004EB73
:102E3000C1131A54401CC0B28028FAD3491CC9B22D
:102E40000829F3D310BD0000A4A700202DE9F0410C
:102E5000CF1823E0044686181CE07F2C18D80029E0
:102E600016DB3F2914DCCB1701EB5373DD104FEA5F
:102E7000C51C0C4D23F007036544A1EB030815F8AE
:102E800004C0012303FA08F32CEA030C05F804C07C
:102E9000641C24B2A642E0DC491C09B28F42D9DC92
:102EA000BDE8F081A4A7002010B5AE2000F0E6F93F
:102EB000D52000F0E3F9802000F0E0F9A82000F030
:102EC000DDF93F2000F0DAF9D32000F0D7F9002037
:102ED00000F0D4F9402000F0D1F9A12000F0CEF9A3
:102EE000C82000F0CBF9DA2000F0C8F9122000F079
:102EF000C5F9812000F0C2F9CF2000F0BFF9D92038
:102F000000F0BCF9F12000F0B9F9DB2000F0B6F9CF
:102F1000302000F0B3F9A42000F0B0F9A62000F0B2
:102F2000ADF98D2000F0AAF9142000F0A7F9AF2028
:102F300000F0A4F9FFF776FFBDE8104000F08AB971
:102F40000346012000E05843491E4A1CFBD170474C
:102F500010B50C4640F0B00000F090F9102040EAA7
:102F6000141000F08BF904F00F00BDE8104000F0E1
:102F700085B9000008B5203A082B0ED0062B15D0D5
:102F80000C2B09D10F4B02EBC20203EB8202009221
:102F900018230C2200F01CF808BD0B4B03EB0212A7
:102FA00000921023082200F013F808BD074B02EB33
:102FB000420203EB420200920823062200F008F8C6
:102FC00008BD000030990208409302088CA6020850
:102FD0002DE9FF4F0F46DDF8349090461D46002442
:102FE0002B46424639460098FFF730FF6D1EE81722
:102FF00005EB50700121DFF888C001EBE00A3BE0EF
:10300000002035E000990D187F2D2FD8F91707EB18
:103010005171CA1016B221F007017B1A002F03DA92
:10302000761E36B208331BB2311907290DD804FBBE
:1030300008FB09EB000E0CEBC1121BF80EB0565D3D
:103040000BFA03FB46EA0B065655491C07290DD817
:1030500004FB08F609EB000B0CEBC11116F80B6032
:103060004A5DC3F10803DE4032434A55401CC0B2FA
:103070004045C7D3641CE4B2A245C1DCBDE8FF8F64
:10308000A4A700202DE9F04F8046DDF824A08B4650
:1030900091461F4600240A2514E0391B491E0A20C8
:1030A000FFF74EFFB9FBF0F6B6FBF5F005FB10623B
:1030B00004FB0A80303200B253465946FFF75AFFEC
:1030C000641CE4B2BC42E8D3BDE8F08F2DE9FF4FA9
:1030D00083B080461446994600250026AA46ADE0F6
:1030E000010609D4012029466D1C615CADB28DF842
:1030F00004108DF805A055E00621B1EB501F10D14A
:103100000220691C625D89B28DF80420625C002A8D
:1031100076D04A1C615C95B28DF805108DF806A03A
:1031200040E00E21B1EB101F18D10320691C625D35
:1031300089B28DF80420625C002A61D04A1C615C6F
:1031400092B28DF80510A15C00297BD0511C8DB284
:10315000A15C8DF806108DF807A023E01E21B1EBCD
:10316000D00F23D10420691C625D89B28DF8042040
:10317000625C002A66D04A1C615C92B28DF8051030
:10318000A15C00295ED0511CA25C89B28DF806209A
:10319000625C002A56D04A1C615C95B28DF807101B
:1031A0008DF808A0012804D0002716E06D1CADB2F0
:1031B00044E008EB06009DF8042000B24B46049959
:1031C000FFF7D8FE06EB090086B237E0584601A9A2
:1031D000FDF7B3F868B17F1CBFB207EB870000EBC7
:1031E00047111A480844834619A1FDF7A6F800289C
:1031F000ECD1B9F1080F04D0B9F1060F1ED113E0DC
:1032000020E007EB870000EB47111048102308442B
:10321000401D009008EB060000B21A460499FFF723
:10322000D7FE1036B6B209E008EB060000B206235E
:103230003F220499FFF79EFEB61DB6B2605D0028DE
:103240007FF44EAF07B0BDE8F08F0000C6A80208BB
:103250000000000070B50024074D00212046FFF754
:1032600077FE05EBC410802100F014F8641CE4B272
:10327000082CF2D370BD0000A4A7002008B50021DF
:1032800000918DF8010002226946782002F018FEB4
:1032900008BD00002DE9F04707468846504D4FF421
:1032A000003421462846FFF79CFB0128F9D0012174
:1032B0002846FFF77EFB4B4C28462146FFF791FB43
:1032C0000028F9D0484E28463146FFF763FB7821A5
:1032D0002846FFF708FC434C641C21462846FFF7AC
:1032E00080FB01280CD031462846FFF77AFB0128E5
:1032F000F3D101212846FFF768FB0320BDE8F087E2
:1033000014212846FFF7E4FB18212846FFF7E0FBCD
:10331000DFF8D09009F17F0931462846FFF761FBBD
:10332000012806D049462846FFF75BFB0128F3D168
:1033300011E001212846FFF748FB0220DEE70121CA
:103340002846FFF742FB0220D8E749462846FFF708
:1033500048FB012806D031462846FFF742FB0128EA
:10336000F3D1ECE740212846FFF7BDFB002411E034
:1033700001212846FFF729FB0220BFE749462846DE
:10338000FFF72FFB012807D1395D2846FFF7ABFB7C
:10339000641CE4B2444506D231462846FFF721FBBF
:1033A0000128EBD1E4E70F4CE41C0BE00121284697
:1033B000FFF70BFB0120A1E721462846FFF711FB91
:1033C000012806D031462846FFF70BFB0128F3D130
:1033D000ECE701212846FFF7F8FA00208EE700000D
:1033E00000540040010000100004001070B50446B5
:1033F0000A4D85F820400126AE80E98005F0E6FC04
:10340000E861012C04D0022C04D00420287070BD87
:103410002E7070BD0320287070BD0000EC010020EC
:1034200070B54FF0FF320024094D0DE0035D5A40A6
:103430000023D60702D085EA520200E052085B1C46
:10344000DBB2082BF5D3641C8C42EFD3D04370BDA4
:103450002083B8ED70B54FF0FF320024094D0DE028
:10346000035D5A400023D60702D085EA520200E0ED
:1034700052085B1CDBB2082BF5D3641C8C42EFD3E3
:10348000D04370BD2083B8ED05480078012803D0F3
:10349000042803D0022070470120704703207047A2
:1034A000EC01002010B5074C63895B1E9BB298426B
:1034B00005D18818A169884201D1012010BD0020E2
:1034C00010BD0000EC01002010B50C4B18685968C5
:1034D00021F00102A0F10054B4F5003F01D88007AB
:1034E00001D0002010BDC80704D00548824201D396
:1034F0009A4201D3002010BD012010BD0000040835
:103500000000020810B5FEF73FFEF320FEF76EFD47
:1035100002213020FEF788FD0446FEF7F3FD00F09F
:1035200006F8092C01D0002010BD012010BD10B5F7
:103530000020FEF7CFFD0020FEF75EFDFEF7DAFD6E
:10354000FEF76AFD0120FEF7C5FDBDE81040012031
:10355000FEF752BD2DE9F047384800F053F9804698
:103560003648801C00F053F907463448801D00F0AF
:1035700049F90646DFF8C49009F10809A9F12905BF
:10358000A819293000F043F98246BC193146484653
:10359000FFF746FF504509D0424605210220AB699E
:1035A00000F040F9BDE8F04700F01CB9324639465A
:1035B0004046FFF777FF48B1424600210220AB6941
:1035C00000F030F9BDE8F04700F00CB96A894245D7
:1035D00008D003210220AB6900F024F9BDE8F047D0
:1035E00000F000B9AB69BB4202D1E868A04207D243
:1035F0000421022000F016F9BDE8F04700F0F2B80F
:1036000032464946384600F0B5FA68B1AC6168897F
:10361000401C688100F0E6F84246AB69BDE8F0471F
:103620000021022000F0FEB8424606210220AB69CC
:1036300000F0F8F8BDE8F04700F044BA0D020020B1
:1036400070B5304800F0E3F805462E48001D00F044
:10365000DEF82C4C213CE168A94205D12269824266
:1036600002D1A069884209D0002202210320A36967
:1036700000F0D8F8BDE8704000F0B4B8FFF757FF8D
:103680002148E168FFF7E6FE2169884209D000225F
:1036900007210320A36900F0C5F8BDE8704000F0E1
:1036A000A1B8FFF711FFC0B100F01EFAF8B1002277
:1036B00011460320E36800F0B5F8C82004F0C8FD07
:1036C000BFF34F8F11480168114A01F4E0611143C3
:1036D0000160BFF34F8F00BFFDE7002202210320EE
:1036E000A36900F09FF8BDE8704000F07BB80022AD
:1036F00006210320A36900F095F8BDE8704000F0B2
:10370000E1B900000D020020000004080CED00E00B
:103710000400FA052DE9F041314800F078F806463A
:103720002F48001D00F073F807462D48083000F0C0
:103730006EF880462A480C3000F064F80546284CA4
:10374000253C94F821004F280BD194F822005428EE
:1037500007D194F82300412803D194F8240031289C
:1037600009D0002301211A46084600F05BF8BDE8A5
:10377000F04100F0A7B936B1B6F5003F03D815B156
:10378000B5F54D7F09D900231A460221012000F02A
:1037900049F8BDE8F04100F095B9FFF7B3FEA8B1D4
:1037A00001206070258100206081E6602761C4F8F7
:1037B0001480A0610220207000F044F9BDE8F041BF
:1037C000002203461146012000F02CB800231A46BF
:1037D0000621012000F026F8BDE8F04100F072B9A2
:1037E0001102002006494878002801D0022000E09C
:1037F0000020087000208880C880C86170470000E1
:10380000EC0100200178407841EA002070470178FF
:10381000427841EA02218278C078120442EA0060CC
:103820000843704770B586B01E4679248DF8044071
:103830008DF805008DF8061001AD1146E81C00F06A
:10384000BFF93146681D00F0BFF944208DF80D0026
:10385000174C20788DF80E00A1880DF10F0000F0B4
:10386000AFF9E1880DF1110000F0AAF961890DF1BD
:10387000130000F0A5F90F48006881B20DF11500A2
:1038800000F09EF9A5208DF8170000240A4E295D4E
:10389000304600F0F0FF641CE4B2142CF7D3402152
:1038A000304600F03FFF0028F9D006B070BD0000A0
:1038B000EC0100208400002000440040044801681E
:1038C000044A5160016841F0807101607047000056
:1038D000743802408400002070B5044600F0CCF833
:1038E000574D287860B1022818D005F06FFA0146CC
:1038F000A888B0F5507F35D900F0E4F8012070BDFC
:10390000012C03D0552C07D0002070BD1321204678
:10391000FFF76CFD012070BD012070BD022C0DD0A1
:10392000032C11D0012C15D0552C19D06A890321F4
:103930002046AB69FFF776FF012070BD09212046C4
:10394000FFF754FD012070BD09212046FFF74EFD11
:10395000012070BD13212046FFF748FD012070BDF6
:10396000012070BD0246401CA880501980F82040FC
:10397000E9612978012928D1A888022807D195F87A
:1039800021204F2A03D000F09DF8002070BD0328AD
:1039900007D195F82220542A03D000F093F8012093
:1039A00070BD042807D195F82320412A03D000F0E8
:1039B00089F8012070BD052807D195F82400312829
:1039C00003D000F07FF8012070BD03291DD1A88825
:1039D00009281AD11A482730FFF714FF28B129897E
:1039E000814202D3B0F54D7F0DD915482130FFF744
:1039F00009FF024602210846AB69FFF713FFFFF7F4
:103A0000F1FE012070BD0D30E880A888E988884269
:103A100001D2012070BD2878012807D0032808D0E2
:103A2000042809D000F04EF8012070BDFFF772FEA7
:103A3000FAE7FFF78FFDF7E7FFF702FEF4E7000074
:103A4000EC0100200148406870470000840000201D
:103A500004480178002902D14078002800D00120D4
:103A600070470000EC01002002480168491C016019
:103A7000704700008400002010B505F0A7F9104C35
:103A8000217800291AD0022918D0A188002915D040
:103A9000E169401AB0F57A7F10D9607840B1FFF73C
:103AA000F3FC022808D000220921A369FFF7BAFE1F
:103AB000BDE81040FFF796BE6289F5E710BD000033
:103AC000EC01002007480021017041708170818065
:103AD000C18001814181C160016141618161C16138
:103AE00070470000EC010020F0B591B001AE1D4818
:103AF0000190012002901C4803901C48C168049169
:103B000001690591406906900020079001AA411EB5
:103B100002EB8003D961401C0928F9D3FEF734FB7E
:103B2000F320FEF763FA02212020FEF77DFA054616
:103B3000092D0DD100240E4F56F8241007EB8400F8
:103B4000FEF704FB0546092D02D1641C102CF3D3AB
:103B5000FEF7D8FA092D02D0002011B0F0BD0120E7
:103B6000FBE700003157544201005AA5EC01002048
:103B7000000001082DE9F04706460F46904609254A
:103B8000FEF702FBF320FEF731FA0024DFF82C9059
:103B900008E03019395D4844FEF7BCFA0546092DA6
:103BA00002D1641C4445F4D3FEF7ACFA092D02D0CF
:103BB0000020BDE8F0870120FBE7000000000408BA
:103BC0000170090A4170704701700A0A42700A0CBC
:103BD0008270090EC170704702490A6842EA80008B
:103BE00008607047007000400548016841F002011C
:103BF00001600448016841F00401016030BF704772
:103C00000070004010ED00E001460020024A5268BA
:103C10000A4200D00120704700700040014908604E
:103C200070470000A0000E42054A002903D0116829
:103C300001431160704711688143116070470000B3
:103C400030380240054A002903D011680143116051
:103C5000704711688143116070470000403802408E
:103C6000054A002903D011680143116070471168AB
:103C700081431160704700004438024070B5244B06
:103C8000196801F00C01234C00291ED0661004298C
:103C90001DD008291DD00460196801F0F001090940
:103CA0001D4A545C0168E14041601C6804F4E05422
:103CB000A40A145D21FA04F484601B6803F46043D1
:103CC0005B0BD25CD140C16070BD0460E4E706606C
:103CD000E2E70F4A121F1168C1F38055116801F025
:103CE0003F0135B1B6FBF1F11468C4F388146143A8
:103CF00005E0B4FBF1F11468C4F388146143126861
:103D0000C2F30142521C5200B1FBF2F10160C3E761
:103D1000083802400024F4000000002010B58A0793
:103D2000120F0F23934021F003040649214401F6AA
:103D300008010C689C430C600B68904003430B60C7
:103D400010BD0000003001401848016841F080516A
:103D500001601748016841F4404101601348383858
:103D60000168016001680160016841F480510160EF
:103D7000021F10491160111F0A6842F080720A6028
:103D80000A689201FCD50C4A40F203711160016887
:103D900021F003010160016841F002010160016846
:103DA000C1F381010229FAD1704700004038024076
:103DB0000070004010640107003C024086B0DFF84C
:103DC0008CB301274FF00509DFF884830024ABF1A1
:103DD000100AAEE1002205A9184604F063FD01288F
:103DE000F7D19DF814000228F3D1DA48009000239F
:103DF00001224FF49671D8A005F022FA054628005A
:103E00000ED004F0E3FF04906421B06A04F0CCFD0E
:103E1000E0B36421706B04F0C7FD012804D029E0F1
:103E2000D0A000F035FD84E101A8FDF7ADFD01A8AB
:103E3000FDF7E2FDBDF80A10D248A1F5FA61018054
:103E40009DF8081041809DF8071081809DF80610AC
:103E5000C1809DF8051001819DF8041041819DF8F5
:103E60000C108181FEF7DEFF00231A461946706BA5
:103E700004F0FEFBB471F770777134718DF8149013
:103E800000231A461946B06A04F0F2FB04F09EFFC4
:103E90000246002301212846009405F01FFA01285C
:103EA00002D0B9A000F0F4FC012003F0FFFF28E0ED
:103EB000642205A9706C04F0F5FC01280BD104F014
:103EC00085FF04909DF81410042941D0052948D09D
:103ED000B5A000F0DDFC04F079FF0499401A4045DC
:103EE0000FD96421B06A04F05FFD50B1F4707471B1
:103EF00000231A461946B06A04F0BAFBB2A000F0DB
:103F0000C7FCF0780028D3D103F02CFB6DB100235F
:103F10001A4603212846009405F0E0F900231A46CA
:103F200005212846009405F0D9F96421B06A04F00F
:103F30003BFDD8B1F470747100231A461946B06A7B
:103F400004F096FB7279F178A7A000F0A1FC12E0D2
:103F50009DF8150004A902F0D7F9012003F0A6FF8F
:103F6000B9E79DF8150003F0A1FFB4E7ABA000F09E
:103F70008FFCF4707471FEF755FFDAE0336C9842F1
:103F8000FBD1002205A9184604F08CFC0128F4D1CD
:103F90009DF814000328F0D1AD48009000230122C1
:103FA0004FF49671ABA005F04BF9054628000BD0F5
:103FB00004F00CFF04906421B06A04F0F5FCD8B35F
:103FC0009BF8000020B12BE0A6A000F061FCB0E05F
:103FD0009BF8010020BB9BF8020008BB6421706BBA
:103FE00004F0E2FC01281BD101A8FDF7CDFC01A8DB
:103FF000FDF702FD9DF806008BF800009DF8050016
:104000008BF801008BF802409DF807008BF8030045
:10401000FEF708FF00231A461946706B04F028FBD0
:10402000F471F770377174718DF8149000231A468B
:104030001946B06A04F01CFB04F0C8FE02460023D7
:1040400001212846009405F049F9012802D08EA0EC
:1040500000F01EFC012003F0ABFE33E0642205A952
:10406000306C04F01FFC01280BD104F0AFFE04906B
:104070009DF81410042947D005294ED04AA000F01D
:1040800007FC04F0A3FE0499401A40451AD96421A4
:10409000B06A04F089FCA8B1F4703471F4718DF841
:1040A00014708DF815700023642205A9F06B04F0DC
:1040B000DFFA00231A461946B06A04F0D9FA42A082
:1040C00000F0E6FBF0780028C8D103F0EBF96DB101
:1040D00000231A4603212846009405F0FFF8002328
:1040E0001A4605212846009405F0F8F86421B06AC4
:1040F00004F05AFCB0B1F470347100231A4619462A
:10410000B06A04F0B5FA0FE09DF8150004A901F0BB
:1041100059FF012003F04CFEB3E79DF8150003F0B2
:1041200047FEAEE7F4703471FEF77CFE5FA000F04E
:10413000AFFB4FF0FF315646DAF8580004F02AFC86
:10414000736C98427FF41AAF44E600002000002010
:10415000C0D40100F17F0208426C696E6B54696D36
:10416000657200004661696C656420746F2063723B
:104170006561746520626C696E6B2074696D65722F
:104180000A000000AC0100204661696C656420747F
:104190006F20737461727420626C696E6B20746935
:1041A0006D65720A00000000556E6B6E6F776E20B1
:1041B0006D65737361676520636F6D6D616E643AE1
:1041C0002025640A000000004175746F2D7361762C
:1041D000696E672064756520746F20696E61637411
:1041E00069766974790A0000476C6F62616C2076A9
:1041F00061726961626C6573207570646174656475
:104200003A207365745F72756E3D25642C2073656A
:10421000745F74696D653D25640A00005761726EB4
:10422000696E673A204661696C656420746F20741A
:10423000616B65206D7574657820666F722076619C
:10424000726961626C65207570646174650A000052
:10425000C17F0208416C61726D426C696E6B54697A
:104260006D6572004661696C656420746F206372CD
:104270006561746520616C61726D20626C696E6B42
:104280002074696D65720A004661696C656420740A
:104290006F20737461727420616C61726D20626C46
:1042A000696E6B2074696D65720A0000416C617201
:1042B0006D20736574206D6F646520657869746521
:1042C00064207375636365737366756C6C792E0A0D
:1042D0000000000010B5502080F31188BFF34F8F0D
:1042E000BFF36F8F04F07EFD18B104494FF080508A
:1042F0000860002080F3118810BD000004ED00E08C
:1043000010B51148016841F4700101600F4801685F
:1043100041F0010101600D4A00210832116002687C
:104320000B4B1A400260031D0A4A1A60026822F40D
:104330008022026005480C300160FFF705FD02494C
:1043400005488039086010BD88ED00E00038024063
:10435000FFFFF6FE103000240000020838B50121EE
:104360008C07204600F09FF8002814D00020009011
:1043700009486946806B04F057FA0121204600F095
:1043800083F80098002806D00449A0100860BFF305
:104390004F8FBFF36F8F38BD1000002004ED00E099
:1043A0007FB501210846FFF74DFC40F2F310029063
:1043B00042F2CF00ADF804000024ADF80C40ADF897
:1043C00006404FF0804501A9284600F0BFF80122C1
:1043D0001146284600F073F81C218DF800100721C3
:1043E0008DF801108DF8024001218DF80310684608
:1043F000FEF7C4FC0121284600F049F87FBD00000B
:1044000010B50A4C0121204600F04DF800280BD0D1
:104410000748012181700189491C01812046BDE8BE
:104420001040012100F030B810BD00000004004031
:10443000980100201FB501210220FFF703FC10495D
:10444000642088716320029042F2CF00ADF804002E
:104450000024ADF80C40ADF8064001A9094800F071
:1044600075F81D208DF800000D208DF801008DF8E5
:10447000024001208DF803006846FEF77FFC1FBD57
:104480009801002000040040C943018270470029C0
:1044900004D0018841F0010101807047018821F0BA
:1044A00001010180704702460020138A0B40928967
:1044B0000A40002B02D0002A00D001207047002AB9
:1044C00003D082890A438281704782898A4382812C
:1044D0007047000070B5028C22F480520284058C73
:1044E0008288838B23F4E04323F440760C884FF6D4
:1044F000FF7303EA0424344325F400558E8903EA4C
:1045000006362E434D8803EA05353543084EB04242
:1045100002D0084EB04205D122F480460A8A03EA4E
:10452000821232438280848389680164058470BD6D
:104530000000014000040140002101804180818091
:1045400081608181C18101824182704730B50288DA
:10455000164C174DA0420DD0A8420BD0B0F1804FA1
:1045600008D0144B984205D0134B984202D0134BFD
:10457000984203D122F070034A881A43104B9842A4
:1045800006D0104B984203D022F440730A891A4394
:1045900002804A68C2620A880285A04201D0A8420D
:1045A00001D1897A01860121818230BD000001405C
:1045B000000401400004004000080040000C0040DE
:1045C00000100040001400402DE9FC410020019043
:1045D0000090204C0821204600F0A4F81E4F1F4EEA
:1045E000A504C8B12088201D00880090FFF73CFA80
:1045F000002301AA6946386D04F0CAF8012801D0E9
:10460000FFF732FA0198002804D03560BFF34F8FCE
:10461000BFF36F8FBDE8FC8140F22551204600F0CA
:1046200088F80028F6D0204600F01CF900900023FE
:1046300001AA6946386D04F0ABF8012801D0FFF7F4
:1046400013FA01980028E5D03560BFF34F8FBFF310
:104650006F8FDFE7004400401000002004ED00E011
:10466000002904D0818941F40051818170478189FA
:1046700021F400518181704770B586B00121084650
:10468000FFF7D2FA01214804FFF7DCFA0420049076
:1046900002258DF814508DF8155000248DF8164021
:1046A00001208DF817001D4E04A93046FDF768FE65
:1046B000082104918DF814508DF8174004A9304654
:1046C000FDF75EFE072202213046FDF797FE072226
:1046D00003213046FDF792FE4FF4E1300090ADF833
:1046E0000440ADF80640ADF80840ADF80C400C2091
:1046F000ADF80A000A4C6946204600F055F8012240
:1047000040F22551204600F034F801212046FFF701
:10471000A7FFFEF71EFB06B070BD000000000240C0
:10472000004400400246002012880A4200D00120C6
:10473000704770B5002440F66A12C1F3421301F0CD
:104740001F05012606FA05F2012B0CD0022B0DD015
:10475000838A1340090A8E40008830400BB100B1B3
:104760000124204670BD83891340F3E7038A134078
:10477000F0E710B540F66A13C1F3421301F01F04CD
:104780000121A140012B07D0022B07D014303AB1F0
:1047900002680A43026010BD0C30F8E71030F6E7FB
:1047A00002688A43026010BD7FB504460D46208A28
:1047B00020F44051E88808432082A08941F20C612E
:1047C0008843A9882A8911436A8902431143A18138
:1047D000A08A20F44071A8890843A0826846FFF7A8
:1047E0004DFA1E48844202D01D48844201D10398EC
:1047F00000E00298A189090408D500EBC00101EB93
:10480000001029684900B0FBF1F007E000EBC0019F
:1048100001EB001029688900B0FBF1F06422B0FBC5
:10482000F2F109010B096FF018056B4300EB8300EF
:10483000A3891D044FF0320307D503EBC000B0FB82
:10484000F2F000F00700084306E003EB0010B0FBB5
:10485000F2F000F00F00084320817FBD00100140FE
:10486000001401408088C0F308007047C1F30801BC
:1048700081807047FEE710B504462046FFF7F6FF3B
:1048800080212046FFF74EFF0028F9D010BD000020
:104890000FB4054B10B503A9044A029800F044FA7E
:1048A00010BC5DF814FB0000515C0208A40100205C
:1048B0004100080218BF04200A0E18BF40F0010092
:1048C0004FF07F4232EA010108BF40F002000128A8
:1048D00008BF05207047000010EE100A10B510EE5A
:1048E000901A4FF0684202EB40032DED028BB3F1BA
:1048F000654F3CBF02EB4102B2F1654F7CD200BF75
:10490000C0F3C753C1F3C7529A1A1B2A09DD10F02E
:10491000004F14BF9FED6E0A9FED6E0ABDEC028B37
:1049200010BD12F11A0F1BDA11F0004F09D010F070
:10493000004F0CBF9FED680A9FED680ABDEC028B2B
:1049400010BD80EE208A18EE100AFFF7B1FF042890
:1049500008BF00F009F9B0EE480ABDEC028B10BDAB
:104960004200B2EB410F37D910F0004F19BFDFED15
:104970005C1A9FED5C1ADFED5C1A9FED5C1AB0EEDD
:10498000602A0A46F1EE400A80F00041B0EE420A89
:1049900010460A1A5200B2F1807F34D2484010F01B
:1049A000004FDFED532A9FED533A1DBFBEEE002AA4
:1049B00071EEE21A31EE431AB6EE002A04BF71EE30
:1049C000A21A31EE031AF0EE402A42EE602A40EEBF
:1049D000020A82EEA02A18E011F0004F04BF9FEDFA
:1049E000461AF0EE411AD4D010F0004F1CBFDFED94
:1049F000431A9FED431A00E026E004BFDFED411AA1
:104A00009FED411AC5E780EE202A22EE020ADFED73
:104A10003F0ADFED3F2ABDEC028B40EE202ADFED9E
:104A20003D0A40EE220ADFED3C2A40EE202ADFED6F
:104A30003B0A40EE220A22EE000A00EE201A31EE76
:104A4000020A30EE210A10BD4FF07F42B2EB400F58
:104A500028BFB2EB410F05D2BDEC028BBDE8104080
:104A600000F07FB840EA01035B0008BF41F0FF415E
:104A70000BD0B2EB400F08BFB2EB410F08D120F0D2
:104A8000804000EE100A21F0804100EE901A37E7D6
:104A9000B2EB400F12BF5FEA410240F0FF4001F06D
:104AA00000413FF42DAF4A0092EA40033FF528AFA2
:104AB000002AACBF9FED1A1A9FED1A1A20EE010AC8
:104AC00060EE810A10EE100A10EE901A18E700004E
:104AD000DB0FC9BFDB0FC93FDB0F4940DB0F49C00C
:104AE0000000C9BF22AAFDB90000C93F22AAFD39B2
:104AF0000060ED3EC30ACE3700000000000049C050
:104B000022AA7DBA0000494022AA7D3A2DAD65BD9A
:104B10008FB8D53D0FB511BE61C84C3EA8AAAABE3C
:104B20000000804F0000802F10B52DED028BB1EEFC
:104B3000C08A18EE100A20F00040C0F1FF40C00FFC
:104B40000AD010EE100A20F00040C0F1FF40C00F64
:104B500004BF012000F020F8B0EE480ABDEC028B43
:104B600010BD30EE200A70479FED020A20EE000AC9
:104B7000704700000000001002E008C8121F08C1C2
:104B8000002AFAD170477047002001E001C1121FCE
:104B9000002AFBD1704700000149086070470000FF
:104BA000A80100202DE9FF5F82B00021DDE904307B
:104BB000020DDDF840B0034318D044F61050A2F2C5
:104BC000FF3242431514119801281FD0A5EB0B00AA
:104BD000401C5FEA000A4FF000064E4FDFF83891A4
:104BE000B046504615D5CAF1000413E011980124CF
:104BF0004AA3012801D16FEA0B010298119AC0E97A
:104C00000031C0E9024206B0BDE8F09FCBF10000E0
:104C1000DFE704460021404A491842EB0450CDE941
:104C2000001012E0E00707D032463B4640464946B6
:104C3000FBF738FC8046894632463B46104619460B
:104C4000FBF730FC06460F466410002CEAD1DDE984
:104C50000401DDE90023BAF1000F06DAFBF722FCBC
:104C600042464B46FBF71EFC05E0FBF78DFC424637
:104C70004B46FBF789FC04460E460022284BFBF707
:104C800047FD03D84FF0FF30014607E00022254BD7
:104C900020463146FBF75FFBFBF749FE102409E095
:104CA000002C0ADB0A220023FBF7F2FA039B3032C6
:104CB0001A55641E50EA0102F2D1641C039AC4F131
:104CC00011031444119A012A03D0012208430DD183
:104CD0000AE0084304D000204FF0110B119072E756
:104CE000A3EB0B056D1E0DE05B4504DD4FF00002EC
:104CF00005F1010504E003DA4FF00002A5F101051A
:104D0000002AECD002981199C0E90231C0E90045AF
:104D100079E70000000014400000F03F3000000080
:104D20000000F0430000E03F2DE9FF4F95B09B46A7
:104D30008946064600250FE2252877D1002427461C
:104D4000F84A0121059400E0044316F8013F203B96
:104D500001FA03F01042F7D130782A2811D06FF011
:104D60002F033078A0F13002092A16D8059A44F0B2
:104D7000020402EB820203EB42021044761C05900F
:104D8000EFE759F8042B0592002A03DA504244F465
:104D90000054059044F00204761C30782E2816D179
:104DA00016F8010F44F004042A280DD06FF02F02EA
:104DB0003078A0F13003092B09D807EB870302EB09
:104DC0004303C718761CF3E759F8047B761C307848
:104DD0006C280FD006DC4C2817D068280DD06A2824
:104DE00014D104E0742810D07A280FD10DE044F4D7
:104DF00000140AE044F4801401E044F44014727892
:104E0000824202D104F58014761C761C3078662824
:104E10000BD013DC582877D009DC002875D0452842
:104E2000F6D04628F4D047281AD19DE118E063282F
:104E300035D0642879D0652812D195E1702873D0D7
:104E400008DC6728F1D069286FD06E280DD06F2854
:104E500006D1B5E073282CD0752875D0782874D089
:104E60005A46179990476D1C75E1C4F30250022809
:104E700009D003280DD0D9F8001004280DD00D60FA
:104E800009F1040967E1D9F80010EA17C1E90052F5
:104E9000F6E7D9F800100D80F2E70D70F0E719F889
:104EA000041B8DF8001000208DF80100EA46012057
:104EB00003E059F804AB4FF0FF3061074FF00001F9
:104EC00002D40DE008F101018846B9420FDA8045AD
:104ED000F8DB1AF808100029F4D108E008F1010104
:104EE00088468142FADB1AF808100029F6D10598A5
:104EF0005B46A0EB080721463846179A00F094FA63
:104F0000284400EB080507E04DE029E10DE01AF820
:104F1000010B5A4617999047B8F10108F7D25B4642
:104F200021463846179A13E142E00A220092C4F360
:104F300002524FF0000A022A08D059F804CB032A83
:104F40004FEAEC710AD00DE029E02AE009F10701EF
:104F500021F00702F2E802C1914609E00FFA8CFC49
:104F60004FEAEC71042A03D14FFA8CFC4FEAEC7142
:104F7000002907DA0A460021DCF1000C61EB02018E
:104F80002D2202E0220504D52B228DF804200122D7
:104F900003E0E20701D02022F7E7904659E00A211A
:104FA00002E010220DE010214FF0000A00910BE00A
:104FB00010224FF0000A44F004040827009203E096
:104FC00008224FF0000A0092C4F30252022A05D0D0
:104FD00059F804CB0021032A08D009E009F10701A0
:104FE00021F00702F2E802C1914605E01FFA8CFCAD
:104FF000042A01D10CF0FF0C4FF00008220728D53D
:10500000702806D0009B83F0100353EA0A0305D0F2
:105010000EE040228DF80420012208E05CEA010243
:1050200006D030228DF804208DF80500022290462B
:10503000009B83F0080353EA0A030AD15CEA0102E9
:1050400001D1620705D530228DF804204FF0010808
:105050007F1E582804D034A003900EA802900DE0C3
:1050600036A0F9E753466046009AFBF711F98446EB
:105070000398825C0298401E029002705CEA010074
:10508000F0D1029806A9081A00F1200A600702D59B
:1050900024F4803400E00127574502DDA7EB0A0025
:1050A00000E0002000EB0A01009005984144401AFE
:1050B0000590E00306D45B462146179A059800F058
:1050C000B3F90544002706E001A85A46C05D1799C8
:1050D00090476D1C7F1C4745F6DBE0030CD55B4613
:1050E0002146179A059800F09FF9054404E0302006
:1050F0005A46179990476D1C0099481E0090002948
:10510000F5DC08E0029802995A460078491C0291A1
:10511000179990476D1CBAF10001AAF1010AF1DC60
:1051200065E100000928010030313233343536376B
:1051300038396162636465660000000030313233E3
:105140003435363738394142434445460000000083
:1051500000F058F90544761C307800287FF4ECAD57
:1051600019B02846BDE8F08F620700D4062709F180
:10517000070222F0070CFCE80223E14603F0004896
:105180005FEA080C02D00FF2702C0DE05FEA045CBD
:1051900002D50FF2682C07E05FEAC47C02D00FF260
:1051A000602C01E0AFF2700C4FF0FF3823F00043A9
:1051B000CDF850C065280CD006DC452809D046281B
:1051C0001DD047283DD13DE0662818D067287ED104
:1051D00038E00021112F01DB112000E0781CCDE91F
:1051E000000106A90EA8FFF7DDFCDDE90F010E9A0C
:1051F00003910021009207F1010A04914DE04FF064
:1052000000400097CDE9011006A90EA8FFF7CAFCDF
:10521000DDE90F0203920E9B11990022DDF80CA02C
:105220000093049211B9791C00EB010AB7EB0A0054
:1052300004D4C0F1FF3007F1010A0490AAEB070083
:10524000019044E0012F00DA01270021112F01DD38
:10525000112000E03846CDE9000106A90EA8FFF7AD
:10526000A1FCDDE90F010E9A039100210491009247
:10527000BA4621070CD40399514500DA8A46BAF19F
:10528000010F05DD009AAAF10101515C302908D017
:10529000B84202DA10F1040F06DA0121CDE901105B
:1052A00015E0AAF10101E9E7002805DC04990144B1
:1052B0000491AAEB000102E0411C514500DD8A4641
:1052C0000499401A401C01904FF0004002902007C2
:1052D00004D40198504501DBCDF8048000208DF8FE
:1052E0004F0002980DF14F07B0F1004F25D02B2051
:1052F0000E9002984FF0020800280CDA404202900B
:105300002D200E9007E00A210298FBF735FA303184
:10531000029007F8011DB8F10001A8F10108F2DCC4
:1053200002980028EFD1791E0E980870307800F0AE
:10533000200040F0450007F8020D12A8C01B00F144
:1053400007081498007800B1012000EB0A010198C9
:1053500001EBE07105984144401A401E0590E003BE
:1053600006D45B462146179A059800F05DF805447F
:105370001498007818B15A46179990476D1CE003AD
:1053800024D55B462146179A059800F04DF8054450
:105390001CE00498002807DBDDE90301884203DDF7
:1053A0000098405C179901E0179930205A469047C1
:1053B000049805F10105401C04900198401E0190DD
:1053C00004D12E205A46179990476D1CBAF100015E
:1053D000AAF1010ADDDC05E017F8010B5A4617991E
:1053E00090476D1CB8F10001A8F10108F4DC5B46A0
:1053F0002146179A0598ABE62D0000002B0000000F
:10540000200000002DE9F041044600251E46174605
:10541000880404D405E039462020B0476D1C641E82
:10542000F9D52846BDE8F0812DE9F0410446002574
:105430001E469046C80301D5302700E02027880487
:1054400004D505E041463846B0476D1C641EF9D5C9
:105450002846BDE8F081000010B588B00121042085
:10546000FEF7F0FB0020ADF816008DF81E004CF2A0
:105470004F310691C721ADF81410ADF81C000B4C4C
:1054800005A92046FFF762F86846FFF755F8602146
:10549000ADF8001040F6C41102910121ADF80210E0
:1054A00069462046FFF716F808B010BD0008004016
:1054B00038B5FDF717FC0024084D0094234622461A
:1054C0000321686903F00AFF002300941A460521AE
:1054D000686903F003FF6C6138BD00001000002014
:1054E00038B50446062000900323224604215420A8
:1054F000FDF7C8FD0623252204216620FDF73AFDAD
:105500002148642C21D0A4F10A015A2925D2102364
:1055100000901A4600216E20FDF75AFD0A20B4FBC8
:10552000F0F1B4FBF0F0C1F10A01CAB2703000B280
:1055300006230521FDF78AFC01B00823BDE83040B1
:10554000062204215520FDF781BC102300901A4645
:1055500000216E20FDF73CFD38BD102300901A4657
:1055600000216E20FDF734FD06230A22052170205C
:10557000FDF76CFC01B00823BDE830400C2204218B
:105580005520FDF763BC00005DAA020870B500213C
:105590001A4803681A480288002A2ED0002004E026
:1055A00033F810402144401C80B29042F8D3B1FB44
:1055B000F2F0144D68620024686AB0F5006F08D9F3
:1055C000686A6421A0F5006048434FF4F071B0FBB5
:1055D000F1F4642C00D964246421686B03F0E4F9CD
:1055E00000280AD0A0B2FFF77BFF686BBDE87040CF
:1055F00000231A46194603F03BB870BD3C01002059
:1056000040010020100000207FB5304D6421686B00
:1056100003F0CAF9002858D0E87BD8B380F0010025
:10562000E873FDF75FFB01A8FCF7AEF901A8FCF7F2
:10563000E3F905F11006F47830789DF806108842F9
:1056400005D311D170789DF8051088420CD29DF8D1
:105650000700401CC4B29DF80810BDF80A0000F015
:105660000DFB844200D901241948102300901A46EA
:105670002D216420FDF7ACFC0120FCF74AF83278BC
:105680007178B0782346FCF79EF801210846FCF7B4
:1056900064F811E0FFE70120E873FDF723FB102316
:1056A0001A462D216420FDF7D1FB00210120FCF7D3
:1056B00054F80120FCF72DF8686B04B00023BDE816
:1056C00070401A46194602F0D3BF7FBD100000207B
:1056D00077AB020814481449C079103100280BD068
:1056E000012810D0022815D0032804D1C878012839
:1056F00017D0401EC8707047887810B1401E88705F
:1057000070473B20FBE7487810B1401E4870704757
:105710003B20FBE7087810B1401E08707047172047
:10572000FBE71F20E6E700001000002010B520482E
:10573000204C827920886188072A09D2DFE802F0AC
:10574000040B1219232A3000608910B1401E6081B9
:1057500010BD3B20FBE7208910B1401E208110BD09
:105760003B20FBE7E08810B1401EE08010BD172011
:10577000FBE700F5FA6000F081FAA188012900D06A
:10578000481EA08010BD012902D0491E618010BDB5
:105790000C21FBE710B1401E208010BD6320FBE709
:1057A000A089012802D0401EA08110BD0720FBE780
:1057B00010000020AC01002010B50146084600F0A2
:1057C00002FF20B114A0FFF763F8002010BD91F98B
:1057D000000001EB80004368012008E001EB80023B
:1057E0005468421E01EB82025460401CC0B28A78A9
:1057F0008242F3D88878401E40B2887000240C7032
:1058000038B1421E52B24A7001EB80004460184623
:1058100010BD4FF0FF32F6E7517565756520656D77
:105820007074792C20646571756575652066616991
:105830006C65642E0A00000038B503F0C7FA044610
:105840001C4DD5ED040A95ED051A30EEC10AF4EEB3
:10585000C10AF1EE10FA11DD687828B901206870EC
:10586000DFED150AC5ED060AD5ED060AB4EEE00A2D
:10587000F1EE10FA01DD85ED060A38BD68780028E2
:10588000FBD00E49A869884211DDE869201AB0F5FD
:10589000967F0CD9A888401CA880ADF80000084865
:1058A000022300226946006802F0E2FEEC6100205B
:1058B000687038BD4C01002000000000B81E053E95
:1058C0006400002010B503F081FA234B234AD96A03
:1058D000914201DD012200E0002293ED100AB0EEBA
:1058E000C00A10EE104A1E498C4209DA93ED110AE3
:1058F000B0EEC00A10EE104A8C4201DA012100E03D
:105900000021BAB1B1B1196A01B91862196A401A15
:10591000FA2820D9987800281DD1012098708D2070
:10592000FDF7ACFC1420FDF7A9FCBDE81040AF204A
:10593000FDF7A4BC00201862997801290BD198705A
:105940008D20FDF79BFC1020FDF798FCBDE8104072
:10595000AE20FDF793BC10BD4C010020CDCCCC3E59
:1059600000000C4200210148FEF791BD00040040F8
:10597000F8B50546002917D00A24B5FBF4F206262F
:10598000012337213E200096FDF77CFBB5FBF4F0A8
:1059900004FB10520123372144200096FDF772FBCF
:1059A000BDE8F840FDF756BC0823062237213E200B
:1059B000FDF74CFA01B00823BDE8F040062237217C
:1059C0004420FDF743BAF8B50546002917D00A244C
:1059D000B5FBF4F20C260123142110200096FDF7EC
:1059E00051FBB5FBF4F004FB1052012314211C20E1
:1059F0000096FDF747FBBDE8F840FDF72BBC1823E8
:105A00000C2214211020FDF721FA01B01823BDE863
:105A1000F0400C2214211C20FDF718BAF8B50546F9
:105A2000002917D00A24B5FBF4F20C260123142117
:105A300034200096FDF726FBB5FBF4F004FB105272
:105A40000123142140200096FDF71CFBBDE8F8401F
:105A5000FDF700BC18230C2214213420FDF7F6F9C1
:105A600001B01823BDE8F0400C2214214020FDF7BE
:105A7000EDB9F8B50546002917D00A24B5FBF4F2B4
:105A800006260123372128200096FDF7FBFAB5FBF7
:105A9000F4F004FB1052012337212E200096FDF76D
:105AA000F1FABDE8F840FDF7D5BB082306223721FF
:105AB0002820FDF7CBF901B00823BDE8F04006220D
:105AC00037212E20FDF7C2B9F8B50546002917D0B9
:105AD0000A24B5FBF4F20C26012314215820009669
