:020000040804EE
:1000000088B600206D020208453502082131020839
:1000100091340208031A020821530208000000006C
:10002000000000000000000000000000AD01020818
:10003000652302080000000009020208C94C0208FA
:100040008702020887020208870202088702020864
:10005000870202088702020899240208452502083F
:100060008702020887020208912502088702020817
:100070008702020887020208870202088702020834
:100080001D1A020887020208870202080000000009
:1000900000000000000000000000000087020208CD
:1000A0008702020887020208870202088702020804
:1000B000514D0208F54D0208870202088702020826
:1000C00087020208870202088702020887020208E4
:1000D0008702020887020208BD4F020800000000E4
:1000E000FD240208870202088702020800000000BF
:1000F000000000000000000000000000870202086D
:100100000000000087020208870202088702020836
:1001100000000000000000000000000000000000DF
:10012000E51A02088702020887020208870202080D
:10013000870202080000000000000000000000002C
:10014000000000000000000000000000870202081C
:100150008702020887020208870202088702020853
:100160008702020887020208000000000000000069
:10017000000000000000000000000000000000007F
:1001800000000000870202080000000000000000DC
:100190008702020887020208DFF80CD000F0ECFBAF
:1001A00000480047E171020888B600202C4B19680E
:1001B0000868B0E8F04F80F30988BFF36F8F4FF005
:1001C000000080F3118870470000000008480068B4
:1001D000006880F308884FF0000080F3148862B64E
:1001E00061B6BFF34F8FBFF36F8F00DF00BF00BF5B
:1001F00008ED00E0DFF80C00016841F470010160D7
:10020000704700BF88ED00E0EFF30980BFF36F8F08
:10021000134B1A681EF0100F08BF20ED108A20E95A
:10022000F04F106009B44FF0500080F31188BFF315
:100230004F8FBFF36F8F09F065F84FF0000080F328
:10024000118809BC19680868B0E8F04F1EF0100F5B
:1002500008BFB0EC108A80F30988BFF36F8F704736
:10026000E0000020EFF3058070470000064880475B
:1002700006480047FEE7FEE7FEE7FEE7FEE7FEE78B
:10028000FEE7FEE7FEE7FEE7F54C020899010208EB
:100290002DE9F05F0546002092469B4688460646BB
:1002A000814640241BE0284641464746224600F04E
:1002B00094FA53465A46C01A914110D31146184633
:1002C000224600F07BFA2D1A67EB01084F462246C2
:1002D0000120002100F072FA17EB00094E41201EA8
:1002E000A4F10104DFDC484631462A464346BDE816
:1002F000F09F40EA01039B0703D009E008C9121FE1
:1003000008C0042AFAD203E011F8013B00F8013BCF
:10031000521EF9D27047D2B201E000F8012B491EFB
:10032000FBD270470022F6E710B513460A46044692
:100330001946FFF7F0FF204610BD10B5044604E053
:100340000B7800F8013B03B1491C521EF8D220463D
:1003500010BD10B5002200E0521C835C8C5CA342EF
:1003600001D1002BF8D1D8B2E1B2401A10BD2DE96D
:10037000FE4F804681EA0300C00F0C46009021F03A
:10038000004123F00045B8EB0200A94105D24046E8
:10039000214690461C460B46024623F0004010437F
:1003A00047D0270DC7F30A00C3F30A510290401A41
:1003B000019040286BDAC3F3130040F4801B0098CF
:1003C000924620B10023D2EB030A63EB0B0B01989A
:1003D0005946C0F14002504600F0F0F906460D467D
:1003E00050465946019A00F008FA10EB08006141A6
:1003F000002487EA115284EAE7731A4340D0009A36
:1004000062B3019A012A4FEA075215DC001B61EB27
:1004100002014FF0004202EA0752CDE90042001CFF
:1004200041F5801132462B4600F03FFA03B0BDE89B
:10043000F08F40462146F9E7001B61EB0201001CEA
:1004400041F5801300185B412018A2F5001747EB17
:10045000030140EAD570B6196D4111E06D084FEA0D
:10046000360645EAC0754FEA0752001B61EB0201F0
:10047000001C41F5801149084FEA30000019514134
:1004800032462B4603B0BDE8F04F00F0FFB90098AC
:10049000012240000023D0EB020263EBE0730098DE
:1004A00021464FEAE074B8EB000061EB0401E9E794
:1004B00083F000435BE781F0004158E72DE9FE4FF0
:1004C00081EA030404F0004421F0004100944FF05D
:1004D000000B23F0004350EA01045ED052EA03040B
:1004E0005BD0C3F30A54C1F30A552C44A4F2F3348D
:1004F0000194A0FB0254C1F3130141F48011C3F332
:10050000130343F4801301FB024400FB034E840AEF
:10051000970A44EA815447EA8357A4FB0768029587
:100520008D0A05FB07854FEA932C04FB0C54270525
:10053000029D4FEA065847EA1637B5EB08056EEB01
:10054000070C870E920E47EA811742EA8312A7FB37
:100550000201B6EB0B0164EB00042B0D43EA0C33F4
:100560005E1844EB1C50DA465146E7FB0201C5F326
:1005700013044FEA0B3343EA14534FEA0432019C4D
:1005800043EA0603A4F10C040294009CCDE900B4F4
:1005900000F08BF903B0BDE8F08F00200146F9E7C9
:1005A0002DE9F04D81EA030404F0004B21F00045F1
:1005B00014464FF0000A23F0004150EA050220D013
:1005C00054EA01021DD0C5F30A570246C5F31303CE
:1005D000C1F31300C1F30A5640F4801543F48013AD
:1005E000A7EB0608101BD64608F2FD3873EB050092
:1005F00002D308F1010801E092185B41B8F1000F45
:1006000003DA00200146BDE8F08D00204FF4801190
:10061000064684460EE0171B73EB050705D3121B35
:1006200063EB050306434CEA010C49084FEA30002E
:1006300092185B4150EA0107EDD152EA030012D053
:1006400082EA040083EA0501084305D0101BAB4190
:1006500006D20122002306E000224FF0004302E010
:100660006FF0010253101AEB06004CEB085110EB2F
:100670000A0041EB0B01BDE8F04D00F007B90EB5E3
:10068000C10F80EAE0700844CA07002140F23343FA
:100690008DE80E000A460B4600F007F903B000BDD6
:1006A0000EB540F2334102910021CDE900110A4616
:1006B0000B4600F0FAF803B000BD70B5C1F30A5262
:1006C00001F000450024C1F3130140F2FF3341F46F
:1006D00080119A4201DA002070BD40F233439A4201
:1006E000A2F2334203DC524200F077F800E090407F
:1006F0002C43F1D0404270BD30B5041E71F10004AE
:1007000004DB4FF00044404264EB0101141E73F11E
:10071000000405DB1C464FF00043524263EB040328
:100720008B4208BF824230BD30B5041E71F1000417
:1007300004DB4FF00044404264EB0101141E73F1EE
:10074000000405DB1C464FF00043524263EB0403F8
:10075000994208BF904230BD01F0004330B421F00F
:10076000004150EA010206D00A0DA2F56072C1F301
:100770001301002A02DC30BC00207047440F44EA19
:10078000C104C100E01830BC00EBC25000F047B813
:1007900030B50B46014600202022012409E021FA51
:1007A00002F59D4205D303FA02F5491B04FA02F54E
:1007B0002844151EA2F10102F1DC30BD202A04DB21
:1007C000203A00FA02F1002070479140C2F1200364
:1007D00020FA03F3194390407047202A04DB203AA3
:1007E00021FA02F00021704721FA02F3D040C2F151
:1007F00020029140084319467047202A06DBCB1798
:10080000203A41FA02F043EAE07306E041FA02F3CB
:10081000D040C2F120029140084319467047002998
:10082000A8BF7047401C490008BF20F00100704776
:1008300010B4B0FA80FC00FA0CF050EA010404BFD6
:1008400010BC704749B1CCF1200421FA04F411FA2C
:100850000CF118BF012121430843A3EB0C01CB1D70
:100860004FEA00614FEA102042BF002010BC7047E1
:1008700000EBC35010440029A4BF10BC7047401CBB
:10088000490008BF20F0010010BC704710B5141ECD
:1008900073F1000408DA401C41F1000192185B4139
:1008A0001A4301D120F0010010BD2DE9F04D924610
:1008B0009B4611B1B1FA81F202E0B0FA80F2203227
:1008C0009046FFF77BFF04460F4640EA0A0041EAE4
:1008D0000B0153465A46084313D0114653EA010010
:1008E00019D0C8F140025046FFF777FF05460E4683
:1008F000504659464246FFF761FF084305D00120A4
:1009000004E020463946BDE8F08D0020054346EA64
:10091000E0762C4337430A986305E40AA0EB08000D
:100920000022FD0A44EA47540A3002D5002001465D
:10093000E9E7010510196941DDE908450019694138
:10094000BDE8F04DA2E7C1F30A52C1F3130140F232
:10095000FF3341F480119A4202DA002001467047C9
:1009600040F233439A42A2F2334202DC5242FFF792
:1009700034BFFFF723BF0000064C074D06E0E068D8
:1009800040F0010394E8070098471034AC42F6D3D6
:10099000FFF706FC94BB0208B4BB020830B58C1804
:1009A00010F8012B12F00F0301D110F8013B1209CE
:1009B00006D110F8012B03E010F8015B01F8015B90
:1009C0005B1EF9D101E001F8013B521EFBD1A142AF
:1009D000E6D3002030BD000010B58CB00121080224
:1009E00003F028FE0121084603F008FE03208DF8DD
:1009F0002C0002200A9000248DF82F400AA92148DB
:100A000002F0A4F805F0DCFA00F0FAF802F0FAFDC2
:100A100006944FF4804008904FF4706009904FF4B2
:100A20008030079006A800F03FF88DF80540049448
:100A30004FF0106003904FF08050029001208DF82D
:100A4000140000948DF804400F4C6946204600F0D5
:100A500057F80121204600F047F801231A461946AD
:100A6000204600F073F80121204600F031F8012102
:100A7000204600F00DF80121044804F002FA0CB001
:100A800010BD0000000002400020014000080040AE
:100A9000002904D0816841F00101816070478168BC
:100AA00021F001018160704710B5074C22680749A9
:100AB0000A40D0E900131943D0E902300343194337
:100AC0001143216010BD000004230140E030FCFF11
:100AD000002904D0816841F4807181607047816889
:100AE00021F4807181607047002904D0816841F44D
:100AF000007181607047816821F4007181607047E6
:100B000030B542680F4B1A400C790B6842EA042258
:100B10001343436083680C4A1340D1E903422243E4
:100B20004D798C6844EA450422431A438260C26AC4
:100B300022F47002097D491EC9B242EA0151C16224
:100B400030BD0000FFFEFFFCFDF7FFC070B50726BB
:100B500009290AD9C568A1F10A0404EB4404A64096
:100B6000B543A3401D43C56007E0056901EB41049F
:100B7000A640B543A3401D4305611F23072A09D2A0
:100B8000446B521E02EB820293409C4391400C4303
:100B9000446370BD0D2A09D2046BD21F02EB82029E
:100BA00093409C4391400C43046370BDC46A0D3A6A
:100BB00002EB820293409C4391400C43C46270BD9F
:100BC0007CB50121022003F019FD4FF480540094FC
:100BD00001208DF8040000208DF8060002228DF817
:100BE00005208DF80700054D6946284601F0AEFF47
:100BF0002146284602F002F87CBD000000040240B5
:100C000010B590B00121880503F0F8FC01A801F0AF
:100C10003DF90020019004901B4903914FF480613D
:100C200007911E2105914FF480710A911749029195
:100C30000690C91408918900099109010B910C9043
:100C4000134C01A9204601F0F7F80F4900223C316E
:100C5000204601F08FF80121204601F07FF80D4970
:100C6000204600F0ADFF01221021204601F0CAF815
:100C700001220821204601F0C5F80121204600F09C
:100C8000CBFF10B010BD0000E8A500204C200140B3
:100C9000106402403D00801000B591B0154901AAD2
:100CA000002051F8203042F82030401C1028F8D3A2
:100CB00011490198884202D10298012802D00020EF
:100CC00011B000BD0D480399814201D00020F7E723
:100CD000069940F20930814201D00020F0E707492F
:100CE000491C039100210791089001A800F014F815
:100CF000C0B2E5E7000001083157544202005AA58E
:100D000010B50221202001F05DFD092801D000204E
:100D100010BD012010BD000070B5064601F002FEB6
:100D2000F32001F031FDFFF7EBFF68B100240C4D1B
:100D300056F8241005EB840001F0D6FD092807D0F1
:100D400001F0AEFD002070BD01F0AAFD002070BDD5
:100D5000641C102CECD301F0A3FD012070BD000039
:100D600000000108082000F04DB8000010B506484A
:100D7000007B002803D0042000F044F808B10020D4
:100D800010BD012010BD00001000002001460548E4
:100D9000826A8A438262406A002801D008F0DABA87
:100DA000704700001000002070B590B06E464022E1
:100DB0006946134804F0C4FA0546002419E003F01C
:100DC00023FB28B90E481638817A407A014308D1AE
:100DD000281B81B2301903F03FFA10B1204484B2CD
:100DE00007E000F019F810B9305D00F0C1F9641C9B
:100DF000A4B2AC42E3D3402DD9D010B070BD0000F6
:100E0000260000200349896A014201D00120704771
:100E100000207047100000200220FFF7F3BF000001
:100E200008B505488068002805D0002102230A463D
:100E3000009108F02BFE08BD900000202DE9F04144
:100E40000446002C17D000F090F90646207808B12F
:100E5000012500E00025284600F024FA074FB5429E
:100E600005D12078797B884201D1012801D0FFF794
:100E7000D7FF20787873BDE8F081000010000020D3
:100E80002DE9F04385B080460C9D894614461F46E7
:100E9000267C20783978884208D1012802D1287828
:100EA000B04203D1002005B0BDE8F083494640467A
:100EB00000F02AF9207801280CD0642602282DD0D1
:100EC000032842D0FF26042856D02E700120217816
:100ED0003970E8E730A24946404600F0EBF8324668
:100EE00030A1684604F080FA6A464946404600F060
:100EF000E1F860682EA100F2FF30820A684604F033
:100F000073FA6A464946404600F0D4F82BA2494697
:100F1000404600F0CFF82E700120D8E71EA24946C7
:100F2000404600F0C7F829A24946404600F0C2F802
:100F300028A24946404600F0BDF820A24946404656
:100F400000F0B8F82E700120C1E725A249464046BE
:100F500000F0B0F825A24946404600F0ABF826A2C2
:100F60004946404600F0A6F814A24946404600F023
:100F7000A1F82E700120AAE722A24946404600F0BF
:100F800099F8607C00F044F802464946404600F07B
:100F900091F82E7001209AE74F54412052554E4E41
:100FA000494E470052582025303375252500000052
:100FB00053495A4520256C754B000000444F204E84
:100FC0004F5420504F5745520000000052582031D6
:100FD00030302500564552494659494E47000000D9
:100FE0004F544120444F4E450000000056455249A1
:100FF0004659204F4B0000005245424F4F54494E36
:10100000470000004F5441204641494C45440000F0
:101010000A2818D2DFE800F0170507090B0D0F1199
:1010200013150AA070470CA070470EA070470FA0C0
:10103000704711A0704712A0704714A0704715A008
:10104000704717A0704719A0704700004241442024
:101050004D414749430000004241442053495A450D
:1010600000000000424144205345510042414420C9
:101070004F46465345540000504B542043524300C2
:10108000464C415348204641494C0000494D4720B9
:101090004352430056455253494F4E204F4C440053
:1010A00052582054494D454F555400004552524F17
:1010B0005200000070B5044616460878042802D293
:1010C000421C0A7011E000214B1C03EB03101D466B
:1010D00001EB011120440B19014611221846FFF7BC
:1010E00008F9E9B20329EFD3032000EB0010044410
:1010F00011212046FFF716F9204610223146FFF74E
:101100001CF90020207470BD70B505460E46002401
:1011100004EB041028441121FFF704F9641CE4B225
:10112000042CF5D30020307070BD70B505468D20BD
:1011300002F0AAFC142002F0A7FCAF2002F0A4FCED
:1011400002F076FA002404EB0411685C28B14A1915
:1011500021010823002002F0BFFB641CE4B2042C30
:10116000F1D3BDE8704002F07BBC0120FFF74ABE1E
:101170007CB501220025424C542810D041280ED0C5
:10118000617AE9B30D2809D021463E4A097A0A2836
:1011900008D013293ED24B1C237250547CBD62727E
:1011A00025727CBD5554132913D16946354806F084
:1011B00027F970B16421E06C08F06CFB012808D1BC
:1011C000684600F023FF00231A461946E06C08F039
:1011D000C5F9217A032901D0052918D101AA294886
:1011E00006F0B7F898B16421E06C08F053FB0128D1
:1011F0000DD19DF804109DF8050000F0E3FE00E01D
:101200000BE000231A461946E06C08F0A7F9257296
:1012100065727CBD257265727CBD03282BD0184990
:101220000528897A09D0062816D0012901D002297B
:10123000F2D1BDE87C4005F01FBD39B10129EBD1E9
:10124000A572BDE87C40012005F016BDA272BDE884
:101250007C40012005F010BD39B10229DCD1A57216
:10126000BDE87C40022005F007BD0220A072BDE869
:101270007C4005F001BDBDE87C40092005F0FCBCC8
:1012800010000020FC01002001460548826A0A4344
:101290008262406A002801D008F076B870470000EA
:1012A0001000002010B50446002C03D01F20FFF7CB
:1012B000EBFF05E00F20FFF769FD1020FFF7E4FFCB
:1012C000204602F059F82046BDE8104002F0D6B89A
:1012D00000F00F01000900EB800001EB4000C0B2FC
:1012E000704710B5B621E02000F080FB08B1012066
:1012F00010BD0A2007F000FE00F0DEFA0121F22006
:1013000000F074FB9021F52000F070FB6C21F420BC
:1013100000F06CFB002010BD2DE9F74F82462DED4B
:10132000108B84B016466F21F42000F05FFB08227A
:1013300002A9F72000F054FB9FEDFBDB9FEDFCEBD7
:101340009FEDFDCBFE4C28B1012004B0BDEC108B0D
:10135000BDE8FE8F9DF808009DF80910000340EAE3
:1013600001109DF80A1040EA111B9DF80B009DF832
:101370000C10000340EA01109DF80D1040EA11170F
:101380009DF80F009DF80E1040EA01200190B4F97D
:101390000200FFF774F941EC180B2088FFF780F981
:1013A000894605469FEDE71B53EC112BFFF786F8A6
:1013B00041EC190B3846FFF762F98846074653ECB3
:1013C0001D2BFFF77BF853EC192BFFF771F853EC4B
:1013D000182BFFF773F841EC180BB4F90400FFF772
:1013E0004EF941EC190B49EC105B9FEDD8BB51EC69
:1013F000100B53EC1B2BFFF761F841EC1A0B48EC78
:10140000107B9FEDD4FB51EC100B53EC1F2BFFF71F
:1014100055F853EC1A2BFFF74BF849EC105B41ECF5
:101420001A0B53EC1B2B51EC100BFFF747F848EC51
:10143000107B41EC1B0B53EC1F2B51EC100BFFF7F7
:101440003DF853EC1B2BFFF733F853EC1A2BFFF747
:1014500035F853EC192BFFF731F841EC100B51EC38
:10146000180B53EC102BFEF782FF0F460546FFF7D3
:1014700024F9606247EC105B9FEDB81B51EC100B38
:1014800053EC112BFFF78CF841EC100B51EC100BC7
:10149000FFF762F9CAF80000606AFFF7F0F89FED05
:1014A000B11B53EC112BFFF709F89FEDB01B53EC68
:1014B000112BFEF7FDFF41EC180BB4F91000FFF7FC
:1014C000DEF841EC190B53EC182B51EC180BFEF71E
:1014D000F5FF53EC192BFEF7F1FF53EC1E2BFEF733
:1014E000EDFF41EC190BB4F90E00FFF7C8F853EC0F
:1014F000182BFEF7E3FF9FED9F1B53EC112BFEF71C
:10150000DDFF53EC192BFEF732FF41EC1A0BB4F957
:101510000C00FFF7B4F89FED991B53EC112BFEF76D
:10152000CDFF41EC190B9FED970B51EC1A0B53ECCF
:10153000102BFEF7C3FF53EC192BFEF718FF41ECFD
:101540001F0BB4F90800FFF79AF853EC182BFEF7BD
:10155000B5FF41EC190BB4F90A00FFF790F853EC12
:10156000182BFEF7ABFF53EC182BFEF7A7FF53EC3D
:101570001C2BFEF7A3FF53EC192BFEF7F8FE53ECE0
:101580001C2BFEF79BFF41EC190BE088FFF788F856
:1015900041EC180B53EC1E2B51EC190BFEF78EFF90
:1015A0009FED7AAB53EC1A2BFEF7E1FE53EC182BB0
:1015B000FEF784FF41EC190B9FED76BB51EC190B44
:1015C00053EC1B2BFFF798F804D19FED740A86EDBE
:1015D000000A65E05846FFF752F89FED711B53EC87
:1015E000112BFEF768FF41EC180B9FED6F0B51ECD0
:1015F0001F0B53EC102BFEF761FF53EC182BFEF77B
:101600005AFF9FED6B1B53EC112BFEF757FF53EC6A
:10161000192BFEF7C5FF41EC190BB4F91600FFF7C3
:101620002EF853EC192BFEF749FF53EC192BFEF75C
:1016300045FF9FED611B53EC112BFEF73FFF41EC83
:10164000180BB4F91400FFF71AF853EC192BFEF736
:1016500035FF53EC1E2BFEF731FF41EC1F0BB4F9A5
:101660001200FFF70CF841EC1E0B53EC1F2B51EC52
:10167000180BFEF77CFE53EC1E2BFEF778FE9FED59
:10168000501B53EC112BFEF719FF53EC192BFEF7EF
:101690006EFE41EC100B51EC100BFFF75DF8306063
:1016A000606AFEF7ECFF9FED481B53EC112BFEF731
:1016B000FFFE41EC190B207FFEF7F2FF9FED44EB9C
:1016C00053EC1E2BFEF7FAFE53EC192BFEF7F6FE39
:1016D00053EC1A2BFEF74BFE41EC180B94F9220049
:1016E000FEF7CDFF53EC1E2BFEF7E8FE53EC192B53
:1016F000FEF7E4FE53EC182BFEF7E0FE53EC1A2B3A
:10170000FEF735FE41EC180BB4F91A00FEF7B7FFEF
:101710009FED311B53EC112BFEF7D0FE53EC182B31
:10172000FEF7CCFE5CE00000000000000000103F6F
:10173000000000000000003F000000000000C03E6C
:1017400060A60020000000000000503F00000000E4
:101750000000203F000000000000E03E000000000C
:101760000000B440000000000000E03F0000000066
:101770000040EF40000000000000004000000000BA
:101780000000F040000000000000D03F000000001A
:101790000000F03F0000000000000000000000001A
:1017A0000000000000003041000000000000303F59
:1017B00000000000006AB840000000000000003E89
:1017C000000000000000B03F0000000000C0F24038
:1017D000000000000000503E000000000000F03E4D
:1017E00041EC180BB4F92000FEF749FF53EC1D2B18
:1017F000FEF764FE53EC192BFEF760FE41EC190B6B
:10180000B4F91E00FEF73BFF9FED271B53EC112B95
:10181000FEF754FE53EC192BFEF7A9FD41EC190B12
:101820000198FEF72CFF53EC192BFEF741FE53EC09
:10183000182BFEF743FE41EC190B207EFEF730FF1C
:1018400053EC192BFEF73AFE53EC1C2BFEF736FE39
:1018500053EC1A2BFEF72FFE53EC192BFEF72EFE3E
:1018600041EC180B9FED129B51EC180B53EC192B0C
:10187000FEF75AFF04D2B0EE498AF0EE698A0AE018
:1018800053EC1B2B51EC180BFEF736FF03D2B0EED6
:101890004B8AF0EE6B8A51EC180BFEF75DFF159941
:1018A0000860002051E500000000000000005040EA
:1018B000000000000000594010B588B0182201A9AE
:1018C000882000F08DF89DF804009DF805103E4C2E
:1018D00040EA012020809DF806009DF8071040EAAC
:1018E000012060809DF808009DF8091040EA012061
:1018F000A0809DF80A009DF80B1040EA0120E080CE
:101900009DF80C009DF80D1040EA012020819DF803
:101910000E009DF80F1040EA012060819DF8100034
:101920009DF8111040EA0120A0819DF812009DF859
:10193000131040EA0120E0819DF814009DF8151075
:1019400040EA012020829DF816009DF8171040EA19
:10195000012060829DF818009DF8191040EA0120CE
:10196000A0829DF81A009DF81B1040EA0120E08239
:1019700001226946A12000F033F89DF8000020768E
:10198000072201A9E12000F02BF89DF804009DF842
:10199000051040EA012060839DF8060020779DF83D
:1019A00008009DF80720014662F31F11E1839DF8AE
:1019B0000910090141EA101020849DF80A0084F8FA
:1019C000220008B010BD000060A6002010B56C21F8
:1019D000F42000F00BF808B1012010BD002010BD6C
:1019E00013460A460146762004F05ABF08B58DF822
:1019F00000008DF8011002226946EC2005F056F82F
:101A000008BDFEE70A21B0FBF1F2B0FBF1F301FBE8
:101A1000130000EB0210C0B270470000F8B50020C0
:101A20000090274E274D3146284600F0C1F9264C3C
:101A300058B13146284600F0D9F8606F28B1E17AF4
:101A400019B16A46002107F0C7FA204E28463146F0
:101A500000F0AEF958B13146284600F0C7F8606F83
:101A600028B1E17A19B16A46002107F0B5FA1849A0
:101A7000284600F09DF948B91649284600F098F923
:101A800020B91549284600F093F968B11349284652
:101A900000F0ACF802F0C4FC606F28B1E17A19B133
:101AA0006A46002107F098FA0098002807D00C49F0
:101AB0004FF080500860BFF34F8FBFF36F8FF8BDBA
:101AC00000440020886002401000002000880020B0
:101AD0000022002000110020400000A0403300A0A0
:101AE00004ED00E02DE9FE4F002502950F26DFF8FA
:101AF000ACB02B4F5946384600F05AF9294CDFF864
:101B0000A880DFF8A8A00DF10809A0B15946384611
:101B100000F06CF8384600F044F9A8B3244820607F
:101B2000A8F80060CDE9005901231A460021DAF82F
:101B3000000008F029F81F4E3846314600F038F909
:101B4000A8B13146384600F051F8384600F029F97E
:101B5000F8B1194820600F20A8F80000CDE900591D
:101B600001231A460021DAF8000008F00DF8029867
:101B7000002807D011494FF080500860BFF34F8F05
:101B8000BFF36F8FBDE8FE8FFFE70B481E38206064
:101B9000C6E707481E302060DDE700001040001057
:101BA00010640240600100206401002090000020C9
:101BB00024A600202080001006A6002004ED00E0EE
:101BC000074A904201D2074801E005481038064A0A
:101BD0008B0001EA020101D5C16070478160704746
:101BE00010640240006002407D0F7D0F074A904262
:101BF00001D2074801E005481038064A8B0001EA87
:101C0000020101D5C16070478160704710640240D5
:101C1000006002407D0F7D0F002904D0016841F073
:101C2000010101607047016821F001010160704706
:101C30002DE9F043016821F00101016000210160FC
:101C400041608160C1600161212141613E493E4A9C
:101C500010394FF03D08904203D1C1F80880BDE82B
:101C6000F083394A4FF474651832904201D18D6087
:101C7000F5E7354A4FF474163032904201D18E6048
:101C8000EDE7314A4FF074674832904201D18F60DE
:101C9000E5E72D4B2D4A6033984201D1CA60DEE75B
:101CA000294C2B4B7834A04201D1CB60D7E7DFF829
:101CB00098C0284C0CF1900C604501D1CC60CEE767
:101CC000DFF884904FF03D5C09F1A809484502D146
:101CD000C1F80CC0C3E72049DFF87C9008394845BB
:101CE00002D1C1F80080BAE7DFF86C8008F118086B
:101CF000404501D10D60B2E7174D3035A84201D102
:101D00000E60ACE7144D4835A84201D10F60A6E73C
:101D1000114D11496035091FA84201D10A609EE7A3
:101D20000D4A7832904201D10B6098E70A4A90320E
:101D3000904201D10C6092E7074AA83290428ED1BE
:101D4000C1F800C08BE70000106002403D00002099
:101D5000400F002000003D2010640240002904D004
:101D6000016841F4802101607047016821F48021FD
:101D700001607047002A04D0026842F40022026029
:101D800003E0026822F4002202600161704701460C
:101D900000200968C90700D001207047406880B260
:101DA0007047014600200968090300D501207047EB
:101DB00030B500240F4A904201D20F4A01E00D4A8B
:101DC000103A0E4B194205D01E2303EAD1250368B1
:101DD0002B4002E0406900F08003880001D5506884
:101DE00000E01068064A1040084201D003B1012407
:101DF000204630BD10640240006002403C0F3C0FA2
:101E00007D0F7D0F0B0609D522B1436943F0800396
:101E1000436103E0436923F080034361802905D0D7
:101E200001F01E011AB102680A430260704702689D
:101E30008A4302607047000030B50368124A1340BD
:101E4000CC680A682243D1E905452C432243CC697A
:101E500022430C6A22434C6A22438C6A22434C6B15
:101E600022438C6B22431A430260426922F007032B
:101E7000D1E90B2422431A4342610A6942604A684D
:101E800082608968C16030BD3F801CF00021016024
:101E900041608160C160016141618161C161016234
:101EA00041628162C162016341638163704738B5F9
:101EB000044669460F2001F0FEF908B1012038BD43
:101EC000012C03D0022C07D0022038BD9DF8000061
:101ED00020F00100009004E09DF8000020F00200D6
:101EE00000909DF800100F2001F0EBF908B10320DD
:101EF00038BD002038BD38B504460D4669460E2071
:101F000001F0D9F908B1012038BD012C03D0022C11
:101F10000ED0022038BD2DB19DF8000040F0010028
:101F2000009011E09DF8000020F0010000900BE00F
:101F30002DB19DF8000040F00200009004E09DF8F3
:101F4000000020F0020000909DF8000040F0040125
:101F500000910E2001F0B5F908B1032038BD002032
:101F600038BD70B50E4615461C46FFF74BFD00F018
:101F70007F01072001F0A5F908B1012070BD3046AE
:101F8000FFF740FD00F07F01082001F09AF908B149
:101F9000022070BD2846FFF735FD00F07F010920C3
:101FA00001F08FF908B1032070BD2046FFF72AFD2C
:101FB00040F080010A2001F084F908B1042070BDCE
:101FC000002070BD10B50C46FFF71CFD00F07F012E
:101FD000082001F076F908B1012010BD2046FFF776
:101FE00011FD00F07F01092001F06BF908B102201A
:101FF00010BD0120FFF706FD40F080010A2001F02E
:1020000060F908B1032010BD002010BD70B5044672
:102010000A252078B0FBF5F105FB1101B0FBF5F0C6
:1020200001EB0010C1B22170062001F04AF920B185
:10203000BDE870402DA003F0C7B96078B0FBF5F1A2
:1020400005FB1101B0FBF5F001EB0010C1B26170AE
:10205000052001F036F920B1BDE8704028A003F05A
:10206000B3B9A078B0FBF5F105FB1101B0FBF5F0B9
:1020700001EB0010C1B2A170042001F022F920B1DF
:10208000BDE8704023A003F09FB9E078B0FBF5F104
:1020900005FB1101B0FBF5F001EB0010C1B2E170DE
:1020A000022001F00EF900281FD12079B0FBF5F1D4
:1020B00005FB1101B0FBF5F001EB0010C1B221717D
:1020C000012001F0FEF800280FD16079B0FBF5F196
:1020D00005FB1101B0FBF5F001EB0010C1B261711D
:1020E000BDE87040002001F0ECB870BD736574204D
:1020F00079656172206572726F720D0A00000000CE
:10210000736574206D6F6E7468206572726F720DE6
:102110000A00000073657420646179206572726F33
:10212000720D0A0038B5044600200090694606206A
:1021300001F0C1F808B1012038BD9DF80000FFF79B
:10214000C7F800F5FA60E0806946052001F0B3F8B1
:1021500008B1022038BD9DF80000FFF7B9F82071E2
:102160006946042001F0A7F808B1032038BD9DF8A6
:102170000000FFF7ADF8E0706946032001F09BF81E
:1021800008B1042038BD9DF80000FFF7A1F82072C7
:10219000002038BD38B50446002000906946022072
:1021A00001F089F808B1012038BD9DF80000FFF763
:1021B0008FF8A0706946012001F07DF808B1022077
:1021C00038BD9DF80000FFF783F860706946002075
:1021D00001F071F808B1032038BD9DF80000FFF749
:1021E00077F82070002038BD2DE9F0410D461646E5
:1021F0001C460C2D00D90125611E072900D301249E
:1022000006B901260A27B0FBF7F107FB1101B0FB65
:10221000F7F001EB0010C1B2062001F052F828B12E
:102220001EA003F0D1F80120BDE8F081B5FBF7F066
:1022300007FB1050B5FBF7F100EB0110C1B2052010
:1022400001F03FF820B11AA003F0BEF80220EBE73E
:10225000B6FBF7F007FB1060B6FBF7F100EB0110DF
:10226000C1B2042001F02DF820B116A003F0ACF8A3
:102270000320D9E7B4FBF7F007FB1040B4FBF7F1FC
:1022800000EB0110C1B2032001F01BF820B111A036
:1022900003F09AF80420C7E70020C5E773657420AF
:1022A00079656172206572726F720D0A000000001C
:1022B000736574206D6F6E7468206572726F720D35
:1022C0000A00000073657420646179206572726F82
:1022D000720D0A00736574206461794F66576565F5
:1022E0006B206572726F720D0A00000070B50C46AB
:1022F0001546172800D900203B2C00D901243B2D7E
:1023000000D901250A26B0FBF6F106FB1101B0FB4E
:10231000F6F001EB0010C1B2022000F0D2FF08B1CC
:10232000012070BDB4FBF6F006FB1040B4FBF6F1E3
:1023300000EB0110C1B2012000F0C3FF08B1022080
:1023400070BDB5FBF6F006FB1050B5FBF6F100EBE7
:102350000110C1B2002000F0B4FF08B1032070BD2D
:10236000002070BD704710B54FF47A72A0FB0201D7
:102370000023FDF78DFFBDE8104006F0BDBD10B590
:10238000292000F019F84FF6FF7101EA00242820F7
:1023900000F012F8204310BD002000F00DB800003E
:1023A000002801D0012000E000200249087000F060
:1023B000FBBD00003401002008B500220092014658
:1023C00001236A46242004F06BFA08B1002008BDFE
:1023D0009DF8000008BD08B58DF800008DF80110CB
:1023E00002226946482004F061FB08BD10B50524AF
:1023F00004E06420FFF7B7FF641EE4B2FFF7CCFFF0
:10240000362801D0002CF4D12CB100210120FFF797
:10241000E2FF002010BD012010BD10B5052404E02E
:102420006420FFF7A0FF641EE4B2FFF7B5FF362873
:1024300001D0002CF4D12CB108210120FFF7CBFFF3
:10244000002010BD012010BD10B5052404E064205B
:10245000FFF789FF641EE4B2FFF79EFF362801D024
:10246000002CF4D1ACB100210120FFF7B4FF002112
:102470000820FFF7B0FF7F210A20FFF7ACFF4721BC
:102480000D20FFF7A8FF00210E20FFF7A4FF00207A
:1024900010BD012010BD00001CB5002401940120D6
:1024A00000F01CF9002823D007F08AFC0094114C9E
:1024B000024601AB0721606807F0EEFE019838B1D3
:1024C0000D494FF080500860BFF34F8FBFF36F8FFF
:1024D000022002F083F810B1022002F067F8607861
:1024E00018B90120607009202070012000F07AF8EE
:1024F0001CBD00006801002004ED00E070B54FF441
:102500008065284600F0EAF8012438B10B4841788C
:1025100009B944700470284600F064F84FF400557F
:10252000284600F0DBF8002806D00548047028464D
:10253000BDE8704000F056B870BD00006801002092
:10254000B00000203EB500240294022000F0C6F83E
:10255000002817D0022000F045F802A8CDE900407D
:102560000948012302220021006807F00DFB0298B0
:10257000002807D005494FF080500860BFF34F8F07
:10258000BFF36F8F3EBD00009000002004ED00E01F
:102590001CB500240194102000F0A0F8002816D0EB
:1025A00007F00EFC02460A48009401AB0721006ABE
:1025B00007F072FE019838B106494FF0805008606C
:1025C000BFF34F8FBFF36F8F102000F00BF81CBDCF
:1025D0001000002004ED00E0014908607047000091
:1025E000143C01400149086070470000143C014060
:1025F000FEB50121880302F01DF80021084602F013
:1026000077F80A21012002F073F80D21012002F071
:102610006FF80121084602F06BF80421002002F057
:1026200067F84FF48060019000258DF808500C2663
:102630008DF8096001248DF80A4001A800F058F8CF
:1026400001948DF8085008208DF809008DF80A4093
:1026500001A800F04DF8022001908DF808508DF887
:1026600009608DF80A4001A800F042F8102001909E
:102670008DF808508DF809608DF80A4001A800F027
:1026800037F8600301908DF808508DF809608DF8D7
:102690000A4001A800F02CF8B00100F0A9FF2820A2
:1026A0008DF800008DF801608DF802508DF8034020
:1026B000684600F069FF06208DF80000684600F0CB
:1026C00063FF07208DF80000684600F05DFF0A20D8
:1026D0008DF80000684600F057FFFEBD014600205F
:1026E000024A12680A4200D001207047143C01409F
:1026F00030B51B4A83790168002B2AD013688B43BD
:102700001360111D0B680468A3430B600179114429
:102710000B68046823430B60114C0834216803687C
:1027200099432160231D19680568A94319604179FF
:10273000102905D011440A68006802430A6030BDC0
:10274000216802681143216019680068014319601B
:1027500030BD0079104402688A43026030BD000039
:10276000003C014010B50120FFF736FF01210807AA
:1027700001F052FF012001F03BFF012001F016FFA4
:10278000BDE8104001F01ABF014908607047000021
:102790000C3C02400649002804D0086840F48060E0
:1027A00008607047086820F4806008607047000087
:1027B000003C02400248016841F4805101607047CA
:1027C000003C024070B506460025002905D00129CD
:1027D00027D0022928D04FF4407500F0B5F8092819
:1027E0001ED1134C206820F44070206020682843DC
:1027F0002060206820F0F8002060206846F0020188
:1028000008432060206840F48030206000F09CF88D
:10281000216821F002012160216821F0F801216086
:1028200070BD4FF48075D8E74FF40075D5E7000010
:10283000103C024009200D490A68D20301D501204D
:1028400070470A68D20601D5062070470A68D2058B
:1028500001D5022070470A6812F0E00F01D007206E
:10286000704709688907FBD5082070470C3C024077
:102870000649002804D0086840F4007008607047DA
:10288000086820F40070086070470000003C0240B7
:102890000248016841F4006101607047003C024059
:1028A0000248016841F0004101607047103C02405D
:1028B00070B506460D4600F047F8092811D1094CBD
:1028C000206820F44070206020682060206840F07C
:1028D00001002060357000F037F8216821F0010117
:1028E000216070BD103C024070B505460E4600F0F8
:1028F0002BF8092813D10A4C206820F4407020607E
:10290000206840F400702060206840F001002060E2
:102910002E6000F019F8216821F00101216070BDDE
:10292000103C024005480068002805DA03480449C5
:102930000C3801600349016070470000103C024000
:1029400023016745AB89EFCD08B509200090FFF75B
:1029500071FF009002E0FFF76DFF00909DF800000E
:102960000128F8D09DF8000008BD00000248016869
:1029700041F470010160704788ED00E02DE9FC41F1
:1029800003220021012006F07EFD504C60640022ED
:102990000421012006F077FD6066012006F063FD4A
:1029A0002064012006F05FFDE064002202210A207D
:1029B00006F069FDA06500220221142006F063FDE7
:1029C0006065002202210A2006F05DFDE06500221C
:1029D00002210A2006F057FD2066002204210A2069
:1029E00006F051FDA06603220021012006F04BFDF8
:1029F000206503220021012006F045FDA06406F0B9
:102A0000B6FC6062324801F04DFD01F01FFCFEF79C
:102A100049FC142006F033FDE0660146E06D06F047
:102A20000FFDE16EA06D06F00BFD04F170000824AF
:102A3000CDE900400023802226A1294806F0E8FFC6
:102A4000224807217430CDE900104FF49677002317
:102A50003A4624A1264806F0DBFF1C4805257830BD
:102A6000CDE9005000233A4622A1254806F0D0FFC8
:102A7000164806267C30CDE9006000234FF4C8726A
:102A800020A1244806F0C4FF104800238030CDE97F
:102A900000503A4620A1244806F0BAFF0B48002314
:102AA0008430CDE900603A4620A1234806F0B0FF0B
:102AB000064800238830CDE90040A2011FA122482A
:102AC00006F0A6FFBDE8FC4106F0E0BB10000020C8
:102AD0003D0E02087461736B5F696E6974000000DB
:102AE000658502087461736B5F6B65790000000097
:102AF000ED8502087461736B5F74696D6500000099
:102B00001588020853657454696D655F416C617284
:102B10006D0000009147020872696E675F62617420
:102B20007465727900000000318702085374657083
:102B300044657465637400007D8702084F54415FEB
:102B4000446973706C6179004D8602082DE9F0418B
:102B5000002201274FF0030C07FA02F50B682B4007
:102B6000AB422CD1066853000CFA03F4A64306606E
:102B70000E79D0F800809E4046EA080606600E797D
:102B8000012E01D0022E12D18668A64386604E79AE
:102B9000D0F808809E4046EA080686604668AE4344
:102BA000466045688E799640B6B235434560C56843
:102BB000A543C560CC799C40C3681C43C460521CCB
:102BC000102AC9D3BDE8F08110B54B07DB0E9A403F
:102BD000C90800EB8100016A0F249C40A1430162F7
:102BE000016A1143016210BD0246002012690A42C7
:102BF00000D00120704709048161704781617047EE
:102C0000002A01D08161704709048161704700008A
:102C1000094A507800280CD000201178012902D0F0
:102C2000092903D101E0042000E0092000215170AE
:102C300070470020704700006801002010B5094867
:102C400004F098FA0748203004F094FA0548403020
:102C500004F090FA0449002008604860091F0870D9
:102C600010BD000088A500205801002070B5044662
:102C70000D46304804F0A6FA10B12E4803F08EFB42
:102C80002C48203004F09EFA18B12A48203003F076
:102C900085FB2848403004F095FA18B125484030AB
:102CA00003F07CFB2146234803F0A2FD214829467E
:102CB000203003F09DFD1F491F4CD1E903209042B5
:102CC00036D38A68904233D34A68904230D94A69F1
:102CD00090422DD38A6990422AD3C969884227D964
:102CE0001448221D2030016910680B1AB3F5A07F2B
:102CF0001ED950601160814208D0081A4EF660213A
:102D0000B1FBF0F10B48403003F072FD094A40324C
:102D100092F9020003280BD3052801D9052100E010
:102D20009178401A02EB8000001D00F0FAF9207043
:102D3000207870BD88A50020540100200A4B1A8914
:102D4000002A0DD0D978884200D2D87019798842EB
:102D500000D91871596908445861521C1A8170478A
:102D60001961D8701871F5E734010020FCB51F49CE
:102D7000A1F118039A798854521C0620B2FBF0F492
:102D800000FB142098715879062801D2401C587114
:102D90005A7900206D4603E00B5C2B54401CC0B2F6
:102DA0009042F9D30021501EC7B20DE04E1CF0B284
:102DB00007E06C5C2B5C9C4201D96B542C54401C8A
:102DC000C0B29042F5D3F1B28F42EFD8D00703D012
:102DD00005EB52000078FCBD05EB520010F8011C19
:102DE00000780844401CC0F34700FCBD4C010020A3
:102DF00009494978002907D0884206D9421AD2B237
:102E0000052A01D9491DC8B270470A1AD2B2052A4B
:102E1000FAD9491FC8B27047340100202DE9F843A0
:102E20000026009606F0C6FF0446A0464F4D2878BF
:102E300050B1E868A0B1201A192811D2687848B1B9
:102E400000F0C2F8BDE8F88300221146104600F0F9
:102E500005F9F7E700221146104600F0FFF8F1E708
:102E6000EC60DFF80C916421D9F8000006F012FD47
:102E700001280AD0687810B100F0A6F8E2E7002235
:102E80001146104600F0EAF8DCE7FFF778FA07464B
:102E900000231A461946D9F8000006F05FFBD7B1A7
:102EA000A7F57F40FF3816D041463846FFF7DEFED3
:102EB000A0F13201462939D8AE70C0B22146FFF7E1
:102EC0003DFF6946204600F08DF820B39DF80000D4
:102ED00000F0B4F8B6E7A878FF2801D2401CA8702B
:102EE000A87878280CD36E7000F044F800F04CF805
:102EF000FFF7A4FE00221146104600F0AFF8A1E74C
:102F0000687810B100F060F89CE700221146104686
:102F100000F0A4F896E7687810B100F055F891E752
:102F200000221146104600F099F88BE76878A0B1AE
:102F3000A978FF2901D2491CA970A978782912D350
:102F40006E7000F017F800F01FF8FFF777FE002210
:102F50001146104600F082F874E700221146104630
:102F600000F07CF86EE700F02FF86BE734010020EA
:102F70005C00002003480021016141610181C170B2
:102F800001717047340100200648002141718171B0
:102F90000020044A18321154401CC0B20628FAD34B
:102FA000704700003401002010B506480021417030
:102FB0008170C160FFF7DEFFFFF7E6FFBDE810405C
:102FC000FFF73CBE3401002008B5082102460091FD
:102FD000022314213C2000F05BFCBDE8084000F017
:102FE0003FBD000010B5144B1A89002A07D01C6998
:102FF000001B40F6B834A04203D2002010BD0020D0
:1030000010BD052A03D2FFF7B5FF002010BD586997
:10301000DC78001B1B79C31A921E90B240B103EBFF
:103020005002B2FBF0F00870FFF7A4FF012010BDC2
:10303000FFF7A0FF002010BD3401002010B5FFF7FE
:1030400095FEFFF7D5FE0449487000228A70BDE85E
:103050001040FFF7B9BF000034010020F8B5064664
:103060000D46002A27D01421082327A2084600F085
:1030700033FC082326A21421502000F02DFC082444
:103080000223324614213C20009400F001FC082366
:1030900020A22821142000F01FFC0823252228212B
:1030A000552000F06DFB02232A4628213C20009485
:1030B00000F0EEFB23E01421082313A2084600F0E1
:1030C0000BFC082312A21421502000F005FC082359
:1030D00012A214213C2000F0FFFB08230DA228219E
:1030E000142000F0F9FB082325222821552000F0A8
:1030F00047FB082309A228213C2000F0EDFBBDE896
:10310000F84000F0ADBC0000E5BF83E78E873A00D1
:1031100042504D0053704F323A0000005F5F000094
:10312000FEE710B50023002901D0002206E00020B0
:1031300010BD50F822402344521CD2B28A42F8D328
:10314000B3FBF1F0C0B210BD002904D0018841F4F6
:10315000806101807047018821F48061018070479F
:10316000C94381827047002904D0018841F00101E0
:1031700001807047018821F001010180704700291A
:1031800004D0018841F4807101807047018821F4E6
:10319000807101807047002904D0018841F40071DA
:1031A00001807047018821F40071018070470CB5DF
:1031B0000246002000920A0F019221F07F41019AFD
:1031C000002A03D0009A1432009203E0090C009AFE
:1031D00018320092009A12680A4200D001200CBDF9
:1031E0007FB504460D46A08820F03F06684601F0F2
:1031F0002FFA02982749B0FBF1F189B20E43A6805D
:10320000228822F001022280234B2A689A4209D8A0
:103210005200B0FBF2F080B2042800D20420491C16
:10322000218423E0EB88A3F53F46FF3E0BD002EB61
:10323000C20303EB0212B0FBF2F080B240F4804014
:10324000020506D007E002EB4202B0FBF2F080B2CA
:10325000F6E740F0010040F400404FF4967251430D
:103260004FF47A72B1FBF2F1491C2184A0832088CB
:1032700040F00100208020884FF6F5310840A988F1
:103280006A89114301432180A88929890843208143
:103290007FBD000040420F00A086010008B50090ED
:1032A0000098084400900098008808BD008AC0B2C9
:1032B0007047018270470A4601230146682003F0E7
:1032C000EFBA08B58DF800008DF8011002226946AA
:1032D000D02003F0EBFB08BDFEB50121022001F078
:1032E0008DF942F20240019000248DF809408DF8DA
:1032F000084001258DF80B5001A91848FFF726FC5E
:103300000121084601F07AF9102001908DF808405B
:103310008DF80B408DF80940114E01A93046FFF79A
:1033200015FC01958DF8084002218DF80B108DF8E1
:10333000094001A93046FFF709FCFFF759F904F0ED
:1033400023F9084800900023012240F6B83106A076
:1033500006F06AFF07494860FEBD00000004024015
:1033600000000240F1840208534C45455054696DF9
:103370006572000068010020002801D0012000E0F3
:1033800000200149887070476801002002464021F2
:103390000148FFF735BC0000000002401CB50121C8
:1033A000084601F02BF94020009001208DF8040020
:1033B00000208DF8060002218DF805108DF8070019
:1033C00069460248FFF7C2FB1CBD00000000024036
:1033D00010B52DED048B9FED248A9FED249ADFED2F
:1033E000249A03F021FF234CD4ED0B0A94ED0A0A32
:1033F00002F022F860EE098AD4ED0B0A94ED090A76
:1034000002F01AF820EE090AD4ED100A94ED0C1A15
:1034100041EE080A20EEA91ADFED170A08EEA01AFD
:1034200084ED101A94ED111AD4ED0D1A01EEC81A9C
:1034300021EE291A00EE201A84ED111A94ED120AD9
:10344000D4ED0E0A00EE880A84ED120A04F0CCF8DE
:1034500002F0E4FF03F028F8BDEC048B0520BDE882
:10346000104005F049BD00000AD7A33BE12E65429C
:1034700048E17A3F7001002000D7A33C002801D02A
:10348000012000E000200149887070477001002091
:10349000FEE700001CB50121084601F0AFF84FF42B
:1034A0008070009001208DF8040000208DF8060047
:1034B00002218DF805108DF8070069460148FFF7D5
:1034C00045FB1CBD000002404FF480710148FFF72E
:1034D00095BB0000000002404FF480710148FFF7E7
:1034E0008ABB00000000024038B510A001F06CFF5C
:1034F000FFF7EAFF124C4FF0FF31E06C06F0CAF91B
:1035000040B10120FEF7D3FC00231A461946E06CB7
:1035100006F024F806F04EFC024600200346009018
:103520000121E06906F0CEFE38BD000020416C614B
:10353000726D20547269676765726564210D0A00B7
:10354000100000207047F8B54FF4407000F050F8BC
:1035500026208DF8000006268DF8016000248DF8E5
:10356000024001258DF80350684600F00DF8102048
:103570008DF800008DF801608DF802408DF8035041
:10358000684600F001F8F8BD30B50F23C278012578
:103590000178002A1FD0154A126802F4E062C2F5D1
:1035A000E062C2F30722C2F10404D3404278A24091
:1035B00084781C401443220101F1E02181F80024A9
:1035C000007800F01F018D404009800000F1E020EC
:1035D000C0F8005130BD01F01F008540480980004F
:1035E00000F1E020C0F8805130BD00000CED00E09B
:1035F0000249084302490860704700000000FA05CC
:103600000CED00E008B54FF44070FFF7F1FF3820F3
:103610008DF800000B208DF8010000208DF80200CD
:1036200001208DF803006846FFF7AEFF08BD0000DB
:1036300010B50021074C0022002004EBC1131A54DE
:10364000401CC0B28028FAD3491CC9B20829F3D360
:1036500010BD000088A600202DE9F041CF1823E01E
:10366000044686181CE07F2C18D8002916DB3F2959
:1036700014DCCB1701EB5373DD104FEAC51C0C4D66
:1036800023F007036544A1EB030815F804C00123E8
:1036900003FA08F32CEA030C05F804C0641C24B2F6
:1036A000A642E0DC491C09B28F42D9DCBDE8F081BA
:1036B00088A6002010B5AE2000F0E6F9D52000F075
:1036C000E3F9802000F0E0F9A82000F0DDF93F20C8
:1036D00000F0DAF9D32000F0D7F9002000F0D4F997
:1036E000402000F0D1F9A12000F0CEF9C82000F070
:1036F000CBF9DA2000F0C8F9122000F0C5F98120DA
:1037000000F0C2F9CF2000F0BFF9D92000F0BCF9D9
:10371000F12000F0B9F9DB2000F0B6F9302000F01C
:10372000B3F9A42000F0B0F9A62000F0ADF98D2087
:1037300000F0AAF9142000F0A7F9AF2000F0A4F9D6
:10374000FFF776FFBDE8104000F08AB9034601207C
:1037500000E05843491E4A1CFBD1704710B50C4687
:1037600040F0B00000F090F9102040EA141000F092
:103770008BF904F00F00BDE8104000F085B900009F
:1037800008B5203A082B0ED0062B15D00C2B09D1EA
:103790000F4B02EBC20203EB8202009218230C22B1
:1037A00000F01CF808BD0B4B03EB02120092102333
:1037B000082200F013F808BD074B02EB420203EBAE
:1037C000420200920823062200F008F808BD00001B
:1037D00018A9020828A3020874B602082DE9FF4FB1
:1037E0000F46DDF8349090461D4600242B46424695
:1037F00039460098FFF730FF6D1EE81705EB507053
:103800000121DFF888C001EBE00A3BE0002035E051
:1038100000990D187F2D2FD8F91707EB5171CA1099
:1038200016B221F007017B1A002F03DA761E36B29A
:1038300008331BB2311907290DD804FB08FB09EB2B
:10384000000E0CEBC1121BF80EB0565D0BFA03FB19
:1038500046EA0B065655491C07290DD804FB08F605
:1038600009EB000B0CEBC11116F80B604A5DC3F1BC
:103870000803DE4032434A55401CC0B24045C7D31E
:10388000641CE4B2A245C1DCBDE8FF8F88A600201D
:103890002DE9F04F8046DDF824A08B4691461F4667
:1038A00000240A2514E0391B491E0A20FFF74EFFA9
:1038B000B9FBF0F6B6FBF5F005FB106204FB0A80DD
:1038C000303200B253465946FFF75AFF641CE4B247
:1038D000BC42E8D3BDE8F08F2DE9FF4F83B08046AE
:1038E0001446994600250026AA46ADE0010609D4F3
:1038F000012029466D1C615CADB28DF804108DF875
:1039000005A055E00621B1EB501F10D10220691C23
:10391000625D89B28DF80420625C002A76D04A1C70
:10392000615C95B28DF805108DF806A040E00E217F
:10393000B1EB101F18D10320691C625D89B28DF8AC
:103940000420625C002A61D04A1C615C92B28DF84E
:103950000510A15C00297BD0511C8DB2A15C8DF8B3
:1039600006108DF807A023E01E21B1EBD00F23D164
:103970000420691C625D89B28DF80420625C002A13
:1039800066D04A1C615C92B28DF80510A15C0029DA
:103990005ED0511CA25C89B28DF80620625C002AC0
:1039A00056D04A1C615C95B28DF807108DF808A0BE
:1039B000012804D0002716E06D1CADB244E008EBEE
:1039C00006009DF8042000B24B460499FFF7D8FE8C
:1039D00006EB090086B237E0584601A9FCF7B9FCAE
:1039E00068B17F1CBFB207EB870000EB47111A4894
:1039F0000844834619A1FCF7ACFC0028ECD1B9F1CE
:103A0000080F04D0B9F1060F1ED113E020E007EB38
:103A1000870000EB4711104810230844401D009018
:103A200008EB060000B21A460499FFF7D7FE1036DD
:103A3000B6B209E008EB060000B206233F22049963
:103A4000FFF79EFEB61DB6B2605D00287FF44EAF54
:103A500007B0BDE8F08F0000AEB80208000000001B
:103A600070B50024074D00212046FFF777FE05EBD7
:103A7000C410802100F014F8641CE4B2082CF2D3C6
:103A800070BD000088A6002008B5002100918DF8C7
:103A9000010002226946782003F008F808BD000002
:103AA0002DE9F04707468846504D4FF40034214633
:103AB0002846FFF77CFB0128F9D001212846FFF7B3
:103AC0005EFB4B4C28462146FFF771FB0028F9D0DE
:103AD000484E28463146FFF743FB78212846FFF73A
:103AE000E8FB434C641C21462846FFF760FB012895
:103AF0000CD031462846FFF75AFB0128F3D10121AB
:103B00002846FFF748FB0320BDE8F087142128462C
:103B1000FFF7C4FB18212846FFF7C0FBDFF8D09061
:103B200009F17F0931462846FFF741FB012806D0FD
:103B300049462846FFF73BFB0128F3D111E001215C
:103B40002846FFF728FB0220DEE701212846FFF781
:103B500022FB0220D8E749462846FFF728FB012828
:103B600006D031462846FFF722FB0128F3D1ECE7C7
:103B700040212846FFF79DFB002411E00121284643
:103B8000FFF709FB0220BFE749462846FFF70FFB76
:103B9000012807D1395D2846FFF78BFB641CE4B28E
:103BA000444506D231462846FFF701FB0128EBD1F8
:103BB000E4E70F4CE41C0BE001212846FFF7EBFA89
:103BC0000120A1E721462846FFF7F1FA012806D097
:103BD00031462846FFF7EBFA0128F3D1ECE7012143
:103BE0002846FFF7D8FA00208EE700000054004076
:103BF000010000100004001070B504460A4D85F85D
:103C000020400126AE80E98006F0D4F8E861012C5E
:103C100004D0022C04D00420287070BD2E7070BD1A
:103C20000320287070BD000010020020002903D07E
:103C3000884203D3642070470020704764225043B9
:103C4000B0FBF1F0642800D96420C0B270470000D6
:103C500070B54FF0FF320024094D0DE0035D5A406E
:103C60000023D60702D085EA520200E052085B1C0E
:103C7000DBB2082BF5D3641C8C42EFD3D04370BD6C
:103C80002083B8ED70B54FF0FF320024094D0DE0F0
:103C9000035D5A400023D60702D085EA520200E0B5
:103CA00052085B1CDBB2082BF5D3641C8C42EFD3AB
:103CB000D04370BD2083B8ED05480078012803D0BB
:103CC000042803D00220704701207047032070476A
:103CD0001002002010B5074C63895B1E9BB298420E
:103CE00005D18818A169884201D1012010BD0020AA
:103CF00010BD00001002002010B50C4B1868596868
:103D000021F00102A0F10054B4F5003F01D8800772
:103D100001D0002010BDC80704D00548824201D35D
:103D20009A4201D3002010BD012010BD00000408FC
:103D30000000020810B5FEF7F5FDF320FEF724FDA4
:103D400002213020FEF73EFD0446FEF7A9FD00F0FB
:103D500010F8092C01D0002010BD012010BD10B5B5
:103D60000146042000F036FABDE81040002000F0C3
:103D7000CDB910B50020FEF77BFD0020FEF70AFD4F
:103D8000FEF786FDFEF716FD0120FEF771FDBDE88A
:103D900010400120FEF7FEBC10B590B00D4A6B46F6
:103DA00040F20930002152F8214043F82140491CDB
:103DB0001029F8D3084A0099914208D101990129A4
:103DC00005D1079A511C02D0824200D9104610B08A
:103DD00010BD000000000108315754422DE9F047A2
:103DE0003B4800F083F980463948801C00F083F995
:103DF00007463748801D00F079F90646DFF8D09075
:103E000009F10809A9F12905A819293000F073F969
:103E10008246BC1931464846FFF71AFF504509D083
:103E2000424605210220AB6900F088F9BDE8F04761
:103E300000F04CB9324639464046FFF74BFF48B1D7
:103E4000424600210220AB6900F078F9BDE8F04756
:103E500000F03CB96A89424508D003210220AB69D1
:103E600000F06CF9BDE8F04700F030B9AB69BB4237
:103E700002D1E868A04207D20421022000F05EF9D6
:103E8000BDE8F04700F022B932464946384600F016
:103E90005BFB88B1AC616889401C6881002101200E
:103EA00000F098F900F012F94246AB69BDE8F0471E
:103EB0000021022000F042B9424606210220AB69EF
:103EC00000F03CF9BDE8F0470620FFF748BF0000CE
:103ED0003102002070B5364800F00DF9054634482F
:103EE000001D00F008F9324C213CE168A94205D1DF
:103EF0002269824202D1A06988420AD000220221AE
:103F00000320A36900F01AF9BDE870400220FFF712
:103F100026BF0021022000F05DF9FFF72AFF2548A7
:103F2000E168FFF7AFFE216988420AD0002207212D
:103F30000320A36900F002F9BDE870400720FFF7F5
:103F40000EBFFFF7D9FEE8B100F0B6FA28B30021A2
:103F5000032000F03FF9002211460320E36800F03F
:103F6000EDF84FF4FA7004F0C7FFBFF34F8F12481B
:103F70000168124A01F4E06111430160BFF34F8F01
:103F800000BFFDE7002202210320A36900F0D6F85C
:103F9000BDE870400220FFF7E2BE002206210320A8
:103FA000A36900F0CBF8BDE870400620FFF7D7BE4C
:103FB00031020020000004080CED00E00400FA05C6
:103FC0002DE9F041404800F096F805463E48001DB6
:103FD00000F091F880463C48083000F08CF8074625
:103FE00039480C3000F082F80446374E253E96F8EA
:103FF00021004F280BD196F82200542807D196F8BB
:104000002300412803D196F8240031280AD0002348
:1040100001211A46084600F091F8BDE8F041012060
:10402000FFF79DBEF560C6F8108077614FF000087D
:10403000C6F8188035B1B5F5003F03D814B1B4F512
:10404000F07F0AD900231A460221012000F076F8F9
:10405000BDE8F0410220FFF782BEFFF79DFEB842A7
:104060000AD93B4600220821012000F067F8BDE88C
:10407000F0410820FFF773BE0021012000F0AAF8EC
:10408000FFF758FEA0B1012070703481A6F80A80B5
:10409000022030700021012000F09CF800F0A4F90B
:1040A000BDE8F041002203461146012000F046B869
:1040B00000231A460621012000F040F8BDE8F04137
:1040C0000620FFF74CBE0000350200200649487864
:1040D000002801D0022000E0002008700020888025
:1040E000C880C86170470000100200200178407845
:1040F00041EA002070470178427841EA0221827843
:10410000C078120442EA0060084370470A4900225E
:104110000A704A708A708A80CA800A814A81CA609D
:104120000A614A618A61CA61002803D000210846F9
:1041300000F050B8704700001002002070B586B043
:104140001E4679248DF804408DF805008DF8061080
:1041500001AD1146E81C00F01DFA3146681D00F063
:104160001DFA44208DF80D00174C20788DF80E00B4
:10417000A1880DF10F0000F00DFAE1880DF111009A
:1041800000F008FA61890DF1130000F003FA0F48FE
:10419000406881B20DF1150000F0FCF9A5208DF802
:1041A000170000240A4E295D304601F001F9641C15
:1041B000E4B2142CF7D34021304600F0B3FF0028BE
:1041C000F9D006B070BD0000100200209C00002055
:1041D000004400402DE9F04105460F46124C257081
:1041E000A4F50476F1686160B069A0607269E2606C
:1041F000FFF71CFD2074677405F0DCFD0B49C860F7
:10420000032D03D1F068A060642020740DB101205B
:1042100000E0002008700969002903D0BDE8F041E2
:1042200001480847BDE8F081200400209C000020E0
:1042300004480168044A9160016841F0807101609E
:1042400070470000743802409C000020014800784C
:10425000704700009C00002070B505460E46002403
:10426000002D06D170BD285D00F008F818B1641C5F
:10427000A4B2B442F7D3204670BD000070B5044626
:1042800000F0D6F8574D287860B1022818D005F014
:1042900091FD0146A888B0F5F67F35D900F008F900
:1042A000012070BD012C03D0552C07D0002070BD1B
:1042B00013212046FFF7A0FC012070BD012070BD36
:1042C000022C0DD0032C11D0012C15D0552C19D057
:1042D0006A8903212046AB69FFF730FF012070BDDA
:1042E00009212046FFF788FC012070BD09212046E6
:1042F000FFF782FC012070BD13212046FFF77CFCF4
:10430000012070BD012070BD0246401CA8805019DC
:1043100080F82040E9612978012928D1A88802285D
:1043200007D195F821204F2A03D000F0C1F80020D2
:1043300070BD032807D195F82220542A03D000F03D
:10434000B7F8012070BD042807D195F82320412A31
:1043500003D000F0ADF8012070BD052807D195F815
:104360002400312803D000F0A3F8012070BD0329F8
:104370001DD1A88809281AD11A482730FFF7B6FEA0
:1043800028B12989814202D3B0F5F07F0DD91548B3
:104390002130FFF7ABFE024602210846AB69FFF76A
:1043A000CDFEFFF793FE012070BD0D30E880A88898
:1043B000E988884201D2012070BD2878012807D001
:1043C000032808D0042809D000F072F8012070BD3D
:1043D000FFF7F6FDFAE7FFF701FDF7E7FFF77AFDD4
:1043E000F4E70000100200200148806870470000D8
:1043F0009C000020002803D014220249FBF779BF5B
:10440000704700002004002004480178002902D1F0
:104410004078002800D001207047000010020020E2
:1044200002484168491C4160704700009C00002020
:1044300070B505F0BFFC04461748007804280AD17F
:10444000164840F6B831C068201A884203D90021C6
:104450000846FFF7BFFE124D287800281BD002281F
:1044600019D0A888002816D0E869201AB0F57A7FFC
:1044700011D9687840B1FFF71FFC022809D000224B
:104480000921AB69FFF75AFEBDE870400920FFF72C
:1044900066BC6A89F4E770BD200400209C000020FF
:1044A0001002002001490861704700009C000020B4
:1044B0000120FFF72BBE0000F0B591B001AEFFF771
:1044C0006BFC1D490191012102911C4903911C497A
:1044D000CA6804920A690592496906910021079108
:1044E00001AB4A1E03EB8104E261491C0929F9D39F
:1044F0000890FEF717FAF320FEF746F90221202074
:10450000FEF760F90546092D0DD100240D4F56F830
:10451000241007EB8400FEF7E7F90546092D02D1C8
:10452000641C102CF3D3FEF7BBF9092D02D0002038
:1045300011B0F0BD0120FBE73157544201005AA5EC
:1045400010020020000001082DE9F04706460F4642
:1045500090460925FEF7E6F9F320FEF715F9002449
:10456000DFF82C9008E03019395D4844FEF7A0F9D7
:104570000546092D02D1641C4445F4D3FEF790F999
:10458000092D02D00020BDE8F0870120FBE70000E4
:10459000000004080170090A4170704701700A0A9E
:1045A00042700A0C8270090EC170704702490A6895
:1045B00042EA8000086070470070004005480168CA
:1045C00041F0020101600448016841F0040101600A
:1045D00030BF70470070004010ED00E00146002041
:1045E000024A52680A4200D0012070470070004021
:1045F0000149086070470000A0000E42054A0029EA
:1046000003D0116801431160704711688143116044
:104610007047000030380240054A002903D0116875
:1046200001431160704711688143116070470000B9
:1046300040380240054A002903D011680143116047
:104640007047116881431160704700004438024090
:1046500070B5244B196801F00C01234C00291ED0C1
:10466000661004291DD008291DD00460196801F0C6
:10467000F00109091D4A545C0168E14041601C6871
:1046800004F4E054A40A145D21FA04F484601B6865
:1046900003F460435B0BD25CD140C16070BD046029
:1046A000E4E70660E2E70F4A121F1168C1F3805584
:1046B000116801F03F0135B1B6FBF1F11468C4F3A4
:1046C0008814614305E0B4FBF1F11468C4F3881465
:1046D00061431268C2F30142521C5200B1FBF2F175
:1046E0000160C3E7083802400024F4000000002005
:1046F00010B58A07120F0F23934021F003040649D7
:10470000214401F608010C689C430C600B68904042
:1047100003430B6010BD00000030014018480168E1
:1047200041F0805101601748016841F44041016047
:10473000134838380168016001680160016841F47C
:1047400080510160021F10491160111F0A6842F078
:1047500080720A600A689201FCD50C4A40F203712B
:104760001160016821F003010160016841F002015C
:1047700001600168C1F381010229FAD1704700008C
:10478000403802400070004010640107003C0240C5
:1047900086B0DFF8ACB301274FF00509DFF8A4833A
:1047A0000024ABF1180ABFE1002205A9184604F065
:1047B000EFFF0128F7D19DF814000228F3D1E24859
:1047C0000090002301224FF49671E0A005F02CFD2B
:1047D000054628000ED005F0EDFA04906421306CF7
:1047E00005F058F8F0B36421F06C05F053F8012897
:1047F00004D02CE0D8A000F0E7FD95E101A8FDF77A
:1048000091FC01A8FDF7C6FCBDF80A10DA48A1F535
:10481000FA6101809DF8081041809DF807108180A1
:104820009DF80610C1809DF8051001819DF80410C7
:1048300041819DF80C108181FCF798FA08B1FEF7D0
:10484000F7FE00231A461946F06C04F087FEB47197
:10485000F770777134718DF8149000231A46194659
:10486000306C00E001E004F079FE05F0A3FA0246A6
:10487000002301212846009405F024FD012802D0E0
:10488000BEA000F0A1FD012004F05EF928E0642242
:1048900005A9F06D04F07CFF01280BD105F08AFA20
:1048A00004909DF81410042941D0052948D0BBA0DC
:1048B00000F08AFD05F07EFA0499401A40450FD9B0
:1048C0006421306C04F0E6FF50B1F4707471002381
:1048D0001A461946306C04F041FEB8A000F074FD91
:1048E000F0780028D3D103F02FFC6DB100231A46D5
:1048F00003212846009405F0E5FC00231A46052113
:104900002846009405F0DEFC6421306C04F0C2FF00
:10491000D8B1F470747100231A461946306C04F053
:104920001DFE7279F178ADA000F04EFD12E09DF809
:10493000150004A902F0E0FA012004F005F9B9E736
:104940009DF8150004F000F9B4E7B1A000F03CFDBB
:10495000F4707471FCF70AFA002801D0FEF768FEC3
:10496000E2E0B36D9842FBD1002205A9184604F09D
:104970000FFF0128F4D19DF814000328F0D1B148AD
:104980000090002301224FF49671AFA005F04CFC7B
:10499000054628000BD005F00DFA04906421306C18
:1049A00004F078FFE8B39BF8000020B12EE0AAA045
:1049B00000F00AFDB8E09BF8010038BB9BF802004C
:1049C00020BB6421F06C04F065FF01281ED101A812
:1049D000FDF7A8FB01A8FDF7DDFB9DF806008BF8AD
:1049E00000009DF805008BF801008BF802409DF84F
:1049F00007008BF80300FCF7B9F908B1FEF718FEC1
:104A000000231A461946F06C04F0A8FDF471F77003
:104A1000377174718DF8149000231A461946306C62
:104A200000E001E004F09AFD05F0C4F9024600231D
:104A300001212846009405F045FC012802D08FA0F2
:104A400000F0C2FC012003F0FBFF33E0642205A963
:104A5000B06D04F09DFE01280BD105F0ABF9049078
:104A60009DF81410042947D005294ED04BA000F022
:104A7000ABFC05F09FF90499401A40451AD964210E
:104A8000306C04F007FFA8B1F4703471F4718DF844
:104A900014708DF815700023642205A9706D04F060
:104AA0005DFD00231A461946306C04F057FD43A003
:104AB00000F08AFCF0780028C8D103F0E5FA6DB167
:104AC00000231A4603212846009405F0FBFB00232F
:104AD0001A4605212846009405F0F4FB6421306C49
:104AE00004F0D8FEB0B1F470347100231A461946B0
:104AF000306C04F033FD0FE09DF8150004A902F0BE
:104B000057F8012003F09CFFB3E79DF8150003F070
:104B100097FFAEE7F4703471FCF728F908B1FEF79F
:104B200087FD5FA000F050FC4FF0FF315646DAF8E9
:104B30006C0004F0A5FEF36D98427FF412AF33E6EB
:104B400028000020C0D40100998C0208426C696ED4
:104B50006B54696D657200004661696C6564207410
:104B60006F2063726561746520626C696E6B20747E
:104B7000696D65720A000000D00100204661696C11
:104B8000656420746F20737461727420626C696E46
:104B90006B2074696D65720A00000000556E6B6EC3
:104BA0006F776E206D65737361676520636F6D6DE0
:104BB000616E643A2025640A000000004175746F3C
:104BC0002D736176696E672064756520746F206946
:104BD0006E61637469766974790A0000476C6F626C
:104BE000616C207661726961626C657320757064B6
:104BF000617465643A207365745F72756E3D2564F7
:104C00002C207365745F74696D653D25640A00002E
:104C10005761726E696E673A204661696C656420FF
:104C2000746F2074616B65206D7574657820666F94
:104C300072207661726961626C652075706461745E
:104C4000650A0000698C0208416C61726D426C69F2
:104C50006E6B54696D6572004661696C65642074A1
:104C60006F2063726561746520616C61726D206292
:104C70006C696E6B2074696D65720A004661696CBF
:104C8000656420746F20737461727420616C61724A
:104C90006D20626C696E6B2074696D65720A00002C
:104CA000416C61726D20736574206D6F6465206561
:104CB0007869746564207375636365737366756C76
:104CC0006C792E0A0000000010B5502080F3118886
:104CD000BFF34F8FBFF36F8F05F078F818B1044919
:104CE0004FF080500860002080F3118810BD000054
:104CF00004ED00E010B51148016841F47001016055
:104D00000F48016841F0010101600D4A002108329D
:104D1000116002680B4B1A400260031D0A4A1A60B8
:104D2000026822F48022026005480C300160FFF71F
:104D3000F5FC024905488039086010BD88ED00E0A7
:104D400000380240FFFFF6FE103000240000020889
:104D500038B501218C07204600F09FF8002814D0B8
:104D60000020009009486946006D04F0D3FC012141
:104D7000204600F083F80098002806D00449A010CF
:104D80000860BFF34F8FBFF36F8F38BD1000002056
:104D900004ED00E07FB501210846FFF73DFC40F23D
:104DA000F310029042F2CF00ADF804000024ADF8F9
:104DB0000C40ADF806404FF0804501A9284600F0B0
:104DC000BFF801221146284600F073F81C218DF827
:104DD000001007218DF801108DF8024001218DF897
:104DE00003106846FEF7D0FB0121284600F049F881
:104DF0007FBD000010B50A4C0121204600F04DF89F
:104E000000280BD00748012181700189491C0181CC
:104E10002046BDE81040012100F030B810BD000070
:104E200000040040BC0100201FB501210220FFF753
:104E3000F3FB1049642088716320029042F2CF0096
:104E4000ADF804000024ADF80C40ADF8064001A90F
:104E5000094800F075F81D208DF800000D208DF830
:104E600001008DF8024001208DF803006846FEF72E
:104E70008BFB1FBDBC01002000040040C943018220
:104E80007047002904D0018841F00101018070477A
:104E9000018821F001010180704702460020138A39
:104EA0000B4092890A40002B02D0002A00D001203A
:104EB0007047002A03D082890A4382817047828921
:104EC0008A4382817047000070B5028C22F48052C0
:104ED0000284058C8288838B23F4E04323F440769C
:104EE0000C884FF6FF7303EA0424344325F400557D
:104EF0008E8903EA06362E434D8803EA053535438D
:104F0000084EB04202D0084EB04205D122F480468D
:104F10000A8A03EA821232438280848389680164A8
:104F2000058470BD000001400004014000210180A3
:104F30004180818081608181C1810182418270478D
:104F400030B50288164C174DA0420DD0A8420BD0A8
:104F5000B0F1804F08D0144B984205D0134B9842C3
:104F600002D0134B984203D122F070034A881A43AF
:104F7000104B984206D0104B984203D022F4407355
:104F80000A891A4302804A68C2620A880285A042DE
:104F900001D0A84201D1897A01860121818230BDE8
:104FA00000000140000401400004004000080040EF
:104FB000000C0040001000400014004038B50020F4
:104FC0000090194C0821204600F0ACF8251D48B986
:104FD0000221204600F0A6F820B90421204600F066
:104FE000A1F818B120882888FFF71AFA40F2244166
:104FF000204600F09EF850B1208828880B49486F61
:1050000028B1C97A19B16A46002103F0E5FF00987A
:10501000002807D006494FF080500860BFF34F8F3B
:10502000BFF36F8F38BD0000004400401000002027
:1050300004ED00E0002904D0818941F40051818110
:105040007047818921F400518181704770B586B025
:1050500001210846FFF7D2FA01214804FFF7DCFAE4
:105060000420049002258DF814508DF8155000246A
:105070008DF8164001208DF81700234E04A9304604
:10508000FDF764FD082104918DF814508DF8174048
:1050900004A93046FDF75AFD072202213046FDF7EC
:1050A00093FD072203213046FDF78EFD4FF4E130DA
:1050B0000090ADF80440ADF80640ADF80840ADF8FA
:1050C0000C400C20ADF80A00104C6946204600F058
:1050D0006BF800F0C7F8012240F22441204600F0AE
:1050E00048F801226021204600F043F801224021C7
:1050F000204600F00DF801212046FFF79BFFFEF748
:1051000022FA06B070BD00000000024000440040DA
:10511000002A03D0828A0A4382827047828A8A43A5
:10512000828270470246002012880A4200D0012085
:10513000704770B5002440F66A12C1F3421301F0C3
:105140001F05012606FA05F2012B0CD0022B0DD00B
:10515000838A1340090A8E40008830400BB100B1A9
:105160000124204670BD83891340F3E7038A13406E
:10517000F0E710B540F66A13C1F3421301F01F04C3
:105180000121A140012B07D0022B07D014303AB1E6
:1051900002680A43026010BD0C30F8E71030F6E7F1
:1051A00002688A43026010BD7FB504460D46208A1E
:1051B00020F44051E88808432082A08941F20C6124
:1051C0008843A9882A8911436A8902431143A1812E
:1051D000A08A20F44071A8890843A0826846FFF79E
:1051E00037FA1E48844202D01D48844201D10398F8
:1051F00000E00298A189090408D500EBC00101EB89
:10520000001029684900B0FBF1F007E000EBC00195
:1052100001EB001029688900B0FBF1F06422B0FBBB
:10522000F2F109010B096FF018056B4300EB8300E5
:10523000A3891D044FF0320307D503EBC000B0FB78
:10524000F2F000F00700084306E003EB0010B0FBAB
:10525000F2F000F00F00084320817FBD00100140F4
:105260000014014010B590B001214805FFF7C6F9C0
:10527000254C00212046FCF7CFFC2046FCF787FD9B
:105280000028FAD12046FCF7D3FC01A8FCF7FEFD6C
:105290004FF0006001901D4802901D4803900021CE
:1052A00004914FF40060059006914010079008911A
:1052B000099180100A9040020B900C910D910E9173
:1052C0000F9101A92046FCF7B7FD12492046FCF7D3
:1052D00077FC012208212046FCF794FD01221021D1
:1052E0002046FCF78FFD012204212046FCF78AFDB1
:1052F000012202212046FCF785FD01212046FCF712
:105300008BFC10B010BD00008860024004440040D7
:1053100088AA0020400F0020C1F308018180704757
:10532000FEE7000010B50548FCF738FDC0F5006049
:1053300080B2B0F5006F00D3002010BD886002403D
:105340002DE9F04106460F4690460024002E10D06D
:105350007FB1B8F1000F0CD0FFF7E4FF33884FF4B2
:10536000006C634500D30023984205D3C01A85B270
:1053700006E00020BDE8F081C3F50061084485B275
:10538000454500D9454609480AE019465B1C425C80
:105390002146641C9BB2A4B27A54634500D3002317
:1053A000AC42F2D333802046E4E7000088AA002014
:1053B00010B504462046FFF7AFFF80212046FFF7D7
:1053C000B1FE0028F9D010BD0FB4054B10B503A9EC
:1053D000044A029800F058FA10BC5DF814FB000073
:1053E0003D680208C80100200FB4084B10B504A99D
:1053F00002AA039800F048FA044602A9002000F02F
:10540000DAFD204610BC5DF814FB0000B75F02080F
:105410004100080218BF04200A0E18BF40F0010026
:105420004FF07F4232EA010108BF40F0020001283C
:1054300008BF05207047000010EE100A10B510EEEE
:10544000901A4FF0684202EB40032DED028BB3F14E
:10545000654F3CBF02EB4102B2F1654F7CD200BF09
:10546000C0F3C753C1F3C7529A1A1B2A09DD10F0C3
:10547000004F14BF9FED6E0A9FED6E0ABDEC028BCC
:1054800010BD12F11A0F1BDA11F0004F09D010F005
:10549000004F0CBF9FED680A9FED680ABDEC028BC0
:1054A00010BD80EE208A18EE100AFFF7B1FF042825
:1054B00008BF00F009F9B0EE480ABDEC028B10BD40
:1054C0004200B2EB410F37D910F0004F19BFDFEDAA
:1054D0005C1A9FED5C1ADFED5C1A9FED5C1AB0EE72
:1054E000602A0A46F1EE400A80F00041B0EE420A1E
:1054F00010460A1A5200B2F1807F34D2484010F0B0
:10550000004FDFED532A9FED533A1DBFBEEE002A38
:1055100071EEE21A31EE431AB6EE002A04BF71EEC4
:10552000A21A31EE031AF0EE402A42EE602A40EE53
:10553000020A82EEA02A18E011F0004F04BF9FED8E
:10554000461AF0EE411AD4D010F0004F1CBFDFED28
:10555000431A9FED431A00E026E004BFDFED411A35
:105560009FED411AC5E780EE202A22EE020ADFED08
:105570003F0ADFED3F2ABDEC028B40EE202ADFED33
:105580003D0A40EE220ADFED3C2A40EE202ADFED04
:105590003B0A40EE220A22EE000A00EE201A31EE0B
:1055A000020A30EE210A10BD4FF07F42B2EB400FED
:1055B00028BFB2EB410F05D2BDEC028BBDE8104015
:1055C00000F07FB840EA01035B0008BF41F0FF41F3
:1055D0000BD0B2EB400F08BFB2EB410F08D120F067
:1055E000804000EE100A21F0804100EE901A37E76B
:1055F000B2EB400F12BF5FEA410240F0FF4001F002
:1056000000413FF42DAF4A0092EA40033FF528AF36
:10561000002AACBF9FED1A1A9FED1A1A20EE010A5C
:1056200060EE810A10EE100A10EE901A18E70000E2
:10563000DB0FC9BFDB0FC93FDB0F4940DB0F49C0A0
:105640000000C9BF22AAFDB90000C93F22AAFD3946
:105650000060ED3EC30ACE3700000000000049C0E4
:1056600022AA7DBA0000494022AA7D3A2DAD65BD2F
:105670008FB8D53D0FB511BE61C84C3EA8AAAABED1
:105680000000804F0000802F10B52DED028BB1EE91
:10569000C08A18EE100A20F00040C0F1FF40C00F91
:1056A0000AD010EE100A20F00040C0F1FF40C00FF9
:1056B00004BF012000F020F8B0EE480ABDEC028BD8
:1056C00010BD30EE200A70479FED020A20EE000A5E
:1056D000704700000000001002E008C8121F08C157
:1056E000002AFAD170477047002001E001C1121F63
:1056F000002AFBD170470000014908607047000094
:10570000CC0100202DE9FF5F82B00021DDE90430EB
:10571000020DDDF840B0034318D044F61050A2F259
:10572000FF3242431514119801281FD0A5EB0B003E
:10573000401C5FEA000A4FF000064E4FDFF8389138
:10574000B046504615D5CAF1000413E01198012463
:105750004AA3012801D16FEA0B010298119AC0E90E
:105760000031C0E9024206B0BDE8F09FCBF1000075
:10577000DFE704460021404A491842EB0450CDE9D6
:10578000001012E0E00707D032463B46404649464B
:10579000FAF794FE8046894632463B461046194643
:1057A000FAF78CFE06460F466410002CEAD1DDE9BC
:1057B0000401DDE90023BAF1000F06DAFAF77EFEF4
:1057C00042464B46FAF77AFE05E0FAF7E9FE424612
:1057D0004B46FAF7E5FE04460E460022284BFAF740
:1057E000A3FF03D84FF0FF30014607E00022254B0E
:1057F00020463146FAF7BBFDFBF7A5F8102409E077
:10580000002C0ADB0A220023FAF742FD039B303208
:105810001A55641E50EA0102F2D1641C039AC4F1C5
:1058200011031444119A012A03D0012208430DD117
:105830000AE0084304D000204FF0110B119072E7EA
:10584000A3EB0B056D1E0DE05B4504DD4FF0000280
:1058500005F1010504E003DA4FF00002A5F10105AE
:10586000002AECD002981199C0E90231C0E9004544
:1058700079E70000000014400000F03F3000000015
:105880000000F0430000E03F2DE9FF4F95B09B463C
:105890008946064600250FE2252877D100242746B1
:1058A000F84A0121059400E0044316F8013F203B2B
:1058B00001FA03F01042F7D130782A2811D06FF0A6
:1058C0002F033078A0F13002092A16D8059A44F047
:1058D000020402EB820203EB42021044761C0590A4
:1058E000EFE759F8042B0592002A03DA504244F4FA
:1058F0000054059044F00204761C30782E2816D10E
:1059000016F8010F44F004042A280DD06FF02F027E
:105910003078A0F13003092B09D807EB870302EB9D
:105920004303C718761CF3E759F8047B761C3078DC
:105930006C280FD006DC4C2817D068280DD06A28B8
:1059400014D104E0742810D07A280FD10DE044F46B
:1059500000140AE044F4801401E044F44014727826
:10596000824202D104F58014761C761C30786628B9
:105970000BD013DC582877D009DC002875D04528D7
:10598000F6D04628F4D047281AD19DE118E06328C4
:1059900035D0642879D0652812D195E1702873D06C
:1059A00008DC6728F1D069286FD06E280DD06F28E9
:1059B00006D1B5E073282CD0752875D0782874D01E
:1059C0005A46179990476D1C75E1C4F3025002289E
:1059D00009D003280DD0D9F8001004280DD00D608F
:1059E00009F1040967E1D9F80010EA17C1E900528A
:1059F000F6E7D9F800100D80F2E70D70F0E719F81E
:105A0000041B8DF8001000208DF80100EA460120EB
:105A100003E059F804AB4FF0FF3061074FF000018D
:105A200002D40DE008F101018846B9420FDA804541
:105A3000F8DB1AF808100029F4D108E008F1010198
:105A400088468142FADB1AF808100029F6D1059839
:105A50005B46A0EB080721463846179A00F094FAF7
:105A6000284400EB080507E04DE029E10DE01AF8B5
:105A7000010B5A4617999047B8F10108F7D25B46D7
:105A800021463846179A13E142E00A220092C4F3F5
:105A900002524FF0000A022A08D059F804CB032A18
:105AA0004FEAEC710AD00DE029E02AE009F1070184
:105AB00021F00702F2E802C1914609E00FFA8CFCDE
:105AC0004FEAEC71042A03D14FFA8CFC4FEAEC71D7
:105AD000002907DA0A460021DCF1000C61EB020123
