:020000040804EE
:1000000058AD00206D020208A12D0208E529020862
:10001000E92C02088B1402081147020800000000B6
:10002000000000000000000000000000AD01020818
:10003000E51B02080000000009020208B94102089D
:100040008702020887020208870202088702020864
:100050008702020887020208991D0208451E02084D
:100060008702020887020208911E0208870202081E
:100070008702020887020208870202088702020834
:1000800087020208870202088702020800000000B7
:1000900000000000000000000000000087020208CD
:1000A0008702020887020208870202088702020804
:1000B00041420208E542020887020208870202085C
:1000C00087020208870202088702020887020208E4
:1000D0008702020887020208AD44020800000000FF
:1000E000FD1D0208870202088702020800000000C6
:1000F000000000000000000000000000870202086D
:100100000000000087020208870202088702020836
:1001100000000000000000000000000000000000DF
:10012000A514020887020208870202088702020853
:10013000870202080000000000000000000000002C
:10014000000000000000000000000000870202081C
:100150008702020887020208870202088702020853
:100160008702020887020208000000000000000069
:10017000000000000000000000000000000000007F
:1001800000000000870202080000000000000000DC
:100190008702020887020208DFF80CD000F0E0FBBB
:1001A00000480047A164020858AD00202C4B196894
:1001B0000868B0E8F04F80F30988BFF36F8F4FF005
:1001C000000080F3118870470000000008480068B4
:1001D000006880F308884FF0000080F3148862B64E
:1001E00061B6BFF34F8FBFF36F8F00DF00BF00BF5B
:1001F00008ED00E0DFF80C00016841F470010160D7
:10020000704700BF88ED00E0EFF30980BFF36F8F08
:10021000134B1A681EF0100F08BF20ED108A20E95A
:10022000F04F106009B44FF0BF0080F31188BFF3A6
:100230004F8FBFF36F8F08F097F84FF0000080F3F7
:10024000118809BC19680868B0E8F04F1EF0100F5B
:1002500008BFB0EC108A80F30988BFF36F8F704736
:10026000E4000020EFF30580704700000648804757
:1002700006480047FEE7FEE7FEE7FEE7FEE7FEE78B
:10028000FEE7FEE7FEE7FEE7E54102089901020806
:1002900040EA01039B0703D009E008C9121F08C008
:1002A000042AFAD203E011F8013B00F8013B521E88
:1002B000F9D27047D2B201E000F8012B491EFBD2FF
:1002C00070470022F6E710B513460A460446194661
:1002D000FFF7F0FF204610BD10B5002200E0521CD1
:1002E000835C8C5CA34201D1002BF8D1D8B2E1B27F
:1002F000401A10BD2DE9FE4F804681EA0300C00F71
:100300000C46009021F0004123F00045B8EB0200BC
:10031000A94105D24046214690461C460B4602465E
:1003200023F00040104347D0270DC7F30A00C3F362
:100330000A510290401A019040286BDAC3F313006F
:1003400040F4801B0098924620B10023D2EB030AB0
:1003500063EB0B0B01985946C0F14002504600F088
:1003600022FA06460D4650465946019A00F03AFADE
:1003700010EB08006141002487EA115284EAE77318
:100380001A4340D0009A62B3019A012A4FEA0752F9
:1003900015DC001B61EB02014FF0004202EA07523C
:1003A000CDE90042001C41F5801132462B4600F099
:1003B00071FA03B0BDE8F08F40462146F9E7001B13
:1003C00061EB0201001C41F5801300185B4120180D
:1003D000A2F5001747EB030140EAD570B6196D414D
:1003E00011E06D084FEA360645EAC0754FEA07523C
:1003F000001B61EB0201001C41F5801149084FEA26
:1004000030000019514132462B4603B0BDE8F04F91
:1004100000F031BA0098012240000023D0EB020224
:1004200063EBE073009821464FEAE074B8EB0000FC
:1004300061EB0401E9E783F000435BE781F00041F1
:1004400058E72DE9FE4F81EA030404F0004421F04F
:10045000004100944FF0000B23F0004350EA0104E8
:100460005ED052EA03045BD0C3F30A54C1F30A55C9
:100470002C44A4F2F3340194A0FB0254C1F3130101
:1004800041F48011C3F3130343F4801301FB0244CE
:1004900000FB034E840A970A44EA815447EA8357D3
:1004A000A4FB076802958D0A05FB07854FEA932C8C
:1004B00004FB0C542705029D4FEA065847EA1637FD
:1004C000B5EB08056EEB070C870E920E47EA811715
:1004D00042EA8312A7FB0201B6EB0B0164EB0004B6
:1004E0002B0D43EA0C335E1844EB1C50DA465146A0
:1004F000E7FB0201C5F313044FEA0B3343EA14533D
:100500004FEA0432019C43EA0603A4F10C0402946E
:10051000009CCDE900B400F0BDF903B0BDE8F08F58
:1005200000200146F9E72DE9F04D81EA030404F0CB
:10053000004B21F0004514464FF0000A23F0004123
:1005400050EA050220D054EA01021DD0C5F30A5733
:100550000246C5F31303C1F31300C1F30A5640F476
:10056000801543F48013A7EB0608101BD64608F24B
:10057000FD3873EB050002D308F1010801E0921881
:100580005B41B8F1000F03DA00200146BDE8F08DB1
:1005900000204FF48011064684460EE0171B73EBD3
:1005A000050705D3121B63EB050306434CEA010C58
:1005B00049084FEA300092185B4150EA0107EDD13B
:1005C00052EA030012D082EA040083EA05010843DC
:1005D00005D0101BAB4106D20122002306E0002209
:1005E0004FF0004302E06FF0010253101AEB0600D7
:1005F0004CEB085110EB0A0041EB0B01BDE8F04D4C
:1006000000F039B90EB5C10F80EAE0700844CA079E
:10061000002140F233438DE80E000A460B4600F0FD
:1006200039F903B000BD0EB540F23341029100210B
:10063000CDE900110A460B4600F02CF903B000BDCD
:1006400070B5C1F30A5201F000450024C1F3130153
:1006500040F2FF3341F480119A4201DA002070BD6C
:1006600040F233439A42A2F2334203DC524200F09A
:10067000A9F800E090402C43F1D0404270BD00004A
:1006800030B5041E71F1000404DB4FF00044404219
:1006900064EB0101141E73F1000405DB1C464FF0EE
:1006A0000043524263EB04038B4208BF824230BDD9
:1006B00030B5041E71F1000404DB4FF000444042E9
:1006C00064EB0101141E73F1000405DB1C464FF0BE
:1006D0000043524263EB0403994208BF904230BD8D
:1006E00001F0004330B421F0004150EA010206D08D
:1006F0000A0DA2F56072C1F31301002A02DC30BCBE
:1007000000207047440F44EAC104C100E01830BC27
:1007100000EBC25000F078B830B50B46014600201F
:100720002022012409E021FA02F59D4205D303FAB3
:1007300002F5491B04FA02F52844151EA2F1010234
:10074000F1DC30BD2DE9F05F0546002092469B4666
:1007500088460646814640241BE0284641464746D7
:10076000224600F02FF853465A46C01A914110D342
:1007700011461846224600F016F82D1A67EB0108BC
:100780004F4622460120002100F00DF817EB00092A
:100790004E41201EA4F10104DFDC484631462A46C2
:1007A0004346BDE8F09F202A04DB203A00FA02F11C
:1007B000002070479140C2F1200320FA03F319434F
:1007C00090407047202A04DB203A21FA02F00021F1
:1007D000704721FA02F3D040C2F120029140084351
:1007E00019467047202A06DBCB17203A41FA02F05F
:1007F00043EAE07306E041FA02F3D040C2F120027E
:1008000091400843194670470029A8BF7047401C13
:10081000490008BF20F00100704710B4B0FA80FC16
:1008200000FA0CF050EA010404BF10BC704749B153
:10083000CCF1200421FA04F411FA0CF118BF0121C3
:1008400021430843A3EB0C01CB1D4FEA00614FEAA3
:10085000102042BF002010BC704700EBC350104472
:100860000029A4BF10BC7047401C490008BF20F0FD
:10087000010010BC704710B5141E73F1000408DAB3
:10088000401C41F1000192185B411A4301D120F054
:10089000010010BD2DE9F04D92469B4611B1B1FA11
:1008A00081F202E0B0FA80F220329046FFF77BFF3F
:1008B00004460F4640EA0A0041EA0B0153465A46F5
:1008C000084313D0114653EA010019D0C8F1400281
:1008D0005046FFF777FF05460E46504659464246BA
:1008E000FFF761FF084305D0012004E020463946A8
:1008F000BDE8F08D0020054346EAE0762C433743FF
:100900000A986305E40AA0EB08000022FD0A44EA05
:1009100047540A3002D500200146E9E701051019C5
:100920006941DDE9084500196941BDE8F04DA2E7DC
:10093000C1F30A52C1F3130140F2FF3341F48011B5
:100940009A4202DA00200146704740F233439A424D
:10095000A2F2334202DC5242FFF734BFFFF723BF5B
:10096000064C074D06E0E06840F0010394E80700FC
:1009700098471034AC42F6D3FFF712FC50AA020895
:1009800070AA020870B58C1810F8015B15F0070307
:1009900001D110F8013B2A1106D110F8012B03E018
:1009A00010F8016B01F8016B5B1EF9D12B0705D420
:1009B0000023521E0DD401F8013BFAE710F8013B69
:1009C000CB1A921C03E013F8015B01F8015B521E85
:1009D000F9D5A142D8D3002070BD000010B58CB06D
:1009E0000121080203F0AEF80121084603F08EF859
:1009F00003208DF82C0002200A9000248DF82F404F
:100A00000AA9214801F00CFD04F074FC00F0FAF88A
:100A100002F01AFA06944FF4804008904FF4706088
:100A200009904FF48030079006A800F03FF88DF849
:100A3000054004944FF0106003904FF080500290F6
:100A400001208DF8140000948DF804400F4C694685
:100A5000204600F057F80121204600F047F8012316
:100A60001A461946204600F073F80121204600F08E
:100A700031F80121204600F00DF80121044803F06F
:100A800078FC0CB010BD00000000024000200140C6
:100A900000080040002904D0816841F00101816014
:100AA0007047816821F001018160704710B5074CE3
:100AB000226807490A40D0E900131943D0E90230FF
:100AC000034319431143216010BD0000042301407A
:100AD000E030FCFF002904D0816841F4807181601E
:100AE0007047816821F4807181607047002904D0CB
:100AF000816841F4007181607047816821F4007160
:100B00008160704730B542680F4B1A400C790B6812
:100B100042EA04221343436083680C4A1340D1E93C
:100B2000034222434D798C6844EA450422431A4328
:100B30008260C26A22F47002097D491EC9B242EA8B
:100B40000151C16230BD0000FFFEFFFCFDF7FFC098
:100B500070B5072609290AD9C568A1F10A0404EB72
:100B60004404A640B543A3401D43C56007E00569A2
:100B700001EB4104A640B543A3401D4305611F237B
:100B8000072A09D2446B521E02EB820293409C4317
:100B900091400C43446370BD0D2A09D2046BD21FEF
:100BA00002EB820293409C4391400C43046370BD6E
:100BB000C46A0D3A02EB820293409C4391400C437D
:100BC000C46270BD7CB50121022002F09FFF4FF48A
:100BD0008054009401208DF8040000208DF8060058
:100BE00002228DF805208DF80700054D694628463C
:100BF00001F016FC2146284601F06AFC7CBD00008D
:100C00000004024010B590B00121880502F07EFF7B
:100C100001A800F07BFD0020019004901B49039186
:100C20004FF4806107911E2105914FF480710A9164
:100C3000174902910690C914089189000991090188
:100C40000B910C90134C01A9204600F035FD0F4983
:100C500000223C31204600F0D7FC0121204600F064
:100C6000C7FC0D49204600F08BFC012210212046D4
:100C700000F008FD01220821204600F003FD0121BB
:100C8000204600F0A9FC10B010BD0000B4A4002064
:100C90004C200140106402403D00801000B591B02E
:100CA000114901AA002051F8203042F82030401CA0
:100CB0001028F8D30D490198884202D102980128E2
:100CC00002D0002011B000BD09490398884201D02C
:100CD0000020F7E70648401C03900020079001A879
:100CE00000F014F8C0B2EDE700000108315754429B
:100CF00002005AA510B50221202001F0E3F90928CD
:100D000001D0002010BD012010BD000070B50646C6
:100D100001F088FAF32001F0B7F9FFF7EBFF68B1B3
:100D200000240C4D56F8241005EB840001F05CFA09
:100D3000092807D001F034FA002070BD01F030FA24
:100D4000002070BD641C102CECD301F029FA0120A6
:100D500070BD00000000010800F00F01000900EB69
:100D6000800001EB4000C0B2704710B5B621E02012
:100D700000F080FB08B1012010BD0A2007F0BAF98D
:100D800000F0DEFA0121F22000F074FB9021F52042
:100D900000F070FB6C21F42000F06CFB002010BD13
:100DA0002DE9F74F82462DED108B84B016466F214A
:100DB000F42000F05FFB082202A9F72000F054FBAA
:100DC0009FEDFBDB9FEDFCEB9FEDFDCBFE4C28B1D7
:100DD000012004B0BDEC108BBDE8FE8F9DF808002B
:100DE0009DF80910000340EA01109DF80A1040EA3E
:100DF000111B9DF80B009DF80C10000340EA011038
:100E00009DF80D1040EA11179DF80F009DF80E1087
:100E100040EA01200190B4F90200FFF7F3FB41EC36
:100E2000180B2088FFF7FFFB894605469FEDE71B5F
:100E300053EC112BFFF705FB41EC190B3846FFF77C
:100E4000E1FB8846074653EC1D2BFFF7FAFA53ECFB
:100E5000192BFFF7F0FA53EC182BFFF7F2FA41ECDD
:100E6000180BB4F90400FFF7CDFB41EC190B49EC6A
:100E7000105B9FEDD8BB51EC100B53EC1B2BFFF715
:100E8000E0FA41EC1A0B48EC107B9FEDD4FB51ECDF
:100E9000100B53EC1F2BFFF7D4FA53EC1A2BFFF770
:100EA000CAFA49EC105B41EC1A0B53EC1B2B51ECCA
:100EB000100BFFF7C6FA48EC107B41EC1B0B53EC10
:100EC0001F2B51EC100BFFF7BCFA53EC1B2BFFF759
:100ED000B2FA53EC1A2BFFF7B4FA53EC192BFFF7C5
:100EE000B0FA41EC100B51EC180B53EC102BFFF740
:100EF00001FA0F460546FFF7A3FB606247EC105B63
:100F00009FEDB81B51EC100B53EC112BFFF70BFBB3
:100F100041EC100B51EC100BFFF7E2FBCAF800009C
:100F2000606AFFF76FFB9FEDB11B53EC112BFFF7CE
:100F300088FA9FEDB01B53EC112BFFF77CFA41ECC4
:100F4000180BB4F91000FFF75DFB41EC190B53ECE3
:100F5000182B51EC180BFFF774FA53EC192BFFF711
:100F600070FA53EC1E2BFFF76CFA41EC190BB4F935
:100F70000E00FFF747FB53EC182BFFF762FA9FEDCB
:100F80009F1B53EC112BFFF75CFA53EC192BFFF767
:100F9000B1F941EC1A0BB4F90C00FFF733FB9FEDEC
:100FA000991B53EC112BFFF74CFA41EC190B9FEDF9
:100FB000970B51EC1A0B53EC102BFFF742FA53EC42
:100FC000192BFFF797F941EC1F0BB4F90800FFF755
:100FD00019FB53EC182BFFF734FA41EC190BB4F959
:100FE0000A00FFF70FFB53EC182BFFF72AFA53EC1C
:100FF000182BFFF726FA53EC1C2BFFF722FA53ECC1
:10100000192BFFF777F953EC1C2BFFF71AFA41EC79
:10101000190BE088FFF707FB41EC180B53EC1E2B74
:1010200051EC190BFFF70DFA9FED7AAB53EC1A2B2D
:10103000FFF760F953EC182BFFF703FA41EC190B9B
:101040009FED76BB51EC190B53EC1B2BFFF718FBF4
:1010500004D19FED740A86ED000A65E05846FFF75B
:10106000D1FA9FED711B53EC112BFFF7E7F941EC1F
:10107000180B9FED6F0B51EC1F0B53EC102BFFF770
:10108000E0F953EC182BFFF7D9F99FED6B1B53ECEC
:10109000112BFFF7D6F953EC192BFFF744FA41EC6B
:1010A000190BB4F91600FFF7ADFA53EC192BFFF743
:1010B000C8F953EC192BFFF7C4F99FED611B53ECF2
:1010C000112BFFF7BEF941EC180BB4F91400FFF730
:1010D00099FA53EC192BFFF7B4F953EC1E2BFFF7D9
:1010E000B0F941EC1F0BB4F91200FFF78BFA41EC99
:1010F0001E0B53EC1F2B51EC180BFFF7FBF853ECB6
:101100001E2BFFF7F7F89FED501B53EC112BFFF749
:1011100098F953EC192BFFF7EDF841EC100B51EC5B
:10112000100BFFF7DDFA3060606AFFF76BFA9FED96
:10113000481B53EC112BFFF77EF941EC190B207F74
:10114000FFF771FA9FED44EB53EC1E2BFFF779F993
:1011500053EC192BFFF775F953EC1A2BFFF7CAF86C
:1011600041EC180B94F92200FFF74CFA53EC1E2BBC
:10117000FFF767F953EC192BFFF763F953EC182BC2
:10118000FFF75FF953EC1A2BFFF7B4F841EC180B9B
:10119000B4F91A00FFF736FA9FED311B53EC112B0F
:1011A000FFF74FF953EC182BFFF74BF95CE0000009
:1011B000000000000000103F000000000000003FA1
:1011C000000000000000C03E2CA500200000000030
:1011D0000000503F000000000000203F0000000021
:1011E0000000E03E000000000000B44000000000ED
:1011F0000000E03F000000000040EF400000000061
:1012000000000040000000000000F040000000006E
:101210000000D03F000000000000F03F0000000090
:10122000000000000000000000000000000030414D
:10123000000000000000303F00000000006AB840DD
:10124000000000000000003E000000000000B03F71
:101250000000000000C0F240000000000000503E0E
:10126000000000000000F03E41EC180BB4F9200033
:10127000FFF7C8F953EC1D2BFFF7E3F853EC192BDC
:10128000FFF7DFF841EC190BB4F91E00FFF7BAF9CC
:101290009FED271B53EC112BFFF7D3F853EC192BC1
:1012A000FFF728F841EC190B0198FFF7ABF953EC65
:1012B000192BFFF7C0F853EC182BFFF7C2F841ECDD
:1012C000190B207EFFF7AFF953EC192BFFF7B9F894
:1012D00053EC1C2BFFF7B5F853EC1A2BFFF7AEF8C5
:1012E00053EC192BFFF7ADF841EC180B9FED129B57
:1012F00051EC180B53EC192BFFF7DAF904D2B0EECE
:10130000498AF0EE698A0AE053EC1B2B51EC180B6A
:10131000FFF7B6F903D2B0EE4B8AF0EE6B8A51ECD0
:10132000180BFFF7DDF915990860002051E5000062
:101330000000000000005040000000000000594084
:1013400010B588B0182201A9882000F08DF89DF80A
:1013500004009DF805103E4C40EA012020809DF8D5
:1013600006009DF8071040EA012060809DF8080003
:101370009DF8091040EA0120A0809DF80A009DF820
:101380000B1040EA0120E0809DF80C009DF80D1044
:1013900040EA012020819DF80E009DF80F1040EAE0
:1013A000012060819DF810009DF8111040EA012095
:1013B000A0819DF812009DF8131040EA0120E08101
:1013C0009DF814009DF8151040EA012020829DF838
:1013D00016009DF8171040EA012060829DF8180061
:1013E0009DF8191040EA0120A0829DF81A009DF88E
:1013F0001B1040EA0120E08201226946A12000F092
:1014000033F89DF800002076072201A9E12000F0C2
:101410002BF89DF804009DF8051040EA0120608338
:101420009DF8060020779DF808009DF807200146EA
:1014300062F31F11E1839DF80910090141EA1010C0
:1014400020849DF80A0084F8220008B010BD000036
:101450002CA5002010B56C21F42000F00BF808B189
:10146000012010BD002010BD13460A46014676201B
:1014700004F07ABB08B58DF800008DF80110022247
:101480006946EC2004F076FC08BDFEE70A21B0FBBB
:10149000F1F2B0FBF1F301FB130000EB0210C0B25C
:1014A000704700002DE9FE4F002502950F26DFF85A
:1014B000ACB02B4F5946384600F0BAF8294CDFF84B
:1014C000A880DFF8A8A00DF10809A0B15946384658
:1014D00000F06CF8384600F0A4F8A8B32448206067
:1014E000A8F80060CDE9005901231A460021DAF876
:1014F000040007F0A7FA1F4E3846314600F098F86E
:10150000A8B13146384600F051F8384600F089F865
:10151000F8B1194820600F20A8F80000CDE9005963
:1015200001231A460021DAF8040007F08BFA02982A
:10153000002807D011494FF080500860BFF34F8F4B
:10154000BFF36F8FBDE8FE8FFFE70B481E382060AA
:10155000C6E707481E302060DDE70000104000109D
:10156000106402404401002048010020A400002033
:10157000F0A4002020800010D2A4002004ED00E0A0
:10158000074A904201D2074801E005481038064A50
:101590008B0001EA020101D5C1607047816070478C
:1015A00010640240006002407D0F7D0F074A9042A8
:1015B00001D2074801E005481038064A8B0001EACD
:1015C000020101D5C160704781607047106402401C
:1015D000006002407D0F7D0F002904D0016841F0BA
:1015E000010101607047016821F00101016070474D
:1015F000002904D0016841F480210160704701682E
:1016000021F4802101607047002A04D0026842F46E
:101610000022026003E0026822F4002202600161FD
:101620007047014600200968090300D50120704772
:1016300030B500240F4A904201D20F4A01E00D4A12
:10164000103A0E4B194205D01E2303EAD125036838
:101650002B4002E0406900F08003880001D550680B
:1016600000E01068064A1040084201D003B101248E
:10167000204630BD10640240006002403C0F3C0F29
:101680007D0F7D0F0B0609D522B1436943F080031E
:10169000436103E0436923F080034361802905D05F
:1016A00001F01E011AB102680A4302607047026825
:1016B0008A4302607047000030B50368124A134045
:1016C000CC680A682243D1E905452C432243CC6902
:1016D00022430C6A22434C6A22438C6A22434C6B9D
:1016E00022438C6B22431A430260426922F00703B3
:1016F000D1E90B2422431A4342610A6942604A68D5
:1017000082608968C16030BD3F801CF000210160AB
:1017100041608160C160016141618161C1610162BB
:1017200041628162C162016341638163704738B580
:10173000044669460F2001F020FA08B1012038BDA7
:10174000012C03D0022C07D0022038BD9DF80000E8
:1017500020F00100009004E09DF8000020F002005D
:1017600000909DF800100F2001F00DFA08B1032041
:1017700038BD002038BD38B504460D4669460E20F8
:1017800001F0FBF908B1012038BD012C03D0022C77
:101790000ED0022038BD2DB19DF8000040F00100B0
:1017A000009011E09DF8000020F0010000900BE097
:1017B0002DB19DF8000040F00200009004E09DF87B
:1017C000000020F0020000909DF8000040F00401AD
:1017D00000910E2001F0D7F908B1032038BD002098
:1017E00038BD70B50E4615461C46FFF74FFE00F09B
:1017F0007F01072001F0C7F908B1012070BD304614
:10180000FFF744FE00F07F01082001F0BCF908B1A9
:10181000022070BD2846FFF739FE00F07F01092045
:1018200001F0B1F908B1032070BD2046FFF72EFE8C
:1018300040F080010A2001F0A6F908B1042070BD33
:10184000002070BD10B50C46FFF720FE00F07F01B0
:10185000082001F098F908B1012010BD2046FFF7DB
:1018600015FE00F07F01092001F08DF908B102207A
:1018700010BD0120FFF70AFE40F080010A2001F0B0
:1018800082F908B1032010BD002010BD70B50446D8
:101890000A252078B0FBF5F105FB1101B0FBF5F04E
:1018A00001EB0010C1B22170062001F06CF920B1EB
:1018B000BDE870402DA002F039BF6078B0FBF5F1B3
:1018C00005FB1101B0FBF5F001EB0010C1B2617036
:1018D000052001F058F920B1BDE8704028A002F0C1
:1018E00025BFA078B0FBF5F105FB1101B0FBF5F0C9
:1018F00001EB0010C1B2A170042001F044F920B145
:10190000BDE8704023A002F011BFE078B0FBF5F114
:1019100005FB1101B0FBF5F001EB0010C1B2E17065
:10192000022001F030F900281FD12079B0FBF5F139
:1019300005FB1101B0FBF5F001EB0010C1B2217104
:10194000012001F020F900280FD16079B0FBF5F1FA
:1019500005FB1101B0FBF5F001EB0010C1B26171A4
:10196000BDE87040002001F00EB970BD73657420B1
:1019700079656172206572726F720D0A0000000055
:10198000736574206D6F6E7468206572726F720D6E
:101990000A00000073657420646179206572726FBB
:1019A000720D0A0038B504460020009069460620F2
:1019B00001F0E3F808B1012038BD9DF80000FFF701
:1019C000CBF900F5FA60E0806946052001F0D5F812
:1019D00008B1022038BD9DF80000FFF7BDF9207165
:1019E0006946042001F0C9F808B1032038BD9DF80C
:1019F0000000FFF7B1F9E0706946032001F0BDF87F
:101A000008B1042038BD9DF80000FFF7A5F9207249
:101A1000002038BD38B504460020009069460220F9
:101A200001F0ABF808B1012038BD9DF80000FFF7C8
:101A300093F9A0706946012001F09FF808B10220D7
:101A400038BD9DF80000FFF787F9607069460020F7
:101A500001F093F808B1032038BD9DF80000FFF7AE
:101A60007BF92070002038BD2DE9F0410D46164667
:101A70001C460C2D00D90125611E072900D3012425
:101A800006B901260A27B0FBF7F107FB1101B0FBED
:101A9000F7F001EB0010C1B2062001F074F828B194
:101AA0001EA002F043FE0120BDE8F081B5FBF7F077
:101AB00007FB1050B5FBF7F100EB0110C1B2052098
:101AC00001F061F820B11AA002F030FE0220EBE72D
:101AD000B6FBF7F007FB1060B6FBF7F100EB011067
:101AE000C1B2042001F04FF820B116A002F01EFE92
:101AF0000320D9E7B4FBF7F007FB1040B4FBF7F184
:101B000000EB0110C1B2032001F03DF820B111A09B
:101B100002F00CFE0420C7E70020C5E773657420BF
:101B200079656172206572726F720D0A00000000A3
:101B3000736574206D6F6E7468206572726F720DBC
:101B40000A00000073657420646179206572726F09
:101B5000720D0A00736574206461794F665765657C
:101B60006B206572726F720D0A00000070B50C4632
:101B70001546172800D900203B2C00D901243B2D05
:101B800000D901250A26B0FBF6F106FB1101B0FBD6
:101B9000F6F001EB0010C1B2022000F0F4FF08B132
:101BA000012070BDB4FBF6F006FB1040B4FBF6F16B
:101BB00000EB0110C1B2012000F0E5FF08B10220E6
:101BC00070BDB5FBF6F006FB1050B5FBF6F100EB6F
:101BD0000110C1B2002000F0D6FF08B1032070BD93
:101BE000002070BD704700003EB50121084601F09D
:101BF0009BFF4FF6FF7001900B480C490068B0FB4B
:101C0000F1F0401EADF800000020ADF80800ADF87E
:101C100002004FF080446946204602F009FC012191
:101C2000204602F0A6FB3EBD0000002040420F000F
:101C300070B5044606F078F90E4D287818B9FFF70C
:101C4000D3FF012028704FF08040416A89B2821092
:101C5000094B06E0322C04D91A60BFF34F8FBFF353
:101C60006F8F456A6D1AA542F4D3BDE8704006F047
:101C700069B90000B400002004ED00E070B505462D
:101C800000244FF47A7604E03046FFF7D1FF641C5D
:101C9000A4B2AC42F8D370BD10B5292000F00CF806
:101CA0004FF6FF7101EA0024282000F005F82043D8
:101CB00010BD0020AFF3008008B50022009201465D
:101CC00001236A46242003F04FFF08B1002008BD1D
:101CD0009DF8000008BD08B58DF800008DF80110D2
:101CE00002226946482004F045F808BD10B50524D5
:101CF00004E06420FFF7C2FF641EE4B2FFF7D9FFDF
:101D0000362801D0002CF4D12CB100210120FFF79E
:101D1000E2FF002010BD012010BD10B5052404E035
:101D20006420FFF7ABFF641EE4B2FFF7C2FF362862
:101D300001D0002CF4D12CB108210120FFF7CBFFFA
:101D4000002010BD012010BD10B5052404E0642062
:101D5000FFF794FF641EE4B2FFF7ABFF362801D013
:101D6000002CF4D1ACB100210120FFF7B4FF002119
:101D70000820FFF7B0FF7F210A20FFF7ACFF4721C3
:101D80000D20FFF7A8FF00210E20FFF7A4FF002081
:101D900010BD012010BD00001CB5002401940120DD
:101DA00000F01CF9002823D006F068FF0094114CC5
:101DB000024601AB0721606807F0CCF9019838B101
:101DC0000D494FF080500860BFF34F8FBFF36F8F06
:101DD000022001F08BFE10B1022001F06FFE60784E
:101DE00018B90120607009202070012000F07AF8F5
:101DF0001CBD00004C01002004ED00E070B54FF464
:101E00008065284600F0EAF8012438B10B48417893
:101E100009B944700470284600F064F84FF4005586
:101E2000284600F0DBF8002806D005480470284654
:101E3000BDE8704000F056B870BD00004C010020B5
:101E4000B50000203EB500240294022000F0C6F840
:101E5000002817D0022000F045F802A8CDE9004084
:101E60000948012302220021406806F0EBFD029898
:101E7000002807D005494FF080500860BFF34F8F0E
:101E8000BFF36F8F3EBD0000A400002004ED00E012
:101E90001CB500240194102000F0A0F8002816D0F2
:101EA00006F0ECFE02460A48009401AB0721406BA5
:101EB00007F050F9019838B106494FF0805008609A
:101EC000BFF34F8FBFF36F8F102000F00BF81CBDD6
:101ED0002400002004ED00E0014908607047000084
:101EE000143C01400149086070470000143C014067
:101EF000FEB50121880301F025FE0021084601F00E
:101F00007FFE0A21012001F07BFE0D21012001F05E
:101F100077FE0121084601F073FE0421002001F044
:101F20006FFE4FF48060019000258DF808500C265C
:101F30008DF8096001248DF80A4001A800F058F8D6
:101F400001948DF8085008208DF809008DF80A409A
:101F500001A800F04DF8022001908DF808508DF88E
:101F600009608DF80A4001A800F042F810200190A5
:101F70008DF808508DF809608DF80A4001A800F02E
:101F800037F8600301908DF808508DF809608DF8DE
:101F90000A4001A800F02CF8B00100F04BFF282007
:101FA0008DF800008DF801608DF802508DF8034027
:101FB000684600F00BFF06208DF80000684600F030
:101FC00005FF07208DF80000684600F0FFFE0A209C
:101FD0008DF80000684600F0F9FEFEBD01460020C5
:101FE000024A12680A4200D001207047143C0140A6
:101FF00030B51B4A83790168002B2AD013688B43C4
:102000001360111D0B680468A3430B600179114430
:102010000B68046823430B60114C08342168036883
:1020200099432160231D19680568A9431960417906
:10203000102905D011440A68006802430A6030BDC7
:102040002168026811432160196800680143196022
:1020500030BD0079104402688A43026030BD000040
:10206000003C014010B50120FFF736FF01210807B1
:1020700001F05AFD012001F043FD012001F01EFD99
:10208000BDE8104001F022BD014908607047000022
:102090000C3C02400649002804D0086840F48060E7
:1020A00008607047086820F480600860704700008E
:1020B000003C02400248016841F4805101607047D1
:1020C000003C024070B506460025002905D00129D4
:1020D00027D0022928D04FF4407500F0B5F8092820
:1020E0001ED1134C206820F44070206020682843E3
:1020F0002060206820F0F8002060206846F002018F
:1021000008432060206840F48030206000F09CF894
:10211000216821F002012160216821F0F80121608D
:1021200070BD4FF48075D8E74FF40075D5E7000017
:10213000103C024009200D490A68D20301D5012054
:1021400070470A68D20601D5062070470A68D20592
:1021500001D5022070470A6812F0E00F01D0072075
:10216000704709688907FBD5082070470C3C02407E
:102170000649002804D0086840F4007008607047E1
:10218000086820F40070086070470000003C0240BE
:102190000248016841F4006101607047003C024060
:1021A0000248016841F0004101607047103C024064
:1021B00070B506460D4600F047F8092811D1094CC4
:1021C000206820F44070206020682060206840F083
:1021D00001002060357000F037F8216821F001011E
:1021E000216070BD103C024070B505460E4600F0FF
:1021F0002BF8092813D10A4C206820F44070206085
:10220000206840F400702060206840F001002060E9
:102210002E6000F019F8216821F00101216070BDE5
:10222000103C024005480068002805DA03480449CC
:102230000C3801600349016070470000103C024007
:1022400023016745AB89EFCD08B509200090FFF762
:1022500071FF009002E0FFF76DFF00909DF8000015
:102260000128F8D09DF8000008BD00000248016870
:1022700041F470010160704788ED00E07CB50322F5
:102280000021012006F0DBF84A4CA0640022042162
:10229000012006F0D4F86066012006F0C0F8606402
:1022A000012006F0BCF8E066002202210A2006F0B8
:1022B000C6F8A06500220221142006F0C0F860656F
:1022C00001210022480206F0BAF8A066002202218D
:1022D0000A2006F0B4F8E065002202210A2006F088
:1022E000AEF82066002204210A2006F0A8F8206536
:1022F00003220021012006F0A2F804F18001886089
:1023000003220021012006F09AF8E064142006F070
:1023100092F820670146E06D06F06EF8216FA06D1F
:1023200006F06AF804F174000821CDE900100023DA
:10233000802221A1234806F047FB04F17800072101
:10234000CDE900104FF49676002332461EA12148B5
:1023500006F03AFB04F17C000525CDE9005000238E
:1023600032461DA11F4806F02FFB04F18000062411
:10237000CDE9004000234FF4C8721BA11E4806F0AF
:1023800023FB0C4800238430CDE9005032461BA1CA
:102390001E4806F019FB074800238C30CDE90040A9
:1023A00032461BA11D4806F00FFBBDE87C4005F03E
:1023B0009FBF0000240000207461736B5F696E6929
:1023C00074000000117802087461736B5F6B6579AB
:1023D00000000000B17802087461736B5F74696D6E
:1023E00065000000F57A020853657454696D655FF5
:1023F000416C61726D000000A13C020872696E6759
:102400005F6261747465727900000000397A0208B5
:102410005374657044657465637400007D7A0208C6
:102420002DE9F041002201274FF0030C07FA02F5D5
:102430000B682B40AB422CD1066853000CFA03F416
:10244000A64306600E79D0F800809E4046EA080652
:1024500006600E79012E01D0022E12D18668A643A5
:1024600086604E79D0F808809E4046EA080686606D
:102470004668AE43466045688E799640B6B23543AD
:102480004560C568A543C560CC799C40C3681C43C2
:10249000C460521C102AC9D3BDE8F08110B54B07A7
:1024A000DB0E9A40C90800EB8100016A0F249C40B2
:1024B000A1430162016A1143016210BD024600207E
:1024C00012690A4200D001207047090481617047F7
:1024D00081617047002A01D08161704709048161E0
:1024E00070470000094A507800280CD0002011786D
:1024F000012902D0092903D101E0042000E00920CC
:102500000021517070470020704700004C010020EE
:1025100010B5094803F08EFF0748203003F08AFF0A
:102520000548403003F086FF0449002008604860F9
:10253000091F087010BD000054A400203C010020B9
:1025400070B504460D46304803F09CFF10B12E488C
:1025500003F090F82C48203003F094FF18B12A487B
:10256000203003F087F82848403003F08BFF18B183
:102570002548403003F07EF82146234803F0A0FAB6
:1025800021482946203003F09BFA1F491F4CD1E90E
:102590000320904236D38A68904233D34A689042EF
:1025A00030D94A6990422DD38A6990422AD3C969A9
:1025B000884227D91448221D2030016910680B1A5F
:1025C000B3F5A07F1ED950601160814208D0081A6F
:1025D0004EF66021B1FBF0F10B48403003F070FA89
:1025E000094A403292F9020003280BD3052801D989
:1025F000052100E09178401A02EB8000001D00F0F8
:10260000F2F92070207870BD54A400203801002019
:102610000A4B1A8B002A0DD01979884200D2187102
:102620005979884200D95871996A08449862521CB5
:102630001A837047596218715871F5E72400002019
:10264000FCB51F49A1F11A03DA798854521C0620FF
:10265000B2FBF0F400FB1420D8719879062801D25F
:10266000401C98719A7900206D4603E00B5C2B5456
:10267000401CC0B29042F9D30021501EC7B20DE0F9
:102680004E1CF0B207E06C5C2B5C9C4201D96B5491
:102690002C54401CC0B29042F5D3F1B28F42EFD817
:1026A000D00703D005EB52000078FCBD05EB5200CB
:1026B00010F8011C00780844401CC0F34700FCBD22
:1026C0003E00002009498978002907D0884206D9B0
:1026D000421AD2B2052A01D9491DC8B270470A1A56
:1026E000D2B2052AFAD9491FC8B270472400002087
:1026F000F8B50026009606F0BBFA04464D4D687802
:1027000048B1286A98B1201A192810D2A87840B187
:1027100000F0BCF8F8BD00221146104600F000F9A8
:10272000F8BD00221146104600F0FAF8F8BD2C6200
:102730006421E86E06F08AF801280AD0A87810B162
:1027400000F0A4F8F8BD00221146104600F0E8F8A9
:10275000F8BDFFF7A1FA074600231A461946E86EAE
:1027600005F0D8FED7B1A7F57F40FF3816D0214637
:102770003846FFF7E5FEA0F13201462939D8EE7060
:10278000C0B22146FFF744FF6946204600F08CF8AE
:1027900020B39DF8000000F0B3F8F8BDE878FF28FA
:1027A00001D2401CE870E87878280CD3AE7000F0B5
:1027B00043F800F04BF8FFF7ABFE0022114610463D
:1027C00000F0AEF8F8BDA87810B100F05FF8F8BDE1
:1027D00000221146104600F0A3F8F8BDA87810B109
:1027E00000F054F8F8BD00221146104600F098F8A9
:1027F000F8BDA878A0B1E978FF2901D2491CE97099
:10280000E978782912D3AE7000F016F800F01EF8BF
:10281000FFF77EFE00221146104600F081F8F8BD59
:1028200000221146104600F07BF8F8BD00F02EF8AB
:10283000F8BD0000240000200348002141628162AD
:102840000183017141717047240000200648002176
:102850008171C1710020044A1A321154401CC0B267
:102860000628FAD3704700002400002010B506485F
:1028700000218170C1700162FFF7DEFFFFF7E6FF04
:10288000BDE81040FFF744BE2400002008B5082131
:1028900002460091022314213C2000F01BFCBDE8FD
:1028A000084000F0FFBC000010B5144B1A8B002A42
:1028B00007D05C6A001B40F6B834A04203D2002067
:1028C00010BD002010BD052A03D2FFF7B5FF002080
:1028D00010BD986A1C79001B5B79C31A921E90B2D6
:1028E00040B103EB5002B2FBF0F00870FFF7A4FF19
:1028F000012010BDFFF7A0FF002010BD2400002024
:1029000010B5FFF79DFEFFF7DDFE04498870002239
:10291000CA70BDE81040FFF7B9BF000024000020D6
:10292000F8B506460D46002A27D01421082327A211
:10293000084600F0F3FB082326A21421502000F0E3
:10294000EDFB08240223324614213C20009400F0C1
:10295000C1FB082320A22821142000F0DFFB08235C
:1029600025222821552000F02DFB02232A4628216C
:102970003C20009400F0AEFB23E01421082313A2B6
:10298000084600F0CBFB082312A21421502000F0CF
:10299000C5FB082312A214213C2000F0BFFB082332
:1029A0000DA22821142000F0B9FB0823252228219C
:1029B000552000F007FB082309A228213C2000F045
:1029C000ADFBBDE8F84000F06DBC0000E5BF83E75B
:1029D0008E873A0042504D00E8A180E6B0A73A0049
:1029E0005F5F0000FEE710B50023002901D0002240
:1029F00006E0002010BD50F822402344521CD2B201
:102A00008A42F8D3B3FBF1F0C0B210BD002904D064
:102A1000018841F4806101807047018821F4806160
:102A200001807047C94381827047002904D0018822
:102A300041F0010101807047018821F0010101800E
:102A40007047002904D0018841F4807101807047EB
:102A5000018821F4807101807047002904D0018829
:102A600041F4007101807047018821F400710180F8
:102A700070470CB50246002000920A0F019221F027
:102A80007F41019A002A03D0009A1432009203E099
:102A9000090C009A18320092009A12680A4200D07B
:102AA00001200CBD7FB504460D46A08820F03F06EE
:102AB000684601F055F802982749B0FBF1F189B258
:102AC0000E43A680228822F001022280234B2A682E
:102AD0009A4209D85200B0FBF2F080B2042800D22A
:102AE0000420491C218423E0EB88A3F53F46FF3EE8
:102AF0000BD002EBC20303EB0212B0FBF2F080B288
:102B000040F48040020506D007E002EB4202B0FB31
:102B1000F2F080B2F6E740F0010040F400404FF4DC
:102B2000967251434FF47A72B1FBF2F1491C218441
:102B3000A083208840F00100208020884FF6F531E6
:102B40000840A9886A89114301432180A8892989FD
:102B5000084320817FBD000040420F00A086010095
:102B600008B500900098084400900098008808BDBF
:102B7000008AC0B27047018270470A4601230146AD
:102B8000682002F0F1BF08B58DF800008DF8011043
:102B900002226946D02003F0EDF808BDFEB5012100
:102BA000022000F0B3FF42F20240019000248DF8B1
:102BB00009408DF8084001258DF80B5001A91848EF
:102BC000FFF72EFC0121084600F0A0FF1020019025
:102BD0008DF808408DF80B408DF80940114E01A981
:102BE0003046FFF71DFC01958DF8084002218DF855
:102BF0000B108DF8094001A93046FFF711FCFFF7D3
:102C000077F903F025FE084800900023012240F6E2
:102C1000B83106A006F066FA07494860FEBD00001C
:102C20000004024000000240A9770208534C4545C9
:102C30005054696D657200004C01002010B52DEDF7
:102C4000048B9FED248A9FED249ADFED249A03F0F4
:102C50004FFC234CD4ED0B0A94ED0A0A01F08AFDD7
:102C600060EE098AD4ED0B0A94ED090A01F082FDA9
:102C700020EE090AD4ED100A94ED0C1A41EE080A70
:102C800020EEA91ADFED170A08EEA01A84ED101A3B
:102C900094ED111AD4ED0D1A01EEC81A21EE291A7D
:102CA00000EE201A84ED111A94ED120AD4ED0E0AEA
:102CB00000EE880A84ED120A03F0FAFD02F01AFD14
:102CC00002F05EFDBDEC048B0520BDE8104005F070
:102CD00011BA00000AD7A33BE12E654248E17A3FD2
:102CE0005401002000D7A33CFEE700001CB50121E1
:102CF000084600F00BFF4FF48070009001208DF823
:102D0000040000208DF8060002218DF805108DF8D2
:102D1000070069460148FFF783FB1CBD0000024025
:102D20004FF480710148FFF7D3BB00000000024060
:102D30004FF480710148FFF7C8BB0000000002405B
:102D400038B511A001F0F2FCFFF7EAFF134C4FF089
:102D5000FF31E06E05F07AFD40B10120FEF7E7FC9F
:102D600000231A461946E06E05F0D4FB05F080FFFB
:102D700002460020034600900121206B06F000FA75
:102D8000BDE83840FFF7D4BF20416C61726D20541C
:102D90007269676765726564210D0A00240000206E
:102DA000704708B54FF4407000F044F826208DF8C5
:102DB000000006208DF8010000208DF8020001209F
:102DC0008DF80300684600F001F808BD30B50F2308
:102DD000C27801250178002A1FD0154A126802F432
:102DE000E062C2F5E062C2F30722C2F10404D340FC
:102DF0004278A24084781C401443220101F1E02172
:102E000081F80024007800F01F018D404009800007
:102E100000F1E020C0F8005130BD01F01F008540F6
:102E20004809800000F1E020C0F8805130BD00006A
:102E30000CED00E0024908430249086070470000B9
:102E40000000FA050CED00E008B54FF44070FFF704
:102E5000F1FF38208DF800000B208DF801000020D4
:102E60008DF8020001208DF803006846FFF7AEFFE1
:102E700008BD000010B50021074C0022002004EB23
:102E8000C1131A54401CC0B28028FAD3491CC9B2DD
:102E90000829F3D310BD000054A500202DE9F0410E
:102EA000CF1823E0044686181CE07F2C18D8002990
:102EB00016DB3F2914DCCB1701EB5373DD104FEA0F
:102EC000C51C0C4D23F007036544A1EB030815F85E
:102ED00004C0012303FA08F32CEA030C05F804C02C
:102EE000641C24B2A642E0DC491C09B28F42D9DC42
:102EF000BDE8F08154A5002010B5AE2000F0E6F941
:102F0000D52000F0E3F9802000F0E0F9A82000F0DF
:102F1000DDF93F2000F0DAF9D32000F0D7F90020E6
:102F200000F0D4F9402000F0D1F9A12000F0CEF952
:102F3000C82000F0CBF9DA2000F0C8F9122000F028
:102F4000C5F9812000F0C2F9CF2000F0BFF9D920E7
:102F500000F0BCF9F12000F0B9F9DB2000F0B6F97F
:102F6000302000F0B3F9A42000F0B0F9A62000F062
:102F7000ADF98D2000F0AAF9142000F0A7F9AF20D8
:102F800000F0A4F9FFF776FFBDE8104000F08AB921
:102F90000346012000E05843491E4A1CFBD17047FC
:102FA00010B50C4640F0B00000F090F9102040EA57
:102FB000141000F08BF904F00F00BDE8104000F091
:102FC00085B9000008B5203A082B0ED0062B15D085
:102FD0000C2B09D10F4B02EBC20203EB82020092D1
:102FE00018230C2200F01CF808BD0B4B03EB021257
:102FF00000921023082200F013F808BD074B02EBE3
:10300000420203EB420200920823062200F008F875
:1030100008BD0000D4970208E491020830A5020818
:103020002DE9FF4F0F46DDF8349090461D460024F1
:103030002B46424639460098FFF730FF6D1EE817D1
:1030400005EB50700121DFF888C001EBE00A3BE09E
:10305000002035E000990D187F2D2FD8F91707EBC8
:103060005171CA1016B221F007017B1A002F03DA42
:10307000761E36B208331BB2311907290DD804FB6E
:1030800008FB09EB000E0CEBC1121BF80EB0565DED
:103090000BFA03FB46EA0B065655491C07290DD8C7
:1030A00004FB08F609EB000B0CEBC11116F80B60E2
:1030B0004A5DC3F10803DE4032434A55401CC0B2AA
:1030C0004045C7D3641CE4B2A245C1DCBDE8FF8F14
:1030D00054A500202DE9F04F8046DDF824A08B4652
:1030E00091461F4600240A2514E0391B491E0A2078
:1030F000FFF74EFFB9FBF0F6B6FBF5F005FB1062EB
:1031000004FB0A80303200B253465946FFF75AFF9B
:10311000641CE4B2BC42E8D3BDE8F08F2DE9FF4F58
:1031200083B080461446994600250026AA46ADE0A5
:10313000010609D4012029466D1C615CADB28DF8F1
:1031400004108DF805A055E00621B1EB501F10D1F9
:103150000220691C625D89B28DF80420625C002A3D
:1031600076D04A1C615C95B28DF805108DF806A0EA
:1031700040E00E21B1EB101F18D10320691C625DE5
:1031800089B28DF80420625C002A61D04A1C615C1F
:1031900092B28DF80510A15C00297BD0511C8DB234
:1031A000A15C8DF806108DF807A023E01E21B1EB7D
:1031B000D00F23D10420691C625D89B28DF80420F0
:1031C000625C002A66D04A1C615C92B28DF80510E0
:1031D000A15C00295ED0511CA25C89B28DF806204A
:1031E000625C002A56D04A1C615C95B28DF80710CB
:1031F0008DF808A0012804D0002716E06D1CADB2A0
:1032000044E008EB06009DF8042000B24B46049908
:10321000FFF7D8FE06EB090086B237E0584601A951
:10322000FDF75AF868B17F1CBFB207EB870000EBCF
:1032300047111A480844834619A1FDF74DF80028A4
:10324000ECD1B9F1080F04D0B9F1060F1ED113E08B
:1032500020E007EB870000EB4711104810230844DB
:10326000401D009008EB060000B21A460499FFF7D3
:10327000D7FE1036B6B209E008EB060000B206230E
:103280003F220499FFF79EFEB61DB6B2605D00288E
:103290007FF44EAF07B0BDE8F08F00006AA70208C8
:1032A0000000000070B50024074D00212046FFF704
:1032B00077FE05EBC410802100F014F8641CE4B222
:1032C000082CF2D370BD000054A5002008B50021E1
:1032D00000918DF8010002226946782002F04AFD33
:1032E00008BD00002DE9F04707468846504D4FF4D1
:1032F000003421462846FFF7BCFB0128F9D0012104
:103300002846FFF79EFB4B4C28462146FFF7B1FBB2
:103310000028F9D0484E28463146FFF783FB782134
:103320002846FFF728FC434C641C21462846FFF73B
:10333000A0FB01280CD031462846FFF79AFB012854
:10334000F3D101212846FFF788FB0320BDE8F08771
:1033500014212846FFF704FC18212846FFF700FC3B
:10336000DFF8D09009F17F0931462846FFF781FB4D
:10337000012806D049462846FFF77BFB0128F3D1F8
:1033800011E001212846FFF768FB0220DEE701215A
:103390002846FFF762FB0220D8E749462846FFF798
:1033A00068FB012806D031462846FFF762FB01285A
:1033B000F3D1ECE740212846FFF7DDFB002411E0C4
:1033C00001212846FFF749FB0220BFE7494628466E
:1033D000FFF74FFB012807D1395D2846FFF7CBFBEC
:1033E000641CE4B2444506D231462846FFF741FB4F
:1033F0000128EBD1E4E70F4CE41C0BE00121284647
:10340000FFF72BFB0120A1E721462846FFF731FB00
:10341000012806D031462846FFF72BFB0128F3D1BF
:10342000ECE701212846FFF718FB00208EE700009B
:10343000005400400100001000040010084A1077FA
:1034400001239380D180012804D0022804D00420D5
:1034500010707047137070470320107070470000A1
:10346000F401002070B54FF0FF320024094D0DE04B
:10347000035D5A400023D60702D085EA520200E0DD
:1034800052085B1CDBB2082BF5D3641C8C42EFD3D3
:10349000D04370BD2083B8ED70B54FF0FF320024EB
:1034A000094D0DE0035D5A400023D60702D085EA9E
:1034B000520200E052085B1CDBB2082BF5D3641CFF
:1034C0008C42EFD3D04370BD2083B8ED10B5074CCC
:1034D00063895B1E9BB2984205D18818A169884216
:1034E00001D1012010BD002010BD0000F40100201A
:1034F00010B50C4B1868596821F00102A0F1005476
:10350000B4F5003F01D8800701D0002010BDC807E6
:1035100004D00548824201D39A4201D3002010BD55
:10352000012010BD000004080000020810B5FEF7DD
:1035300079FEF320FEF7A8FD02213020FEF7C2FD40
:103540000446FEF72DFE00F006F8092C01D00020FD
:1035500010BD012010BD10B50020FEF709FE0020AF
:10356000FEF798FDFEF714FEFEF7A4FD0120FEF71E
:10357000FFFDBDE810400120FEF78CBD2DE9F05F96
:10358000364800F033F981463448801C00F033F9A6
:1035900080463248801D00F029F90746DFF8BCA0BC
:1035A0000AF1080AAAF12506F019253000F023F9DE
:1035B000834608EB070539465046FFF753FF0224C0
:1035C000584508D04A4605210220B36900F01EF98B
:1035D0003470BDE8F09F3A4641464846FFF776FF13
:1035E00038B14A4600210220B36900F00FF9347067
:1035F000EFE77089484507D04A4603210220B369A6
:1036000000F004F93470E4E7B369434502D1F0688F
:10361000A84206D24A460421022000F0F7F834708E
:10362000D7E73A465146404600F016FA60B1B56118
:103630007089401C708134702B464A46BDE8F05FAB
:103640000021022000F0E2B84A4606210220B369B8
:1036500000F0DCF8BDE8F05F00F0A8B9110200202E
:1036600070B52D4800F0C7F806462B48001D00F045
:10367000C2F8294C02251D3CE168B14205D12269FE
:10368000824202D1A069884207D000220221032091
:10369000A36900F0BBF8257070BDFFF75CFF1F4801
:1036A000E168FFF7F9FE2169884207D0002207216F
:1036B0000320A36900F0AAF8257070BDFFF718FF7A
:1036C000C0B100F083F9E8B1002211460320E3689D
:1036D00000F09CF8C82004F00DFDBFF34F8F104898
:1036E0000168104A01F4E06111430160BFF34F8F9C
:1036F00000BFFDE7002202210320A36900F086F845
:10370000257070BD002206210320A36900F07EF819
:10371000BDE8704000F04AB9110200200000040822
:103720000CED00E00400FA052DE9F0412E4800F010
:1037300062F806462C48001D00F05DF807462A484E
:10374000083000F058F8804627480C3000F04EF85A
:103750000546254C213C607F4F2809D1A07F542885
:1037600006D1E07F412803D194F82000312809D008
:10377000002301211A46084600F048F8BDE8F04150
:1037800000F014B92EB1B6F5003F02D80DB1E02D0E
:1037900009D900231A460221012000F037F8BDE8BC
:1037A000F04100F003B9FFF7C1FE98B1012060704D
:1037B000258100206081E6602761C4F81480A06143
:1037C00002202070BDE8F04100231A46194601206E
:1037D00000F01CB800231A460621012000F016F85C
:1037E000BDE8F04100F0E2B8150200200178407811
:1037F00041EA002070470178427841EA022182784C
:10380000C078120442EA006008437047FEB51E46C5
:1038100079248DF800408DF801008DF802106D4676
:103820001146E81C00F03EF93146681D00F03EF9F3
:103830000024084E295D304600F06BFF641CE4B2A2
:10384000092CF7D34021304600F0BAFE0028F9D009
:10385000FEBD00000044004010B54D4C2178002909
:1038600008D002290FD0A188ED2928D300F09EF8B6
:10387000012010BD012801D0002010BD1321FFF749
:10388000DDFD012010BD02280AD003280DD001283B
:1038900010D062890321A369FFF7B8FF012010BD92
:1038A0000921FFF7CBFD012010BD0921FFF7C6FD5F
:1038B000012010BD1321FFF7C1FD012010BD4A1CDE
:1038C0002144A28008772178012925D1A0880228E7
:1038D00006D1627F4F2A03D000F068F8002010BDA7
:1038E000032806D1A27F542A03D000F05FF80120FC
:1038F00010BD042806D1E27F412A03D000F056F81B
:10390000012010BD052807D194F82000312803D0EC
:1039100000F04CF8012010BD03291FD1A088092810
:103920001CD11B482330FFF761FF20B12189814260
:1039300001D3E02810D916481D30FFF757FF024683
:1039400002210846A369FFF761FF022020700020D2
:10395000A080E080012010BD0D30E080A088E188CB
:10396000884201D2012010BD2078012807D0032809
:1039700008D0042809D000F019F8012010BDFFF785
:10398000D3FEFAE7FFF7FAFDF7E7FFF769FEF4E782
:10399000F401002004480178002902D14078002871
:1039A00000D0012070470000F401002006480021EB
:1039B0000170417081708180C18001814181C1604D
:1039C0000161416181617047F4010020F0B591B05F
:1039D00001AE1D480190012002901C4803901C4834
:1039E000C168049101690591406906900020079023
:1039F00001AA411E02EB8003D961401C0928F9D3BA
:103A0000FEF710FCF320FEF73FFB02212020FEF71B
:103A100059FB0546092D0DD100240E4F56F82410F0
:103A200007EB8400FEF7E0FB0546092D02D1641C7C
:103A3000102CF3D3FEF7B4FB092D02D0002011B0F7
:103A4000F0BD0120FBE700003157544201005AA5A8
:103A5000F4010020000001082DE9F04706460F465A
:103A600090460925FEF7DEFBF320FEF70DFB002450
:103A7000DFF82C9008E03019395D4844FEF798FBD8
:103A80000546092D02D1641C4445F4D3FEF788FB9A
:103A9000092D02D00020BDE8F0870120FBE70000DF
:103AA000000004080170090A4170704701700A0A99
:103AB00042700A0C8270090EC170704702490A6890
:103AC00042EA8000086070470070004005480168C5
:103AD00041F0020101600448016841F00401016005
:103AE00030BF70470070004010ED00E0014600203C
:103AF000024A52680A4200D001207047007000401C
:103B00000149086070470000A0000E42054A0029E4
:103B100003D011680143116070471168814311603F
:103B20007047000030380240054A002903D0116870
:103B300001431160704711688143116070470000B4
:103B400040380240054A002903D011680143116042
:103B5000704711688143116070470000443802408B
:103B600070B5244B196801F00C01234C00291ED0BC
:103B7000661004291DD008291DD00460196801F0C1
:103B8000F00109091D4A545C0168E14041601C686C
:103B900004F4E054A40A145D21FA04F484601B6860
:103BA00003F460435B0BD25CD140C16070BD046024
:103BB000E4E70660E2E70F4A121F1168C1F380557F
:103BC000116801F03F0135B1B6FBF1F11468C4F39F
:103BD0008814614305E0B4FBF1F11468C4F3881460
:103BE00061431268C2F30142521C5200B1FBF2F170
:103BF0000160C3E7083802400024F40014000020EC
:103C000010B58A07120F0F23934021F003040649D1
:103C1000214401F608010C689C430C600B6890403D
:103C200003430B6010BD00000030014018480168DC
:103C300041F0805101601748016841F44041016042
:103C4000134838380168016001680160016841F477
:103C500080510160021F10491160111F0A6842F073
:103C600080720A600A689201FCD50C4A40F2037126
:103C70001160016821F003010160016841F0020157
:103C800001600168C1F381010229FAD17047000087
:103C9000403802400070004010640107003C0240C0
:103CA00086B0DFF88CB301274FF00509DFF8848375
:103CB0000024ABF12C0AAEE1002205A9184604F05D
:103CC00043FD0128F7D19DF814000228F3D1DA480A
:103CD0000090002301224FF49671D8A005F002FA5B
:103CE000054628000ED004F0C3FF04906421706CD8
:103CF00004F0ACFDE0B36421F06E04F0A7FD0128F0
:103D000004D029E0D0A000F011FD84E101A8FDF766
:103D100049FE01A8FDF77EFEBDF80A10D248A1F5C4
:103D2000FA6101809DF8081041809DF8071081809C
:103D30009DF80610C1809DF8051001819DF80410C2
:103D400041819DF80C108181FFF794F800231A46F9
:103D50001946F06E04F0DEFB7473B7723773F472B9
:103D60008DF8149000231A461946706C04F0D2FBAB
:103D700004F07EFF0246002301212846009405F04E
:103D8000FFF9012802D0B9A000F0D0FC012003F017
:103D9000DFFF28E0642205A9F06D04F0D5FC0128BE
:103DA0000BD104F065FF04909DF81410042941D054
:103DB000052948D0B5A000F0B9FC04F059FF0499DA
:103DC000401A40450FD96421706C04F03FFD50B19A
:103DD000B472347300231A461946706C04F09AFBCF
:103DE000B2A000F0A3FCB07A0028D3D103F010FBFE
:103DF0006DB100231A4603212846009405F0C0F94E
:103E000000231A4605212846009405F0B9F96421DB
:103E1000706C04F01BFDD8B1B472347300231A46E1
:103E20001946706C04F076FB327BB17AA7A000F0E3
:103E30007DFC12E09DF8150004A902F0BDF90120F7
:103E400003F086FFB9E79DF8150003F081FFB4E7A2
:103E5000ABA000F06BFCB4723473FFF70BF8DAE040
:103E6000B36D9842FBD1002205A9184604F06CFC02
:103E70000128F4D19DF814000328F0D1AD4800903A
:103E8000002301224FF49671ABA005F02BF90546F3
:103E900028000BD004F0ECFE04906421706C04F058
:103EA000D5FCD8B39BF8000020B12BE0A6A000F011
:103EB0003DFCB0E09BF8010020BB9BF8020008BB72
:103EC0006421F06E04F0C2FC01281BD101A8FDF7AB
:103ED00069FD01A8FDF79EFD9DF806008BF8000026
:103EE0009DF805008BF801008BF802409DF8070053
:103EF0008BF80300FEF7BEFF00231A461946F06E4A
:103F000004F008FBB473B772F77234738DF8149031
:103F100000231A461946706C04F0FCFA04F0A8FE5F
:103F20000246002301212846009405F029F90128C2
:103F300002D08EA000F0FAFB012003F08BFE33E0EC
:103F4000642205A9B06D04F0FFFB01280BD104F039
:103F50008FFE04909DF81410042947D005294ED0F7
:103F60004AA000F0E3FB04F083FE0499401A4045A8
:103F70001AD96421706C04F069FCA8B1B472F472AF
:103F8000B4738DF814708DF815700023642205A9A0
:103F9000706D04F0BFFA00231A461946706C04F0E5
:103FA000B9FA42A000F0C2FBB07A0028C8D103F0F1
:103FB000CFF96DB100231A4603212846009405F07D
:103FC000DFF800231A4605212846009405F0D8F8AA
:103FD0006421706C04F03AFCB0B1B472F472002346
:103FE0001A461946706C04F095FA0FE09DF815001A
:103FF00004A901F041FF012003F02CFEB3E79DF876
:10400000150003F027FEAEE7B472F472FEF732FF3C
:104010005FA000F08BFB4FF0FF315646DAF87000DE
:1040200004F00AFCF36D98427FF41AAF44E60000F6
:1040300050000020C0D40100957E0208426C696ED9
:104040006B54696D657200004661696C656420742B
:104050006F2063726561746520626C696E6B207499
:10406000696D65720A000000B40100204661696C48
:10407000656420746F20737461727420626C696E61
:104080006B2074696D65720A00000000556E6B6EDE
:104090006F776E206D65737361676520636F6D6DFB
:1040A000616E643A2025640A000000004175746F57
:1040B0002D736176696E672064756520746F206961
:1040C0006E61637469766974790A0000476C6F6287
:1040D000616C207661726961626C657320757064D1
:1040E000617465643A207365745F72756E3D256412
:1040F0002C207365745F74696D653D25640A00004A
:104100005761726E696E673A204661696C6564201A
:10411000746F2074616B65206D7574657820666FAF
:1041200072207661726961626C6520757064617479
:10413000650A0000657E0208416C61726D426C691F
:104140006E6B54696D6572004661696C65642074BC
:104150006F2063726561746520616C61726D2062AD
:104160006C696E6B2074696D65720A004661696CDA
:10417000656420746F20737461727420616C617265
:104180006D20626C696E6B2074696D65720A000047
:10419000416C61726D20736574206D6F646520657C
:1041A0007869746564207375636365737366756C91
:1041B0006C792E0A0000000010B5BF2080F3118832
:1041C000BFF34F8FBFF36F8F04F05EFD18B104494A
:1041D0004FF080500860002080F3118810BD00006F
:1041E00004ED00E010B51148016841F47001016070
:1041F0000F48016841F0010101600D4A00210832B9
:10420000116002680B4B1A400260031D0A4A1A60D3
:10421000026822F48022026005480C300160FFF73A
:1042200005FD024905488039086010BD88ED00E0B1
:1042300000380240FFFFF6FE1030002400000208A4
:1042400038B501218C07204600F09FF8002814D0D3
:104250000020009009486946806804F037FA01217F
:10426000204600F083F80098002806D00449A010EA
:104270000860BFF34F8FBFF36F8F38BDA4000020DD
:1042800004ED00E07FB501210846FFF74DFC40F248
:10429000F310029042F2CF00ADF804000024ADF814
:1042A0000C40ADF806404FF0804501A9284600F0CB
:1042B000BFF801221146284600F073F81C218DF842
:1042C000001005218DF801108DF8024001218DF8B4
:1042D00003106846FEF77AFD0121284600F049F8F0
:1042E0007FBD000010B50A4C0121204600F04DF8BA
:1042F00000280BD00748012181700189491C0181E8
:104300002046BDE81040012100F030B810BD00008B
:1043100000040040A00100201FB501210220FFF78A
:1043200003FC1049642088716320029042F2CF00A0
:10433000ADF804000024ADF80C40ADF8064001A92A
:10434000094800F075F81D208DF800000D208DF84B
:1043500001008DF8024001208DF803006846FEF749
:1043600035FD1FBDA001002000040040C9430182AB
:104370007047002904D0018841F001010180704795
:10438000018821F001010180704702460020138A54
:104390000B4092890A40002B02D0002A00D0012055
:1043A0007047002A03D082890A438281704782893C
:1043B0008A4382817047000070B5028C22F48052DB
:1043C0000284058C8288838B23F4E04323F44076B7
:1043D0000C884FF6FF7303EA0424344325F4005598
:1043E0008E8903EA06362E434D8803EA05353543A8
:1043F000084EB04202D0084EB04205D122F48046A9
:104400000A8A03EA821232438280848389680164C3
:10441000058470BD000001400004014000210180BE
:104420004180818081608181C181018241827047A8
:1044300030B50288164C174DA0420DD0A8420BD0C3
:10444000B0F1804F08D0144B984205D0134B9842DE
:1044500002D0134B984203D122F070034A881A43CA
:10446000104B984206D0104B984203D022F4407370
:104470000A891A4302804A68C2620A880285A042F9
:1044800001D0A84201D1897A01860121818230BD03
:10449000000001400004014000040040000800400A
:1044A000000C004000100040001400401CB500202B
:1044B000019000900E4C40F22551204600F087F804
:1044C000002814D0204600F01BF900900948002372
:1044D00001AA6946806E04F0ADF80198002806D064
:1044E0000549A0040860BFF34F8FBFF36F8F1CBD59
:1044F000004400402400002004ED00E0002904D026
:10450000818941F4005181817047818921F40051F2
:104510008181704770B586B001210846FFF7F6FA31
:1045200001214804FFF700FB0420049002258DF8C8
:1045300014508DF8155000248DF8164001208DF888
:1045400017001D4E04A93046FDF76AFF08210491AB
:104550008DF814508DF8174004A93046FDF760FF20
:10456000072202213046FDF799FF0722032130463A
:10457000FDF794FF4FF4E1300090ADF80440ADF842
:104580000640ADF80840ADF80C400C20ADF80A002C
:104590000A4C6946204600F055F8012240F22551A8
:1045A000204600F034F801212046FFF7A7FFFEF770
:1045B000F8FB06B070BD000000000240004400405F
:1045C0000246002012880A4200D00120704770B5D0
:1045D000002440F66A12C1F3421301F01F050126C0
:1045E00006FA05F2012B0CD0022B0DD0838A134062
:1045F000090A8E40008830400BB100B101242046EA
:1046000070BD83891340F3E7038A1340F0E710B5C8
:1046100040F66A13C1F3421301F01F040121A140C7
:10462000012B07D0022B07D014303AB102680A439D
:10463000026010BD0C30F8E71030F6E702688A43DC
:10464000026010BD7FB504460D46208A20F440511B
:10465000E88808432082A08941F20C618843A98838
:104660002A8911436A8902431143A181A08A20F457
:104670004071A8890843A0826846FFF771FA1E4876
:10468000844202D01D48844201D1039800E0029880
:10469000A189090408D500EBC00101EB00102968CD
:1046A0004900B0FBF1F007E000EBC00101EB0010A6
:1046B00029688900B0FBF1F06422B0FBF2F1090136
:1046C0000B096FF018056B4300EB8300A3891D04F1
:1046D0004FF0320307D503EBC000B0FBF2F000F05F
:1046E0000700084306E003EB0010B0FBF2F000F017
:1046F0000F00084320817FBD0010014000140140DD
:104700008088C0F308007047C1F3080181807047BA
:10471000FEE710B504462046FFF7F6FF802120464D
:10472000FFF74EFF0028F9D010BD00000FB4054B75
:1047300010B503A9044A029800F044FA10BC5DF8D1
:1047400014FB00000D5B0208AC01002041000802D0
:1047500018BF04200A0E18BF40F001004FF07F423E
:1047600032EA010108BF40F00200012808BF05201D
:104770007047000010EE100A10B510EE901A4FF0BE
:10478000684202EB40032DED028BB3F1654F3CBF55
:1047900002EB4102B2F1654F7CD200BFC0F3C753B8
:1047A000C1F3C7529A1A1B2A09DD10F0004F14BF3B
:1047B0009FED6E0A9FED6E0ABDEC028B10BD12F1EB
:1047C0001A0F1BDA11F0004F09D010F0004F0CBF88
:1047D0009FED680A9FED680ABDEC028B10BD80EE6C
:1047E000208A18EE100AFFF7B1FF042808BF00F076
:1047F00009F9B0EE480ABDEC028B10BD4200B2EBE5
:10480000410F37D910F0004F19BFDFED5C1A9FED53
:104810005C1ADFED5C1A9FED5C1AB0EE602A0A4666
:10482000F1EE400A80F00041B0EE420A10460A1A4A
:104830005200B2F1807F34D2484010F0004FDFEDDB
:10484000532A9FED533A1DBFBEEE002A71EEE21AC5
:1048500031EE431AB6EE002A04BF71EEA21A31EE11
:10486000031AF0EE402A42EE602A40EE020A82EE7F
:10487000A02A18E011F0004F04BF9FED461AF0EE99
:10488000411AD4D010F0004F1CBFDFED431A9FED4A
:10489000431A00E026E004BFDFED411A9FED411A04
:1048A000C5E780EE202A22EE020ADFED3F0ADFEDA7
:1048B0003F2ABDEC028B40EE202ADFED3D0A40EEA0
:1048C000220ADFED3C2A40EE202ADFED3B0A40EED3
:1048D000220A22EE000A00EE201A31EE020A30EE21
:1048E000210A10BD4FF07F42B2EB400F28BFB2EB60
:1048F000410F05D2BDEC028BBDE8104000F07FB83F
:1049000040EA01035B0008BF41F0FF410BD0B2EB6E
:10491000400F08BFB2EB410F08D120F0804000EEFD
:10492000100A21F0804100EE901A37E7B2EB400FF9
:1049300012BF5FEA410240F0FF4001F000413FF446
:104940002DAF4A0092EA40033FF528AF002AACBFE2
:104950009FED1A1A9FED1A1A20EE010A60EE810AE5
:1049600010EE100A10EE901A18E70000DB0FC9BF16
:10497000DB0FC93FDB0F4940DB0F49C00000C9BF57
:1049800022AAFDB90000C93F22AAFD390060ED3E10
:10499000C30ACE3700000000000049C022AA7DBA39
:1049A0000000494022AA7D3A2DAD65BD8FB8D53DA6
:1049B0000FB511BE61C84C3EA8AAAABE0000804F28
:1049C0000000802F10B52DED028BB1EEC08A18EEDD
:1049D000100A20F00040C0F1FF40C00F0AD010EED6
:1049E000100A20F00040C0F1FF40C00F04BF0120BA
:1049F00000F020F8B0EE480ABDEC028B10BD30EE9E
:104A0000200A70479FED020A20EE000A704700005E
:104A10000000001002E008C8121F08C1002AFAD1E5
:104A200070477047002001E001C1121F002AFBD12E
:104A3000704700000149086070470000B001002085
:104A40002DE9FF5F82B00021DDE90430020DDDF8C1
:104A500040B0034318D044F61050A2F2FF32424354
:104A60001514119801281FD0A5EB0B00401C5FEA1C
:104A7000000A4FF000064E4FDFF83891B04650461E
:104A800015D5CAF1000413E0119801244AA30128A6
:104A900001D16FEA0B010298119AC0E90031C0E917
:104AA000024206B0BDE8F09FCBF10000DFE704460C
:104AB0000021404A491842EB0450CDE9001012E0B1
:104AC000E00707D032463B4640464946FBF7B9FC73
:104AD0008046894632463B4610461946FBF7B1FCF4
:104AE00006460F466410002CEAD1DDE90401DDE939
:104AF0000023BAF1000F06DAFBF7A3FC42464B464F
:104B0000FBF79FFC05E0FBF70EFD42464B46FBF72B
:104B10000AFD04460E460022284BFBF7C9FD03D8C8
:104B20004FF0FF30014607E00022254B204631467A
:104B3000FBF7E0FBFBF7FCFE102409E0002C0ADB8E
:104B40000A220023FBF7FEFD039B30321A55641E38
:104B500050EA0102F2D1641C039AC4F11103144417
:104B6000119A012A03D0012208430DD10AE008431B
:104B700004D000204FF0110B119072E7A3EB0B054E
:104B80006D1E0DE05B4504DD4FF0000205F10105EF
:104B900004E003DA4FF00002A5F10105002AECD091
:104BA00002981199C0E90231C0E9004579E7000097
:104BB000000014400000F03F300000000000F0430F
:104BC0000000E03F2DE9FF4F95B09B468946064621
:104BD00000250FE2252877D100242746F84A012135
:104BE000059400E0044316F8013F203B01FA03F06E
:104BF0001042F7D130782A2811D06FF02F03307887
:104C0000A0F13002092A16D8059A44F0020402EBFA
:104C1000820203EB42021044761C0590EFE759F83C
:104C2000042B0592002A03DA504244F40054059004
:104C300044F00204761C30782E2816D116F8010FA5
:104C400044F004042A280DD06FF02F023078A0F130
:104C50003003092B09D807EB870302EB4303C7187E
:104C6000761CF3E759F8047B761C30786C280FD05B
:104C700006DC4C2817D068280DD06A2814D104E02F
:104C8000742810D07A280FD10DE044F400140AE003
:104C900044F4801401E044F440147278824202D15A
:104CA00004F58014761C761C307866280BD013DC53
:104CB000582877D009DC002875D04528F6D046283A
:104CC000F4D047281AD19DE118E0632835D0642834
:104CD00079D0652812D195E1702873D008DC672857
:104CE000F1D069286FD06E280DD06F2806D1B5E0BD
:104CF00073282CD0752875D0782874D05A46179907
:104D000090476D1C75E1C4F30250022809D00328B6
:104D10000DD0D9F8001004280DD00D6009F1040958
:104D200067E1D9F80010EA17C1E90052F6E7D9F8AF
:104D300000100D80F2E70D70F0E719F8041B8DF8F4
:104D4000001000208DF80100EA46012003E059F828
:104D500004AB4FF0FF3061074FF0000102D40DE0CB
:104D600008F101018846B9420FDA8045F8DB1AF8EC
:104D700008100029F4D108E008F1010188468142B9
:104D8000FADB1AF808100029F6D105985B46A0EB6B
:104D9000080721463846179A00F094FA284400EB99
:104DA000080507E04DE029E10DE01AF8010B5A462D
:104DB00017999047B8F10108F7D25B46214638466B
:104DC000179A13E142E00A220092C4F302524FF014
:104DD000000A022A08D059F804CB032A4FEAEC71E2
:104DE0000AD00DE029E02AE009F1070121F00702CD
:104DF000F2E802C1914609E00FFA8CFC4FEAEC712F
:104E0000042A03D14FFA8CFC4FEAEC71002907DA2F
:104E10000A460021DCF1000C61EB02012D2202E0C8
:104E2000220504D52B228DF80420012203E0E2079D
:104E300001D02022F7E7904659E00A2102E0102233
:104E40000DE010214FF0000A00910BE010224FF00E
:104E5000000A44F004040827009203E008224FF0FF
:104E6000000A0092C4F30252022A05D059F804CB7A
:104E70000021032A08D009E009F1070121F0070207
:104E8000F2E802C1914605E01FFA8CFC042A01D128
:104E90000CF0FF0C4FF00008220728D5702806D030
:104EA000009B83F0100353EA0A0305D00EE0402272
:104EB0008DF80420012208E05CEA010206D03022CD
:104EC0008DF804208DF8050002229046009B83F0A7
:104ED000080353EA0A030AD15CEA010201D162071E
:104EE00005D530228DF804204FF001087F1E582888
:104EF00004D034A003900EA802900DE036A0F9E78C
:104F000053466046009AFBF71DFC84460398825C7A
:104F10000298401E029002705CEA0100F0D10298F3
:104F200006A9081A00F1200A600702D524F480348B
:104F300000E00127574502DDA7EB0A0000E0002052
:104F400000EB0A01009005984144401A0590E003E7
:104F500006D45B462146179A059800F0B3F905443C
:104F6000002706E001A85A46C05D179990476D1CBE
:104F70007F1C4745F6DBE0030CD55B462146179ABC
:104F8000059800F09FF9054404E030205A4617992F
:104F900090476D1C0099481E00900029F5DC08E040
:104FA000029802995A460078491C02911799904735
:104FB0006D1CBAF10001AAF1010AF1DC65E1000003
:104FC00009280100303132333435363738396162DF
:104FD00063646566000000003031323334353637A3
:104FE00038394142434445460000000000F058F97A
:104FF0000544761C307800287FF4ECAD19B02846C3
:10500000BDE8F08F620700D4062709F1070222F0FD
:10501000070CFCE80223E14603F000485FEA080CB5
:1050200002D00FF2702C0DE05FEA045C02D50FF2A3
:10503000682C07E05FEAC47C02D00FF2602C01E02C
:10504000AFF2700C4FF0FF3823F00043CDF850C0A2
:1050500065280CD006DC452809D046281DD04728F5
:105060003DD13DE0662818D067287ED138E0002188
:10507000112F01DB112000E0781CCDE9000106A909
:105080000EA8FFF7DDFCDDE90F010E9A0391002168
:10509000009207F1010A04914DE04FF000400097A3
:1050A000CDE9011006A90EA8FFF7CAFCDDE90F0241
:1050B00003920E9B11990022DDF80CA0009304923C
:1050C00011B9791C00EB010AB7EB0A0004D4C0F156
:1050D000FF3007F1010A0490AAEB0700019044E0B9
:1050E000012F00DA01270021112F01DD112000E03E
:1050F0003846CDE9000106A90EA8FFF7A1FCDDE9BD
:105100000F010E9A0391002104910092BA462107E3
:105110000CD40399514500DA8A46BAF1010F05DD36
:10512000009AAAF10101515C302908D0B84202DA94
:1051300010F1040F06DA0121CDE9011015E0AAF102
:105140000101E9E7002805DC049901440491AAEB78
:10515000000102E0411C514500DD8A460499401AD5
:10516000401C01904FF000400290200704D40198A9
:10517000504501DBCDF8048000208DF84F000298E7
:105180000DF14F07B0F1004F25D02B200E90029863
:105190004FF0020800280CDA404202902D200E90B9
:1051A00007E00A210298FBF7B7FA3031029007F8BE
:1051B000011DB8F10001A8F10108F2DC02980028F5
:1051C000EFD1791E0E980870307800F0200040F082
:1051D000450007F8020D12A8C01B00F1070814983B
:1051E000007800B1012000EB0A01019801EBE071A9
:1051F00005984144401A401E0590E00306D45B46E2
:105200002146179A059800F05DF805441498007837
:1052100018B15A46179990476D1CE00324D55B4698
:105220002146179A059800F04DF805441CE00498B3
:10523000002807DBDDE90301884203DD0098405CBC
:10524000179901E0179930205A469047049805F1C4
:105250000105401C04900198401E019004D12E20AD
:105260005A46179990476D1CBAF10001AAF1010A3C
:10527000DDDC05E017F8010B5A46179990476D1CC5
:10528000B8F10001A8F10108F4DC5B462146179A49
:105290000598ABE62D0000002B0000002000000068
:1052A0002DE9F041044600251E461746880404D423
:1052B00005E039462020B0476D1C641EF9D528460C
:1052C000BDE8F0812DE9F041044600251E469046D8
:1052D000C80301D5302700E02027880404D505E065
:1052E00041463846B0476D1C641EF9D52846BDE8D6
:1052F000F081000010B588B001210420FEF714FCF5
:105300000020ADF816008DF81E004CF24F310691CA
:10531000C721ADF81410ADF81C000B4C05A92046B0
:10532000FFF786F86846FFF779F86021ADF80010BE
:1053300040F6C41102910121ADF8021069462046E1
:10534000FFF73AF808B010BD0008004038B5FDF787
:10535000EFFC0024084D0094234622460321286BCD
:1053600003F00EFF002300941A460521286B03F07A
:1053700007FF2C6338BD00002400002038B5044628
:10538000062000900323224604215420FDF7A2FEAC
:105390000623252204216620FDF714FE2148642CF3
:1053A00021D0A4F10A015A2925D2102300901A46CF
:1053B00000216E20FDF734FE0A20B4FBF0F1B4FBAF
:1053C000F0F0C1F10A01CAB2703000B20623052123
:1053D000FDF764FD01B00823BDE83040062204213A
:1053E0005520FDF75BBD102300901A4600216E206A
:1053F000FDF716FE38BD102300901A4600216E20DE
:10540000FDF70EFE06230A2205217020FDF746FD5A
:1054100001B00823BDE830400C2204215520FDF7DF
:105420003DBD000001A9020870B500211C480368B9
:105430001C480288002A32D0002004E033F81040D3
:105440002144401C80B29042F8D3B1FBF2F0164DDB
:105450002864296C15A0FFF769F90024286CB0F5C1
:10546000006F08D9286C6421A0F5006048434FF410
:10547000F071B0FBF1F4642C00D964246421E86E6F
:1054800003F0E4F900280AD0A0B2FFF777FFE86E36
:10549000BDE8704000231A46194603F03BB870BDC2
:1054A000440100204801002024000020426174745F
:1054B000657279204144432056616C75653A202518
:1054C0006C750A007FB5304D6421E86E03F0BEF9BB
:1054D000002858D0A87DD8B380F00100A875FDF74A
:1054E00027FC01A8FCF75EFA01A8FCF793FA05F186
:1054F0002C06F47830789DF80610884205D311D137
:1055000070789DF8051088420CD29DF80700401C69
:10551000C4B29DF80810BDF80A0000F009FB8442EF
:1055200000D901241948102300901A462D21642027
:10553000FDF776FD0120FCF7FAF832787178B07843
:105540002346FCF74EF901210846FCF714F911E057
:10555000FFE70120A875FDF7EBFB10231A462D216C
:105560006420FDF79BFC00210120FCF704F90120D9
:10557000FCF7DDF8E86E04B00023BDE870401A4681
:10558000194602F0C7BF7FBD240000201BAA0208F5
:1055900014481449807B2C3100280BD0012810D0EE
:1055A000022815D0032804D1C878012817D0401E3E
:1055B000C8707047887810B1401E887070473B20D3
:1055C000FBE7487810B1401E487070473B20FBE76E
:1055D000087810B1401E087070471720FBE71F20A5
:1055E000E6E700002400002010B52048204C427B54
:1055F00020886188072A09D2DFE802F0040B12191B
:10560000232A3000608910B1401E608110BD3B200C
:10561000FBE7208910B1401E208110BD3B20FBE735
:10562000E08810B1401EE08010BD1720FBE700F5B8
:10563000FA6000F07DFAA188012900D0481EA08000
:1056400010BD012902D0491E618010BD0C21FBE76D
:1056500010B1401E208010BD6320FBE7A089012807
:1056600002D0401EA08110BD0720FBE724000020CF
:10567000B401002010B50146084600F0FCFE20B140
:1056800014A0FFF753F8002010BD91F9000001EBC2
:1056900080004368012008E001EB80025468421E4C
:1056A00001EB82025460401CC0B28A788242F3D877
:1056B0008878401E40B2887000240C7038B1421EB9
:1056C00052B24A7001EB80004460184610BD4FF0A2
:1056D000FF32F6E7517565756520656D7074792C3C
:1056E0002064657175657565206661696C65642EF9
:1056F0000A00000038B503F0BBFA04461C4DD5ED96
:10570000040A95ED051A30EEC10AF4EEC10AF1EE75
:1057100010FA11DD687828B901206870DFED150AEC
:10572000C5ED060AD5ED060AB4EEE00AF1EE10FA70
:1057300001DD85ED060A38BD68780028FBD00E49EA
:10574000A869884211DDE869201AB0F5967F0CD966
:10575000A888401CA880ADF8000008480223002259
:105760006946006802F0D6FEEC610020687038BD22
:105770005401002000000000B81E053E7400002007
:1057800010B503F075FA234B234AD96A914201DD23
:10579000012200E0002293ED100AB0EEC00A10EEE4
:1057A000104A1E498C4209DA93ED110AB0EEC00A84
:1057B00010EE104A8C4201DA012100E00021BAB15A
:1057C000B1B1196A01B91862196A401AFA2820D9C8
:1057D000987800281DD1012098708D20FDF776FD66
:1057E0001420FDF773FDBDE81040AF20FDF76EBD3E
:1057F00000201862997801290BD198708D20FDF74F
:1058000065FD1020FDF762FDBDE81040AE20FDF7FC
:105810005DBD10BD54010020CDCCCC3E00000C423B
:1058200000210148FEF7A5BD00040040F8B505467B
:10583000002917D00A24B5FBF4F2062601233721EC
:105840003E200096FDF746FCB5FBF4F004FB105239
:105850000123372144200096FDF73CFCBDE8F840C9
:10586000FDF720BD0823062237213E20FDF716FB59
:1058700001B00823BDE8F040062237214420FDF79F
:105880000DBBF8B50546002917D00A24B5FBF4F284
:105890000C260123142110200096FDF71BFCB5FBFC
:1058A000F4F004FB1052012314211C200096FDF794
:1058B00011FCBDE8F840FDF7F5BC18230C221421BB
:1058C0001020FDF7EBFA01B01823BDE8F0400C22E0
:1058D00014211C20FDF7E2BAF8B50546002917D0BF
:1058E0000A24B5FBF4F20C2601231421342000967F
:1058F000FDF7F0FBB5FBF4F004FB1052012314217B
:1059000040200096FDF7E6FBBDE8F840FDF7CABC75
:1059100018230C2214213420FDF7C0FA01B01823FB
:10592000BDE8F0400C2214214020FDF7B7BAF8B5CD
:105930000546002917D00A24B5FBF4F206260123F8
:10594000372128200096FDF7C5FBB5FBF4F004FBDA
:105950001052012337212E200096FDF7BBFBBDE836
:10596000F840FDF79FBC0823062237212820FDF7C9
:1059700095FA01B00823BDE8F040062237212E2019
:10598000FDF78CBAF8B50546002917D00A24B5FBF7
:10599000F4F20C260123142158200096FDF79AFBFF
:1059A000B5FBF4F004FB105201231421642000968F
:1059B000FDF790FBBDE8F840FDF774BC18230C22FE
:1059C00014215820FDF76AFA01B01823BDE8F04011
:1059D0000C2214216420FDF761BA08B500290BD010
:1059E000062102460091012337215520FDF772FB65
:1059F000BDE80840FDF756BC01B008230622372158
:105A000055205DF804EBFDF749BA08B500290BD025
:105A1000062102460091042337210620FDF75AFB98
:105A2000BDE80840FDF73EBC06220823372110469A
:105A3000FDF734FA0823062237210C20FDF72EFA51
:105A40000823062237211220FDF728FA01B0082387
:105A50000622372118205DF804EBFDF71FBA00007D
:105A600001200D490968002901D0002070470B4929
:105A7000096809B10020704708491C398A690AB1D0
:105A800000207047044A896828321268491E8A42F9
:105A9000F7D1022070470000F0A300200001002091
:105AA00010B5064C012211462046FEF77AFC20462E
:105AB000BDE810400121FEF75CBC0000000400407E
:105AC00010B50246104600F0DDFC20B1BDE81040E4
:105AD00006A0FEF72BBE907802EB800359600021F0
